:020000040800F2
:10000000181E0020BD820008C5820008C7820008B3
:10001000C9820008CB820008CD82000800000000E1
:10002000000000000000000000000000CF82000877
:10003000D182000800000000D3820008D5820008A9
:10004000B7030008B9030008BB030008BD0300089C
:1000500097040008990400089B0400089D04000808
:10006000B1040008B3040008B5040008B704000890
:10007000B9040008BB040008BD040008BF04000860
:10008000C1040008C3040008D78200080000000073
:10009000000000000000000000000000CF04000885
:1000A000D7820008D7820008D7820008D70400084A
:1000B000D904000807090008090900080B0900080D
:1000C0000D0900080F0900081109000813090008AC
:1000D000150900081709000877090008FD0900083C
:1000E000CF0A0008D10A0008D782000800000000EB
:1000F0000000000000000000000000000000000000
:1001000000000000000000000000000000000000EF
:100110000000000000000000D7820008ED0A00087F
:10012000DFF80CD008F0B8F9004800474B01000890
:10013000181E002001B502E00098401E00900098B3
:100140000028F9D106F061FC08BD00F01DFD00F0AB
:10015000CEFD00F0D7FF00F0D9FE01F036F800F038
:1001600060FD0421784806F0A8FB4FF480517748E1
:1001700006F0A1FB4FF40071734806F09CFB4FF4AE
:100180008071714806F097FB00F03DFF40216F48F9
:1001900006F093FB20216D4806F08FFB04216A488E
:1001A00006F089FB4FF40061684806F086FB0120E9
:1001B0006749087067480068C5B2552D03D1012012
:1001C0006549087002E0002063490870002407E0D8
:1001D00062482044D0F8000C61490855601CC4B244
:1001E000062CF5DB5E4800780921B1EB201F09DB06
:1001F0005B48007800F00F00092803DC0120594912
:10020000087002E000205749087001205649087024
:100210005649087005F0A6FC05F0E0FC93E0544850
:10022000FFF788FF50480078002843D048480078FE
:1002300000283FD000204C4908704E480078012823
:100240001DD100204B4908700221404806F019FBDF
:1002500048B905F0F0F805F081FD02F07FFE0020BE
:10026000454908700BE000F0CEFE4FF400713648AF
:1002700006F021FB4FF48071334806F01CFB3F4829
:10028000007810B105F09BF912E03D480078552840
:1002900002D105F065FA0BE03A480078AA2802D1AD
:1002A0003048007810B900203749087004F0E9FEA2
:1002B00005F054FD3548007808B102F042FC34489E
:1002C0000078012804D100203149087002F093FC25
:1002D00030480078012804D102F01BFD00202D4990
:1002E00008701B48007858B905F086FD00202249A7
:1002F0000870234908702449087001201B490870C0
:100300001F480078FF280AD12348007838B11248E6
:10031000007820B902F015FD0020194908701F4827
:10032000C078152807DC1D48C078072803DB0120AA
:100330001B49087007E00020194908704FF48051EC
:10034000024806F0B8FA6AE7000C014000080140D4
:100350003400002030FC00083600002000F00008C7
:100360009C000020440000203900002041000020B3
:10037000FFFF0F003A00002025000020330000207E
:1003800026000020460000202C0000202F00002026
:100390004200002043000020350000200000002023
:1003A00037000020704770477047704770477047AC
:1003B00070477047704770477047704710B501200D
:1003C00006F00CFE002865D0012006F017FE06F0AE
:1003D000D7FD06F099FDFB4988425BD1FA480078C9
:1003E000002852D0F9484079012817D0F7484079C1
:1003F000032813D0F548407905280FD0F3484079F9
:1004000007280BD0F1484079082807D0EF484079F9
:100410000A2803D0ED4840790C280BD1EB4800792D
:10042000202807DB0120E949087108464079401C73
:1004300048712AE0E548407904280BD0E348407928
:10044000062807D0E1484079092803D0DF484079E1
:100450000B280BD1DD4800791F2807DB0120DB4981
:10046000087108464079401C48710EE0D748407931
:1004700002280AD1D54800791D2806DB0120D3497E
:10048000087108464079401C4871002006F045FD7F
:1004900006F076FD10BD70477047704710B502201A
:1004A00005F015FE0120CA490870CA49087010BD40
:1004B0007047704770477047704770477047704784
:1004C0007047704770477047704770477047704774
:1004D000704770477047704710B50221480707F012
:1004E00090FC002864D00221480707F09BFC4FF0E5
:1004F000804007F067FCB84908800846008800F58E
:100500007A7081B24FF0804007F04AFCB34800781F
:10051000401CB2490870B2480078401CB0490870CD
:10052000B0480078401CAF490870AF480078401CC4
:10053000AD490870084600781E2808DBAB480078F3
:1005400028B10020A94908700120A9490870A348D2
:1005500000781E2806DB0020A04908709D4908701D
:10056000A44908709E480078032806DB0020A249B1
:100570000870A2490870A24908709A4800780528B6
:1005800007DDA048007820B100209E4908709549F9
:100590000870944800780A2809DD9A4800780028F5
:1005A00005D101209749087000208E4908707CE031
:1005B0000421080707F025FC00285CD00421080767
:1005C00007F030FC4FF0804007F0FFFB82490880C5
:1005D00008460088FA3081B24FF0804007F0E2FB15
:1005E00089480078B0B38948007800285DD08848F1
:1005F000007810B98348007888B94FF48051854855
:1006000006F059F92021834806F048F9C0F10100AD
:10061000C4B2224620217F4806F051F945E04FF44C
:1006200080517C4806F03AF9C0F10100C4B222467C
:100630004FF48051774806F042F92021754806F0C2
:100640002DF9C0F10100C4B222462021714806F004
:1006500036F92AE0FFE76D48007830B320216D4875
:1006600006F01CF9C0F10100C4B2224620216948FD
:1006700006F025F919E00821C80607F0C2FBA0B171
:100680000821C80607F0CEFB4FF0804007F0A0FB22
:100690005149088008460088193081B24FF08040E7
:1006A00007F082FB01205C4908701021880607F0E2
:1006B000A8FB00287ED01021880607F0B3FB4FF07E
:1006C000804007F088FB44490880084600881430C1
:1006D00081B24FF0804007F069FB02214F4806F0DD
:1006E000D0F870B94E48007801280AD1002041495D
:1006F00008704C480078401C4A490870002037496F
:10070000087048480078042829DB3248007801281E
:1007100015D100204349087043480078401C4249E5
:1007200008700120414908700020414908703C4987
:10073000087040480078401C3E4908700FE00120D6
:100740002449087000203749087001203749087093
:100750000020374908703449087031490870012178
:100760002E4806F08EF870B92D48007801280AD17D
:1007700000202049087030480078401C2E4908703D
:100780000020164908702C480078042864DB1148C2
:100790000078012852D100202749087022480078AB
:1007A000401E214908700020204908702049087027
:1007B0001B4900E0A6E008701E480078401E1D4955
:1007C000087049E080510100320000200000002044
:1007D0003A000020340000201E00002024000020E9
:1007E00021000020230000202200002031000020F2
:1007F0004300002033000020300000202F000020A4
:1008000019000020380000203700002035000020AB
:10081000360000200008014039000020000C014093
:100820004000002027000020250000203E0000207E
:10083000260000202C000020280000200120AE49C6
:1008400008700020AD490870AD490870AD490870C6
:10085000AD490870AD4908708021AD4806F011F827
:1008600090B9AA48007801280ED1A3490870002049
:10087000A8490870A8480078401CA7490870A748F4
:100880000078401CA5490870A34800780A2802D1C6
:10089000FF209C490870A1480078402809DB5520BA
:1008A0009849087000209D4908709D490870974933
:1008B000087002219B4805F0E4FF012810D10121B6
:1008C000984805F0DEFF01280AD18021904805F004
:1008D000D8FF012804D194480078401C9249087040
:1008E0009148007803280DDB01208849087000201A
:1008F0008E490870814908708749087087490870D7
:100900008949087010BD704770477047704770473D
:1009100070477047704710B540F22551844807F082
:1009200045FC50B1824807F0C1FBC1B28148047850
:10093000601C804A10708048015540F227717C4845
:1009400007F034FCB0B17D480478601C7B4A10701D
:100950007B480068015D764807F0A4FB7748007883
:1009600078490978884205DB002240F227717048F7
:1009700007F037FB10BD10B540F22551724807F063
:1009800015FC50B1704807F091FBC1B26F48047874
:10099000601C6E4A10706E48015540F227716A481B
:1009A00007F004FCB0B16B480478601C694A107011
:1009B00069480068015D644807F074FB6548007889
:1009C00066490978884205DB002240F227715E48BB
:1009D00007F007FB28215C4807F0E8FB68B100BF7F
:1009E0002021594807F0CCFB0028F9D0282156488F
:1009F00007F006FC544807F059FB10BD10B540F253
:100A00002551574807F0D2FB002842D040214048EA
:100A100005F051FF524807F049FBC1B25148047834
:100A2000601C504A10705048015510460078401E16
:100A30004D49085CA82803D04C480078012803D110
:100A400001204A4908700BE0474846490978405C54
:100A5000A82805D04548007810B900204149087001
:100A6000404800780A2804D13F48407A0C30404979
:100A700008703C4800783E490978884202D101203C
:100A80003C49087000203C4908704021204805F08E
:100A900014FF40F22771324807F088FBB0B13748A5
:100AA0000478601C354A107035480068015D2C4898
:100AB00007F0F8FA3148007832490978884205DBB6
:100AC000002240F22771264807F08BFA10BD7047CC
:100AD000704770477047704770477047704770475E
:100AE000704770477047704770477047704770474E
:100AF0007047704770470000340000202800002035
:100B00003E0000202600002025000020400000209C
:100B10000008014033000020290000202A000020A6
:100B200024000020000C01402B00002027000020A2
:100B30000038014015000020301300201400002070
:100B4000080000201A000020004400401700002088
:100B50003A130020160000200C0000201B0000208B
:100B600000480040190000209E13002030000020A3
:100B7000200000202F00002021000020180000206D
:100B8000100000201C00002010B505F0BBFF4FF442
:100B9000803005F0D9FF06F016F80446012C23D169
:100BA000102005F0B1FA022005F09AFA002006F0B4
:100BB0005CF8002006F06BF8A00206F05FF8A104D4
:100BC000881006F029F8012006F032F800BF39201D
:100BD00005F0DDFF0028FAD0022006F038F800BF4B
:100BE00006F03EF80828FBD10121042006F005F9A3
:100BF0000121082006F001F90121084606F0FDF860
:100C00000121880306F0F9F80121880406F002F9B1
:100C10000121480406F0FEF80121084606F0FAF822
:100C200010BD08B500214FF0006005F032F94FF417
:100C3000E06005F0F7F8072005F049FA1C208DF870
:100C4000000000208DF801008DF8020001208DF8D1
:100C50000300684605F0EBF807208DF8000000203F
:100C60008DF8010001208DF802008DF80300684620
:100C700005F0DDF827208DF8000000208DF8010038
:100C800002208DF8020001208DF80300684605F06F
:100C9000CEF826208DF8000000208DF801000320FA
:100CA0008DF8020001208DF80300684605F0BFF8BA
:100CB00003208DF8000000208DF8010004208DF83D
:100CC000020001208DF80300684605F0B0F82520E9
:100CD0008DF8000000208DF8010006208DF802003C
:100CE00001208DF80300684605F0A1F808BD08B59D
:100CF0004FF48060ADF8000004208DF803006946D1
:100D0000FB4805F02BFD4FF40070ADF80000032008
:100D10008DF8020018208DF803006946F44805F0AC
:100D20001DFD1020ADF8000003208DF802001820F2
:100D30008DF803006946EE4805F010FD0820ADF877
:100D4000000010208DF803006946E94805F006FD13
:100D50000420ADF800001C208DF803006946E4482B
:100D600005F0FCFC4FF40060ADF8000004208DF8A5
:100D700003006946DF4805F0F1FC4FF48060ADF8F0
:100D8000000003208DF8020018208DF8030069464A
:100D9000D84805F0E3FC4FF4C050ADF80000102037
:100DA0008DF8030003208DF802006946D04805F055
:100DB000D5FC0420ADF8000014208DF803000320BA
:100DC0008DF802006946CB4805F0C8FC4FF440702E
:100DD000ADF8000010208DF8030003208DF802000C
:100DE0006946C44805F0BAFC4FF47040ADF8000005
:100DF00010208DF8030003208DF802006946BD48DD
:100E000005F0ACFC4FF48070ADF8000010208DF8B8
:100E1000030003208DF802006946B54805F09EFCEA
:100E20006020ADF8000010208DF8030003208DF83D
:100E300002006946AE4805F091FC0220ADF80000C2
:100E400004208DF803006946A94805F087FC0320BB
:100E5000ADF8000004208DF803006946A54805F0B0
:100E60007DFC8020ADF8000004208DF80300694669
:100E70009F4805F073FC0120ADF8000003208DF8B9
:100E8000020014208DF803006946994805F066FCBD
:100E9000C020ADF8000003208DF8020014208DF86A
:100EA00003006946934805F059FC402091491031F0
:100EB00008608020086008BD10B501214FF0C050C7
:100EC00005F0A8FF012005F0C2FD05F019F84FF468
:100ED000407005F01CFF012005F01FFF06F059F8D7
:100EE00006F04EF80121084605F0EEFF06F048F83E
:100EF0004FF2244006F01EF806F042F8002005F0FC
:100F00000AF84FF4407005F00EF810BD00B587B038
:100F10004FF4165003904FF48050ADF810000020AD
:100F2000ADF812004FF48060ADF814000020ADF869
:100F300018000C20ADF8160003A96F4806F0B9FFA1
:100F400003A96E4806F0B5FF01216B4807F03DF894
:100F500001216A4807F039F8012240F2255166481C
:100F600007F03FF8012240F22551644807F039F8B4
:100F70000221634807F0ACF80221614807F0A0F8AD
:100F80004FF40060ADF804000020ADF80600ADF8A5
:100F900008004FF48070ADF80A0001A9584806F027
:100FA000FDFF4FF4FC5003904FF48050ADF810005B
:100FB0004FF44050ADF812004FF48060ADF81400CB
:100FC0000C20ADF816000020ADF8180003A94C481D
:100FD00006F06FFF01222821494807F002F801229C
:100FE00040F22551464806F0FCFF0121444806F036
:100FF000ECFF0121424807F07FF80121404807F04B
:101000006FF807B000BD1CB502213D4807F060F83D
:1010100002213B4807F054F80020ADF80000694673
:10102000374806F0BBFF00222821354806F0D9FFDB
:10103000002240F22551324806F0D3FF002130480B
:1010400006F0C3FF00212E4807F056F800212C4877
:1010500007F046F81CBD00B587B00221284807F00C
:1010600037F80221264807F02BF84FF40060ADF85E
:1010700004000020ADF80600ADF808004FF48070C1
:10108000ADF80A0001A91E4806F088FF4FF4FC5095
:1010900003904FF48050ADF810004FF44050ADF87D
:1010A00012004FF48060ADF814000C20ADF816006B
:1010B0000020ADF8180003A9114806F0FAFE01223D
:1010C00028210F4806F08DFF012240F225510C48DF
:1010D00006F087FF01210A4806F077FF0121084842
:1010E00007F00AF80121064806F0FAFF07B000BD34
:1010F00000080140000C0140003801400048004059
:10110000004400401CB5022004F0E1FF0121002052
:1011100005F03AFC684604F0AAFF00208DF80400B0
:101120000C208DF805000220009001208DF80600AB
:10113000684604F055FF1CBD70B504460D460020FE
:10114000F9490870F9480570F9480460012240F235
:101150002771F84806F045FF00BFF3480078F349CF
:1011600009788842F9D170BD70B504460D4600205B
:10117000F1490870F1480570F1480460012240F21D
:101180002771F04806F02DFF70BD70B504460D467E
:101190000020ED490870ED480570ED4804604021DD
:1011A000EC4805F088FB012240F22771EA4806F07E
:1011B00018FF00BFE4480078E44909788842F9D173
:1011C0004021E44805F079FB70BD00B587B04FF6CB
:1011D000FF70ADF8140045F6BF50ADF810000020C8
:1011E000ADF81600ADF8120004A94FF0804005F0EC
:1011F000E3FF0020ADF800000120ADF802004FF43D
:101200007A70ADF806000020ADF8080069464FF08E
:10121000804006F00EF800214FF0804006F058FCA8
:101220000120ADF80200FA20ADF80600694640073B
:1012300006F041F800214FF0804006F052FC0120FA
:10124000ADF802001920ADF806006946800706F0E7
:101250007FF800214FF0804006F050FC0120ADF8EF
:1012600002001420ADF806006946000706F0BBF83E
:1012700000214FF0804006F04AFC0121880706F06B
:10128000F7FB01221E21900706F00DFB01218807C4
:1012900006F0EEFA07B000BD10B5012005F034FDF0
:1012A00000BF612005F073FC0028FAD045F25550CC
:1012B00005F0A2FB032005F0A2FB40F2E73005F0A9
:1012C000A1FB05F0A2FB05F0A5FB10BD10B50121A7
:1012D000C80205F09FFD4FF4C07006F0B6FF412034
:1012E00006F0BCFF7F2006F0D4FF06F0DDFF06F01D
:1012F000C6FF10BD102000BF011EA0F10100FBD1F0
:10130000704700B5802095490860FFF7F3FF402043
:1013100092490860FFF7EEFF90480838006800F037
:10132000800008B9012000BD80208C49091D08609B
:10133000FFF7E0FF40208949091D0860FFF7DAFF49
:1013400086480838006800F0800008B10220EAE70B
:101350000020E8E700B580208049091D0860FFF7FC
:10136000C9FF40207D490860FFF7C4FF80207B490A
:101370000860FFF7BFFF00BD00B580207749091D59
:101380000860FFF7B7FF402074490860FFF7B2FF1D
:1013900040207249091D0860FFF7ACFF00BD00B591
:1013A00080206E490860FFF7A5FF40206B49086068
:1013B000FFF7A0FF40206949091D0860FFF79AFF69
:1013C00000BD10B5034640206449091D0860002493
:1013D0001BE003F0800018B180206049086003E042
:1013E00080205E49091D08605806030EFFF782FF42
:1013F00040205A490860FFF77DFF40205749091DEA
:101400000860FFF777FF601CC4B2082CE1DB802086
:1014100052490860FFF76EFF402050490860FFF70F
:1014200069FF4E480838006800F0800028B140206D
:101430004A49091D0860032010BD40204749091D85
:1014400008600420F8E710B5802044490860402077
:10145000091D08600023002416E040203F49086071
:10146000FFF748FF5806030E3C480838006800F0B4
:10147000800008B143F0010340203849091D08608D
:10148000FFF738FF601CC4B2082CE6DB184610BD1D
:1014900030B500240025FFF734FF04460CB1204688
:1014A00030BDA8252846FFF78CFF0446042C01D048
:1014B0002046F5E70020F3E7F0B505460E46002488
:1014C000002700BFFFF7E4FF0028FBD1FFF719FF5B
:1014D00004460CB12046F0BD0120B0EB154F01D100
:1014E000AA2700E0A8273846FFF76BFF0446042C24
:1014F00001D02046EFE7C5F30720FFF762FF04465F
:10150000042C01D02046E6E7E8B2FFF75AFF044674
:10151000042C01D02046DEE73046FFF752FF044698
:10152000042C1DD02046D6E7140000201A0000200D
:101530000800002000380140160000201B00002099
:101540000C00002000440040180000201C00002077
:10155000100000200008014000480040100C01402D
:10156000FFF7F8FE0020B6E72DE9F04F0546884664
:1015700091469A460024A346002608EB052087B230
:1015800000BFFFF785FF0028FBD10120B0EB274FFC
:1015900002D14FF0AA0B01E04FF0A80B5846FFF71D
:1015A00010FF0446042C02D02046BDE8F08F38120C
:1015B000FFF707FF0446042C01D02046F5E7F8B2F8
:1015C000FFF7FFFE0446042C01D02046EDE700267D
:1015D0000AE01AF80600FFF7F4FE0446042C01D0D6
:1015E0002046E2E7701CC6B24E45F2DBFFF7B2FEC2
:1015F0000020DAE72DE9FC4F04460D4617464FF070
:101600000009C4F30F26E0B20190604200F0FF0829
:101610006019C0F30F2A6019C0B20090AAEB06004F
:101620001FFA80FB45450CD800BFAAB23B463046A6
:101630000199FFF799FF0028F7D12F44701C86B25B
:101640000BE000BF3B46424630460199FFF78CFF56
:101650000028F7D14744701C86B2BBF1010F16DD9C
:101660004FF000090FE000BF3B464FF480720021AD
:101670003046FFF779FF0028F6D107F58077701C18
:1016800086B209F10109ABF101004845EBD8B2453A
:1016900008D100BF3B4600213046009AFFF764FFA7
:1016A0000028F7D1BDE8FC8FF0B505460E460024B2
:1016B000002700BFFFF7ECFE0028FBD1FFF721FE5B
:1016C00004460CB12046F0BD0120B0EB154F01D10E
:1016D000AA2700E0A8273846FFF773FE0446042C2B
:1016E00001D02046EFE7C5F30720FFF76AFE044666
:1016F000E8B2FFF766FE0446042C01D02046E2E77C
:10170000FFF7FFFD0446A9273846FFF75AFE0446B7
:10171000042C01D02046D6E7FFF795FE3070FFF786
:101720003EFEFFF7E7FD0020CDE72DE9F04305463B
:101730000F4690460024A146002600BFFFF7A8FEF2
:101740000028FBD1FFF7DDFD044614B12046BDE8BB
:10175000F0830120B0EB154F02D14FF0AA0901E050
:101760004FF0A8094846FFF72CFE0446042C01D090
:101770002046ECE7C5F30720FFF723FE0446E8B256
:10178000FFF71FFE0446042C01D02046DFE7FFF7D9
:10179000B8FD04464FF0A9094846FFF712FE04467B
:1017A000042C01D02046D2E700260DE0FFF74BFEC7
:1017B00008F80600781EB04202D0FFF7DDFD01E018
:1017C000FFF7EDFD701C86B2BE42EFDBFFF7C2FDF6
:1017D0000020BCE77CB501215A4805F06EF84FF4B3
:1017E000B030FEF7A7FC0121564805F064F84FF42D
:1017F000007403E0601E84B204B905E00121514881
:1018000005F03FF80128F5D000BF4FF4007403E065
:10181000601E84B204B905E001214A4805F031F8A0
:101820000028F5D000BF002C7DD000256DE04FF4DE
:10183000007403E0601E84B204B905E00121414850
:1018400005F01FF80128F5D000BF4FF4007403E045
:10185000601E84B204B905E001213A4805F011F890
:101860000028F5D000BFF820FEF764FC01213548C0
:1018700005F007F808B9002600E00126072D0BDC6B
:101880009DF800004006000E8DF800009DF8000055
:1018900030438DF8000036E00F2D0BDC9DF8010081
:1018A0004006000E8DF801009DF8010030438DF8D0
:1018B000010028E0172D0BDC9DF802004006000E09
:1018C0008DF802009DF8020030438DF802001AE006
:1018D0001F2D0BDC9DF803004006000E8DF8030061
:1018E0009DF8030030438DF803000CE0272D0ADC3F
:1018F0009DF804004006000E8DF804009DF80400D9
:1019000030438DF80400681CC5B2282D8FDB9DF88C
:1019100000009DF8011008449DF8021008449DF84D
:101920000310084400E00BE09DF80410884207D142
:101930009DF80000044908709DF8020003490870F2
:101940007CBD0000000801402E0000202D0000207A
:101950000021FA4A1170FA4A1170FA4A1170FA49D4
:101960000978A8291ED1F849C979A8291AD1F749B7
:101970000978491EF44A515C16290FD1002005E070
:10198000F149095CF24A1154411CC8B2EF49097887
:101990008842F5DB0121EF4A117006E00021ED4A93
:1019A000117002E00021EB4A1170704710B5FFF78B
:1019B000CFFFE848007801281BD10024002305E070
:1019C000E348C05C2044C4B2581CC3B2DF4800786E
:1019D000801E9842F4DCDD480078801EDC49085CFB
:1019E000A04203D10120DB49087002E00020D94960
:1019F000087010BD70B500250026FFF7D7FFD54849
:101A0000007801282BD1002413E0D149601C085C28
:101A1000FF2801D1681CC5B2CD49601C085CC4F127
:101A20000501CD4A515C884201D1701CC6B2601CD0
:101A3000C4B2062CE9DB062E05D10120C749087087
:101A4000C44908700BE0062D06D10020C349087078
:101A50000120C049087002E00020BE49087070BD36
:101A600070B5BB48807A3338C5B2A820B849087031
:101A7000002407E0C4F10500B749095C601CB44AC2
:101A80001154C4B2062CF5DBA820B149C8718620D8
:101A90000872082048723420887200240BE0B04895
:101AA00000EBC50000593330C1B204F10B00A84A65
:101AB0001154601CC4B2072CF1DB0020A4498874C7
:101AC000002408E0A248807CA149095D0844A0499F
:101AD0008874601CC4B2122CF4DB16209C49C874B4
:101AE00014219B48FFF751FB70BD01209D490870F0
:101AF0009D490870704710B5A820954908700024CA
:101B000007E0C4F105009449095C601C904A115437
:101B1000C4B2062CF5DBA8208D49C871802008725C
:101B200001204872342088720020C872002408E026
:101B30008748C07A8649095D08448549C872601C97
:101B4000C4B20B2CF4DB1620814908730D218048A8
:101B5000FFF71BFB10BD01460A2291FBF2F302FBCB
:101B600013120A2391FBF3F342EA0312D0B2704737
:101B7000FEB504200090002407E07C482044D0F803
:101B8000000C01A90855601CC4B2062CF5DB744892
:101B90000068C0B28DF80A009DF80A0088287BD042
:101BA0006F48401C0068C0B28DF80A00002407E0AE
:101BB0006E482044D0F8300C6D490855601CC4B202
:101BC000FF2CF5DB04F0ABFA0127352004F042FDD1
:101BD000002409E0624930394A1402FB041004F081
:101BE000E3FA0090601CC4B2BC4203DA9DF8000026
:101BF0000428EFD0002413E0012000EB440001A9E9
:101C00000D5C01A810F8140040EA0525544930394C
:101C100001EB4400294604F0CAFB0090601CC4B2EA
:101C2000032CE9DB88208DF804009DF80A008DF86C
:101C3000050005F069F906464FF46160B6FBF0F067
:101C40004C49C8704FF46160B6FBF0F100FB1160C5
:101C50003C21B0FBF1F0474988708878FFF77BFFA3
:101C60008DF806004349C878FFF775FF8DF8070027
:101C700040490879FFF76FFF8DF808003D49487922
:101C8000FFF769FF8DF809003A498879FFF763FF8C
:101C90008DF80A00002406E020E001A8005D344928
:101CA0000855601CC4B2072CF7DB002412E00120A9
:101CB00000EB44002E490D5C084610F8140040EA81
:101CC0000525274901EB4400294604F070FB0090EC
:101CD000601CC4B27F2CEADB04F02DFAFEBD2DE9B6
:101CE000F0410A251A48467A74E31948405D3428C1
:101CF00055D116B3002444E0681C20441449085C04
:101D00003338C1B2681C2044114A1154681C204465
:101D10001146085C0921B1EB201F2FDB681C204411
:101D20001146085C00F00F00092827DC681C2044DD
:101D3000095C114A601C115421E030E02F000020A2
:101D400019000020300000209E13002020000020F9
:101D50009D1400203B0000209C0000203C0000203F
:101D600030FC0008330000203400002000F00008A0
:101D70003013002000000020D719002003E0601C71
:101D8000C4B2102CB8DB00BF102C02D1AA20FA4933
:101D9000087005F11100C5B2A6F11100C6B2F748EE
:101DA000405D352837D1B6B300240BE0681C2044D1
:101DB000F249085C3338C1B2681C2044EF4A115420
:101DC000601CC4B20E2CF1DBEC49681D0C5C04F005
:101DD0008000802809D10120E94908700020E949E4
:101DE00008700120E84908700FE00020E4490870FD
:101DF000E64908704FF48051E54804F05CFD20216D
:101E0000E34804F05AFDFFF7B3FE05F10F00C5B239
:101E1000A6F10F00C6B2D948405D362834D19EB332
:101E2000002423E0681C2044D449085C3338C1B244
:101E3000681C2044D14A1154681C20441146085C97
:101E40000921B1EB201F0EDB681C20441146085C01
:101E500000F00F00092806DC681C2044095CCD4A0C
:101E6000601C115400E003E0601CC4B2142CD9DBE8
:101E700000BF142C02D1AA20C649087005F1150034
:101E8000C5B2A6F11500C6B2BC48405D372832D1B4
:101E90008EB3002423E0681C2044B849085C333822
:101EA000C1B2681C2044B54A1154681C2044114634
:101EB000085C0921B1EB201F0EDB681C2044114691
:101EC000085C00F00F00092806DC681C2044095C4F
:101ED000B14A601C115400E003E0601CC4B2052C40
:101EE000D9DB00BF052C02D1AA20AB490870A81D80
:101EF000C5B2B01FC6B2A148405D38287ED1002EC1
:101F00007CD0002423E0681C20449C49085C3338C2
:101F1000C1B2681C2044994A1154681C20441146DF
:101F2000085C0921B1EB201F0EDB681C2044114620
:101F3000085C00F00F00092806DC681C2044095CDE
:101F4000964A601C115400E003E0601CC4B2052CEA
:101F5000D9DB00BF052C6ED1AA2090490870084635
:101F6000807800F00F008978091101EB810100EB06
:101F700041018A48C07800F00F0000EBC00202EB7C
:101F8000001001EB80008549C978091101EB41027D
:101F9000C2EBC11100EBC1078048007978BB7F48D4
:101FA000407960BBB7F57A7F09D201207449087087
:101FB0000020744908700120734908703BE078489C
:101FC000807800F00F0076498978091101EB8101D2
:101FD00000EB41007249C97801F00F0101EBC10229
:101FE00002EB011100EB81006D49C978091101EB89
:101FF0004102C2EBC11100EBC10001E01FE00EE0A5
:10200000B84218D200205E4908704FF480516048F1
:1020100004F051FC20215E4804F04FFC0BE000204E
:10202000574908704FF48051594804F044FC20216E
:10203000574804F042FCA81DC5B2B01FC6B24F48B5
:10204000405D392832D18EB3002423E0681C20443F
:102050004A49085C3338C1B2681C2044474A1154CD
:10206000681C20441146085C0921B1EB201F0EDBDF
:10207000681C20441146085C00F00F00092806DCAB
:10208000681C2044095C474A601C115400E003E0CE
:10209000601CC4B2022CD9DB00BF022C02D1AA20E2
:1020A00040490870E81CC5B2F01EC6B23348405D16
:1020B0003A2839D1C6B3002423E0681C20442F49B4
:1020C000085C3338C1B2681C20442C4A1154681C87
:1020D00020441146085C0921B1EB201F0EDB681C6F
:1020E00020441146085C00F00F00092806DC681C3B
:1020F0002044095C2C4A601C115400E003E0601C81
:10210000C4B2052CD9DB00BF052C09D11B49E81C42
:10211000085C28B1281D085C10B1AA20224908706B
:10212000A81DC5B2B01FC6B21448405D3B2851D1AE
:10213000F6B3002440E0681C20441049085C3338A2
:10214000C1B2681C20440D4A1154681C2044114639
:10215000085C0921B1EB201F2BDB681C20441146D1
:10216000085C00F00F00092823DC681C2044095C8F
:102170000E4A601C11541DE0D71900209D14002048
:102180003500002023000020380000203600002009
:1021900000080140E81900207300002079000020A9
:1021A000500000207F00002082000020FD19002048
:1021B00010E003E0601CC4B2142CBCDB00BF142C84
:1021C00002D1AA20FE49087005F11500C5B2A6F19A
:1021D0001500C6B2FB48405D3C2814D19EB10024D6
:1021E0000BE0681C2044F749085C3338C1B2681C16
:1021F0002044F44A1154601CC4B2042CF1DB681D65
:10220000C5B2701FC6B2EF48405D3D2832D18EB3D3
:10221000002423E0681C2044EA49085C3338C1B23A
:10222000681C2044E74A1154681C20441146085C8D
:102230000921B1EB201F0EDB681C20441146085C0D
:1022400000F00F00092806DC681C2044095CDE4A07
:10225000601C115400E003E0601CC4B2042CD9DB04
:1022600000BF042C02D1AA20D7490870681DC5B24E
:10227000701FC6B2D348405D3E2832D18EB30024D1
:1022800023E0681C2044CF49085C3338C1B2681C85
:102290002044CC4A1154681C20441146085C092192
:1022A000B1EB201F0EDB681C20441146085C00F0D7
:1022B0000F00092806DC681C2044095CC34A601C26
:1022C000115400E003E0601CC4B2042CD9DB00BF51
:1022D000042C02D1AA20BD490870681DC5B2701F28
:1022E000C6B2B848405D3F2832D18EB3002423E007
:1022F000681C2044B349085C3338C1B2681C2044D0
:10230000B04A1154681C20441146085C0921B1EB05
:10231000201F0EDB681C20441146085C00F00F00F3
:10232000092806DC681C2044095CA94A601C115479
:1023300000E003E0601CC4B2042CD9DB00BF042C15
:1023400002D1AA20A2490870681DC5B2701FC6B28A
:102350009C48405D402834D196B3002423E0681C9B
:1023600020449849085C3338C1B2681C2044954A1F
:102370001154681C20441146085C0921B1EB201F50
:102380000EDB681C20441146085C00F00F00092891
:1023900006DC681C2044095C8E4A601C115400E075
:1023A00003E0601CC4B2042CD9DB00BF042C02D1B2
:1023B000AA2088490870681DC5B2701FC6B209E01E
:1023C000FFE78048405D332803DD7E48405D4128BB
:1023D00000DB0026002E7FF488ACBDE8F0812DE9FB
:1023E000F0418AB000240A267648477A31E17548E0
:1023F000805D34281AD1CFB101A90855601CC4B240
:1024000000250DE0C5F105007349085C01A90855D8
:1024100001A8005D33300855601CC4B2681CC5B209
:10242000062DEFDB701CC6B2781EC7B26548805D12
:1024300035281AD1CFB101A90855601CC4B20025B6
:102440000DE0C5F105006449085C01A9085501A823
:10245000005D33300855601CC4B2681CC5B2062D3F
:10246000EFDB701CC6B2781EC7B25648805D3628B6
:1024700010D17FB101A90855601CC4B25320085582
:10248000601CC4B234200855601CC4B2701CC6B2B3
:10249000781EC7B24B48805D372873D1002F71D0AA
:1024A00004F032FD80464FF46160B8FBF0F04B4918
:1024B000C8704FF46160B8FBF0F100FB11803C2163
:1024C000B0FBF1F0454988704FF46160B8FBF0F162
:1024D00000FB11803C21B0FBF1F201FB12003F49EF
:1024E0004870372001A90855601CC4B23B494878A0
:1024F000FFF731FB01A9085501A8005D33300855ED
:10250000601CC4B235498878FFF725FB01A908553E
:1025100001A8005D33300855601CC4B22F49C8784B
:10252000FFF719FB01A9085501A8005D33300855D4
:10253000601CC4B229490879FFF70DFB01A90855B1
:1025400001A8005D33300855601CC4B223494879A6
:10255000FFF701FB01A9085501A8005D33300855BC
:10256000601CC4B21D498879FFF7F5FA01A9085526
:1025700001A8005D33300855601CC4B2701CC6B29F
:10258000781EC7B20F48805D382817D1B7B101A9AE
:102590000855601CC4B200250AE0002001A90855B6
:1025A00001A8005D33300855601CC4B2681CC5B278
:1025B000042DF2DB701CC6B2781EC7B201480FE0D2
:1025C000FD1900209D140020880000208D000020AF
:1025D00092000020970000209C00002000000020B6
:1025E000805D39282CD15FB301A90855601CC4B2A5
:1025F0000020085501A8005D33300855601CC4B2A6
:102600000A20FFF7A8FA01A9085501A8005D333098
:102610000855601CC4B20020085501A8005D333085
:102620000855601CC4B20020085501A8005D333075
:102630000855601CC4B2701CC6B2781EC7B208E050
:10264000FE48805D332803DDFC48805D3A2800DBCE
:102650000027002F7FF4CBAEA820F8490870002592
:1026600007E0C5F10500F649095C681CF34A1154FE
:10267000C5B2062DF5DBA820F049C8718320087289
:1026800008464472002507E001A8415D05F10A00F3
:10269000EA4A1154681CC5B2A542F5DB002104F1D9
:1026A0000A00E64A115400250CE004F10A00E3494F
:1026B000085C495D0844C1B204F10A00DF4A1154C4
:1026C000681CC5B204F10A00A842EEDC1621401CC9
:1026D000DA4A1154401CC1B21046FEF756FD0AB04A
:1026E000BDE8F081014601F00F020B0903EB830303
:1026F00002EB4302D0B270472DE9F843042000906A
:102700000A24CE48467A002520E06019CB49085CAF
:1027100033386119C94A505460191146085C0921BF
:10272000B1EB201F0CDB60191146085C00F00F00B4
:10273000092805DC6019085C33306119505403E046
:1027400000260120BF490870681CC5B2B542DCDB19
:1027500098E1BA48005D342870D1002E6ED0601C1C
:102760002844B649085C3338C1B2601C2844B34AD7
:10277000115403F0D4FC4FF00108352003F06AFF38
:10278000002508E0B0494A1402FB051003F00CFDD7
:102790000090681CC5B2454503DA9DF80000042886
:1027A000F0D000252FE0601C00EB4500A349085C39
:1027B00033380521A1EB4501A14A5054A01C00EB80
:1027C00045009E49085C33380421A1EB4501505473
:1027D000601C00EB45009949085C33381FFA80F90A
:1027E000A01C00EB4500085C333840EA09201FFAC2
:1027F00080F90421A1EB4501934A8818494603F06A
:10280000D6FD681CC5B2032D03DA9DF8000004282C
:10281000C9D003F090FC04218C4804F04EF840F637
:10282000FF70FDF787FC0421884804F044F8E01DA0
:10283000C4B2F01FC6B20120854908707F48005D10
:10284000352814D19EB100250BE0601C28447B493B
:10285000085C3338C1B2601C2844784A1154681CA3
:10286000C5B2062DF1DBE01DC4B2F01FC6B273483D
:10287000005D362804D11EB1E01CC4B2F01EC6B201
:102880006E48005D37287DD1002E7BD071480078DE
:10289000002878D0694A611C515C3339C8B2FFF70F
:1028A00021FF07463C2F02DB012066490870634A7E
:1028B000A11C515C3339C8B2FFF714FF07463C2F07
:1028C00002DB01205F4908705C4AE11C515C33392E
:1028D000C8B2FFF707FF0746182F02DB012059494E
:1028E0000870564A211D515C3339C8B2FFF7FAFE11
:1028F0000746202F02DB0120524908704F4A611D14
:10290000515C3339C8B2FFF7EDFE07460D2F02DBED
:1029100001204C4908704B480078002857D1474A9D
:10292000611C515C3339C8B2FFF7DCFE4A4948707C
:10293000424AA11C515C3339C8B2FFF7D3FE464965
:1029400088703E4AE11C515C3339C8B2FFF7CAFEB9
:102950004149C870394A211D515C3339C8B2FFF76B
:10296000C1FE3D490871354A611D515C3339C8B219
:10297000FFF7B8FE38494871304AA11D515C333920
:10298000C8B201E02AE025E0FFF7ACFE32498871C9
:10299000FEF792FA04F0F4FA2F49C9784FF4616215
:1029A00051432D4A9278C2EB021201EB82012A4A6E
:1029B0005278881804F0B1FA04F0E2FA00202749AE
:1029C00008700120264908702649087002E000209E
:1029D00024490870E01DC4B2F01FC6B21748005D5C
:1029E000382814D19EB100250BE0601C28441349FF
:1029F000085C3338C1B2601C2844104A1154681C6A
:102A0000C5B2042DF1DB601DC4B2701FC6B20B4805
:102A1000005D39282DD13EB300250BE0601C284411
:102A20000649085C3338C1B2601C2844034A11547B
:102A3000681CC5B2042DF1DB601D16E09D1400205A
:102A40009C0000203D00002000FC0008000C01401C
:102A5000440000203C000020000000202200002054
:102A6000320000203100002003E0C4B2701FC6B263
:102A700008E0FE48005D332803DDFC48005D3A288D
:102A800000DB0026002E7FF464AEBDE8F88338B585
:102A90000420009003F043FB0125352003F0DAFD0C
:102AA000002408E0F2494A1402FB041003F07CFB06
:102AB0000090601CC4B2AC4203DA9DF80000042808
:102AC000F0D003F038FB38BD70B50A24E748457AEA
:102AD00034E0E648005D342807D1FFF70CF84FF4E6
:102AE000B000FDF727FB00F050FBE048005D352803
:102AF00007D1FFF700F84FF4B000FDF71BFB00F023
:102B000044FBDA48005D362809D1FEF7F4FFFFF7F1
:102B1000BEFF4FF4B000FDF70DFB00F036FBD348CD
:102B2000005D372809D1FEF7E6FFFFF7B0FF4FF44D
:102B3000B000FDF7FFFA00F028FB0025002DC8D1FA
:102B400070BD70B50025FEF755FFCA480078012812
:102B500050D1C648007A00F01F05072D3CD2DFE8AF
:102B600005F03B040B1C1F323500C34800780128D8
:102B700001D1FFF7A9FF33E0BF48007801280BD14E
:102B80000020BE490870BE490870FFF7B5FDBB487C
:102B9000007808B9FEF7AFFF22E0FFF720FC1FE046
:102BA000B548007801280DD1B5480078012809D131
:102BB0000020B4490870FFF792F8FEF79CFF01204F
:102BC000B14908700CE0FEF790FF09E0AA480078D0
:102BD00008B1FEF745FF03E00020AC49087000BFD4
:102BE00000BF002404E00020A0490855601CC4B2C6
:102BF000FF2CF8DB70BD70B504F086F905464FF484
:102C00006160B5FBF0F0A249C870AA20A149087024
:102C10009F49C878FEF79FFF9E4948709C490879F4
:102C2000FEF799FF9B49887099494879FEF793FF11
:102C30009849C870002405E09748005D97490855F9
:102C4000601CC4B2112CF7DB002405E09448005D41
:102C500094490855601CC4B2152CF7DB002405E02C
:102C60009148005D91490855601CC4B2062CF7DB01
:102C7000002405E08E48005D8E490855601CC4B2F2
:102C8000062CF7DB002405E08B48005D8B490855D6
:102C9000601CC4B2032CF7DB002405E08848005D0B
:102CA00088490855601CC4B2062CF7DB002405E0F7
:102CB0008548005D85490855601CC4B2152CF7DBBA
:102CC000002405E08248005D82490855601CC4B2BA
:102CD000052CF7DB002405E07F48005D7F4908559F
:102CE000601CC4B2052CF7DB002405E07C48005DC5
:102CF0007C490855601CC4B2052CF7DB002405E0B4
:102D00007948005D79490855601CC4B2052CF7DB91
:102D100070BD002060490870614908706249087000
:102D2000634908706449087065490870664908700D
:102D30006749087068490870694908706A490870ED
:102D40007047FEB5042000900120694908700024F6
:102D500007E068482044D0F8000C01A90855601C21
:102D6000C4B2062CF5DB424831300068C0B28DF8A1
:102D70000A00002407E05F482044D0F8300C5E4988
:102D80000855601CC4B2FF2CF5DB03F0C8F901271D
:102D9000352003F05FFC002408E035494A1402FBAB
:102DA000041003F001FA0090601CC4B2BC4203DAC4
:102DB0009DF800000428F0D0002412E0012000EB70
:102DC000440001A90D5C01A810F8140040EA052593
:102DD000274901EB4400294603F0E9FA0090601C02
:102DE000C4B2032CEADB55208DF804009DF80A00DC
:102DF0008DF805009DF80500102802DB00208DF8F5
:102E000005009DF80500401CC0B28DF8050004F0D7
:102E10007BF806464FF46160B6FBF0F01C49C870C1
:102E20004FF46160B6FBF0F100FB11603C21B0FB98
:102E3000F1F0174988708878FEF78DFE8DF806004E
:102E40001349C878FEF787FE8DF807001049087906
:102E5000FEF781FE8DF808000D494879FEF77BFEEC
:102E60008DF809000A49887948E000009D14002087
:102E700000FC00083B0000203C0000203D0000203A
:102E80003100002022000020420000202F000020FE
:102E90000000002046000020D71900209C190020C7
:102EA000E8190020AD190020730000204A0000201E
:102EB00079000020500000207F00002056000020F4
:102EC0008200002059000020FD190020C2190020B6
:102ED000880000205F0000208D000020640000209A
:102EE0009200002069000020970000206E00002062
:102EF0003600002000F0000830130020FEF72BFE03
:102F00008DF80A0000240DE001A8005DA5490855D0
:102F100001A8015D9DF8050004EBC000A14A115411
:102F2000601CC4B2072CEFDB002412E0012000EB90
:102F300044009C490D5C084610F8140040EA052541
:102F4000994901EB4400294603F031FA0090601CD6
:102F5000C4B27F2CEADB03F0EEF8FEBDF0B585B01D
:102F600092A103C9CDE9030192A103C9CDE90101F1
:102F70000026042000908101904803F09EFCFEF79B
:102F80006AF808218E4803F098FC00208D490870EB
:102F900040F6FF70FDF7CEF80821894803F08BFC5E
:102FA0008948FDF7C7F8894800783B2870D105218A
:102FB00003A8FEF7D9F88648FDF7BCF883484078A7
:102FC00000F00F0000F109058048405DA4287DD184
:102FD00002210DF11100FEF7C7F87D48FDF7AAF8B0
:102FE0007A48407800F00F0000F10C057748405D0A
:102FF00061287AD1052101A8FEF7B6F87448FDF7DB
:1030000099F87248407800F00F0000F113056F48FE
:10301000405DB02865D16D49681C085C68285CD1AA
:10302000A81C085C012858D1002413E06948015D00
:1030300005F11F002044654A105C814208D005F16B
:103040001F0020441146085C62490855701C86B276
:10305000601CC4B2062CE9DB002E58D003F05FF8E8
:103060000127352003F0F6FA002409E04E493039F3
:103070004A1402FB041003F097F80090601CC4B2DD
:10308000BC4203DA9DF800000428EFD0002414E0CD
:1030900033E0012000EB44004E490E5C084610F876
:1030A000140040EA06264049303901EB440031461D
:1030B00003F07DF90090601CC4B2032CE9DB03F03F
:1030C0003AF8FDF7A0FF4FF4807101E011E00CE049
:1030D0003A4803F0F0FB00F058F801203E49087030
:1030E00015E001203C49087011E001203A490870C0
:1030F0000DE001203849087009E0012036490870C8
:10310000FDF781FF4FF480712C4803F0D4FB05B02C
:10311000F0BD00B585B025A003C8CDE9030125A108
:1031200003C9CDE90101042000908101234803F087
:10313000C4FBFDF790FF0821214803F0BEFB0020EF
:103140002049087040F6FF70FCF7F4FF08211C4886
:1031500003F0B1FB1C48FCF7EDFF052103A8FEF7C7
:1031600003F81B48FCF7E6FF02210DF11100FDF703
:10317000FBFF1748FCF7DEFF052101A8FDF7F4FF70
:103180001348FCF7D7FF05B000BD1448006800F4F1
:10319000E06013490843001D10490860BFF34F8FDA
:1031A00000BFFEE73013002030FC000800A4000040
:1031B00002DF010000B081002D000000000C014082
:1031C0000008014017000020FFFF1F003A130020F5
:1031D000FFFF0F009C000020450000200CED00E0E8
:1031E0000000FA053EB5FB49087800EBD0714910A4
:1031F000A0EB410109B9002400E00424002513E0FC
:10320000681CF549085C0DF815001DF81500011142
:103210006800401C0DF800101DF8150000F00F00AC
:103220000DF81500681CC5B2052DE9DBEBA20021E5
:10323000204602F0EFFCEAA21021204602F0EAFC50
:103240009DF8000050B9E7A22021204602F0E2FCE0
:10325000E5A23021204602F0DDFC09E0E3A22021B6
:10326000204602F0D7FCE2A23021204602F0D2FC38
:10327000E0A24021204602F0CDFCDFA250212046F2
:1032800002F0C8FCDDA26021204602F004FDDCA2B1
:103290006821204602F0FFFCD9A27021204602F0EE
:1032A000FAFCD7A27821204602F0F5FCA11CC8B296
:1032B000D3A2002102F0EFFCA11CC8B2D0A20821C9
:1032C00002F0E9FCA11CC8B2CDA2102102F0E3FC7F
:1032D000A11CC8B2CAA2182102F0DDFCA11CC8B210
:1032E000C7A2202102F0D7FC092509E01DF805003E
:1032F00018B90A200DF8050000E003E0681EC5B209
:10330000052DF3DA00BF9DF80920A11CC8B22821C1
:1033100002F0F8FC9DF80820A11CC8B2302102F090
:10332000F1FC9DF80720A11CC8B2382102F0EAFC8C
:103330009DF80620A11CC8B2402102F0E3FC9DF8D4
:103340000520A11CC8B2482102F0DCFC9DF8042035
:10335000A11CC8B2502102F0D5FCA11CC8B2A9A280
:10336000582102F098FC9DF80320A11CC8B26021EE
:1033700002F0C8FC9DF80220A11CC8B2682102F02E
:10338000C1FCA11CC8B2A0A2702102F043FC3EBD4A
:1033900070B59049087800EBD0714910A0EB41015D
:1033A00009B9042400E00024FEF714FA97480078D5
:1033B00058BB9748007840BB96480078012810D148
:1033C00085480078AA280CD182480078401C8149A1
:1033D0000870FFF707FF7F480078401E7D4908709E
:1033E000B6E000250EE0E806010E85A2204602F0B8
:1033F00052FCEA06110EA21CD0B281A202F04BFCD4
:10340000681CC5B2102DEEDBA2E074A2002120469C
:1034100002F000FC72A21021204602F0FBFB7EA20B
:103420002021204602F0F6FB7CA23021204602F04B
:10343000F1FB72A24021204602F02DFC70A248212F
:10344000204602F028FC6EA25021204602F023FC08
:103450006BA25821204602F01EFC6C4800780A211D
:1034600090FBF1F090FBF1F201FB1200C6B2324684
:103470006021204602F046FC644800780A2190FB57
:10348000F1F201FB1200C6B232466821204602F07A
:1034900039FC63A27021204602F0BCFBA11CC8B21B
:1034A00060A2002102F0B6FBA11CC8B25EA21021EE
:1034B00002F0B0FBA11CC8B25CA2202102F0AAFB62
:1034C000A11CC8B255A2302102F0A4FBA11CC8B2B5
:1034D0004AA2402102F0DFFBA11CC8B248A2482149
:1034E00002F0D9FBA11CC8B245A2502102F0D3FBC7
:1034F000A11CC8B242A2582102F0CDFBA11CC8B247
:103500003FA2602102F0C7FB414800780A2190FBEE
:10351000F1F090FBF1F201FB1200C6B2A11CC8B29F
:103520003246682102F0EEFB394800780A2190FB10
:10353000F1F201FB1200C6B2A11CC8B232467021E2
:1035400002F0E0FBA11CC8B239A2782102F0A3FB73
:1035500070BD70B50024002507E0E806010E28A222
:10356000204602F098FB681CC5B2102DF5DB611CEB
:10357000C8B230A2002102F04DFB611CC8B22EA2DD
:10358000102102F047FB611CC8B22CA2202102F0DE
:1035900041FB611CC8B22AA2302102F03BFB611C36
:1035A000C8B228A2402102F035FB611CC8B226A295
:1035B000502102F02FFB611CC8B223A2602102F04F
:1035C00029FB611CC8B221A2702102F023FB002557
:1035D00048E000002C00002050000020B5B10000A1
:1035E000C7B00000CAA30000D3E00000CDB80000BF
:1035F000D6A70000BDF00000B6EE00003A000000C3
:10360000200000002E000000D4AA00002D000020A1
:103610002E00002032000020CEC20000B6C80000FC
:10362000A1E60000CFE00000B6D40000CAAA000066
:1036300025000000D6D50000B6CB0000BBF100008D
:10364000C8A10000B5E70000B1ED0000BAC5000058
:10365000EA06110EE21CD0B2AFF25C0202F01BFBD4
:10366000681CC5B2102DF3DBFE48007801284ED14E
:10367000E11CC8B2FCA2002102F0CCFAE11CC8B2E5
:10368000FAA2102102F0C6FAE11CC8B2F8A2202169
:1036900002F0C0FAE11CC8B2F6A2302102F0BAFA78
:1036A000E11CC8B2F4A2402102F0F5FAE11CC8B254
:1036B000AFF2B402482102F0EEFAE11CC8B2AFF258
:1036C000C002502102F0E7FAE11CC8B2AFF2D0020A
:1036D000582102F0E0FAE11CC8B2AFF2DC0260212E
:1036E00002F0D9FAE11CC8B2AFF2EC02682102F094
:1036F000D2FAE11CC8B2AFF2F802702102F0CBFAA4
:10370000E11CC8B2AFF20812782102F0C4FA002519
:1037100009E0EA06110EA21DD0B2AFF21C1202F0AF
:10372000BAFA681CC5B2102DF3DB611DC8B2D3A272
:10373000002102F06FFA611DC8B2D1A2102102F07F
:1037400069FA611DC8B2CFA2202102F063FA611D9F
:10375000C8B2CDA2302102F05DFA611DC8B2AFF24D
:103760001C12402102F056FA611DC8B2BFA25021BE
:1037700002F050FA611DC8B2AFF28012602102F06F
:103780008AFA611DC8B2AFF28812682102F083FA8A
:10379000611DC8B2AFF29812702102F07CFA611D6F
:1037A000C8B2AFF2A412782102F075FA70BD3EB52E
:1037B000B649087800EBD0714910A0EB410109B976
:1037C000002400E00424002514E0C5F10500B04900
:1037D000085C0DF815001DF8150001116800401C6B
:1037E0000DF800101DF8150000F00F000DF8150081
:1037F000681CC5B2062DE8DB9DF800000A2811DA26
:10380000A348007888B9A248407870B9A048807869
:1038100058B99F48C07840B99D48007928B99C485C
:10382000407910B9FFF795FEB9E0AFF2E812002138
:10383000204602F0EFF9AFF2F0121021204602F01C
:10384000E9F9AFF2FC122021204602F0E3F9AFF2D1
:1038500004223021204602F0DDF9AFF2602240213F
:10386000204602F018FAAFF268224821204602F002
:1038700012FAAFF274225021204602F00CFAAFF295
:1038800080225821204602F006FAAFF28C226021F5
:10389000204602F000FAAFF298226821204602F09A
:1038A000FAF9AFF2A4227021204602F0F4F9AFF247
:1038B000B0227821204602F0EEF99DF80020A11CEC
:1038C000C8B2782102F01EFA9DF80120A11CC8B2EE
:1038D000702102F017FA9DF80220A11CC8B26821DD
:1038E00002F010FA9DF80320A11CC8B2602102F07A
:1038F00009FA9DF80420A11CC8B2582102F002FA6E
:103900009DF80520A11CC8B2502102F0FBF99DF8DA
:103910000620A11CC8B2482102F0F4F99DF8072046
:10392000A11CC8B2402102F0EDF99DF80820A11CAD
:10393000C8B2382102F0E6F99DF80920A11CC8B2EE
:10394000302102F0DFF99DF80A20A11CC8B228211D
:1039500002F0D8F99DF80B20A11CC8B2202102F07A
:10396000D1F9A11CC8B2AFF26832182102F093F964
:10397000A11CC8B2AFF27832102102F08CF9A11C60
:10398000C8B2AFF28432082102F085F9A11CC8B296
:10399000AFF29432002102F07EF9FFF7F9FC3D48C6
:1039A0000078182805DB3C48007810B10020394920
:1039B000087038480078182805DB3748007810B9B7
:1039C0001720344908703EBD3EB53049087800EBF9
:1039D000D0714910A0EB410109B9002400E0042492
:1039E000002513E0681C2D49085C0DF815001DF832
:1039F000150001116800401C0DF800101DF815009D
:103A000000F00F000DF81500681CC5B2042DE9DBAD
:103A100023A20021204602F0FDF822A21021204618
:103A200002F0F8F820A22021204602F0F3F81FA2AD
:103A30003021204602F0EEF81DA24021204602F07F
:103A4000E9F81CA25021204602F0E4F8AFF25442FB
:103A50006021204602F01FF9AFF25C426821204647
:103A60002AE0000045000020B6C10000BFA8000009
:103A7000CAA70000B0DC000021000000C7EB000076
:103A8000B2E50000C8EB0000B9BA00002C0000202D
:103A90009C000020250000203E0000204600002061
:103AA000CAFD0000BEDD0000B8FC0000D0C200006E
:103AB000CAB10000BCE4000002F0EDF8AFF2C04271
:103AC0007021204602F0E7F8AFF2CC427821204680
:103AD00002F0E1F8A11CC8B2AFF2DC42002102F012
:103AE000DAF8AFF2E4426821204602F0D4F8AFF2EF
:103AF000F0427021204602F0CEF8AFF2FC4278216D
:103B0000204602F0C8F8A11CC8B2AFF20C52002146
:103B100002F0C1F8A11CC8B2AFF21C52082102F099
:103B2000BAF8A11CC8B2AFF22852102102F0B3F8C3
:103B3000A11CC8B2AFF23852182102F0ACF89DF8BF
:103B40000520A11CC8B2202102F0DCF89DF8042059
:103B5000A11CC8B2282102F0D5F8A11CC8B2FEA24F
:103B6000302102F057F89DF80320A11CC8B2402173
:103B700002F0C8F89DF80220A11CC8B2482102F04A
:103B8000C1F8A11CC8B2F5A2502102F043F89DF87B
:103B90000120A11CC8B2602102F0B4F89DF80020F9
:103BA000A11CC8B2682102F0ADF8A11CC8B2AFF2E6
:103BB0000012702102F02EF83EBD7CB5E84908786D
:103BC00000EBD0714910A0EB410109B9002400E0DD
:103BD0000424002513E0681CE249085C0DF8150078
:103BE0001DF8150001116800401C0DF800101DF8AB
:103BF000150000F00F000DF81500681CC5B2042D6B
:103C0000E9DBAFF228620021204602F003F8AFF2B0
:103C100030621021204601F0FDFFD3A22021204672
:103C200001F0F8FFD1A23021204601F0F3FFAFF2FE
:103C3000EC524021204601F0EDFFCDA2502120465C
:103C400001F0E8FFAFF24C626021204602F023F859
:103C5000AFF254626821204602F01DF8AFF26062B4
:103C60007021204602F017F8AFF26C6278212046EE
:103C700002F011F8A11CC8B2AFF27C62002102F080
:103C80000AF8072509E01DF8050018B90A200DF803
:103C9000050000E003E0681EC5B2052DF3DA00BFA1
:103CA0009DF80720A11CC8B2082102F02BF89DF84E
:103CB0000620A11CC8B2102102F024F89DF80520AE
:103CC000A11CC8B2182102F01DF89DF80420A11C07
:103CD000C8B2202102F016F8A11CC8B2AFF2DC6213
:103CE000282101F0D8FF9DF80320A11CC8B2302183
:103CF00002F008F89DF80220A11CC8B2382102F099
:103D000001F89DF80120A11CC8B2402101F0FAFF82
:103D10009DF80020A11CC8B2482101F0F3FFA11CAE
:103D2000C8B2AFF21C72502101F074FFA11CC8B2DE
:103D300090A2602101F0AFFFA11CC8B28EA2682141
:103D400001F0A9FFA11CC8B28CA2702101F0A3FF51
:103D5000A11CC8B28AA2782101F09DFF7CBD7CB570
:103D60007F49087800EBD0714910A0EB410109B9F7
:103D7000002400E00424002513E0681C8149085C4D
:103D80000DF815001DF8150001116800401C0DF814
:103D900000101DF8150000F00F000DF81500681C4C
:103DA000C5B2042DE9DB78A20021204601F032FFE4
:103DB00076A21021204601F02DFFAFF234322021EF
:103DC000204601F027FFAFF284723021204601F037
:103DD00021FFAFF2E0724021204601F01BFFAFF25D
:103DE000E8725021204601F015FFAFF2F072602119
:103DF000204601F050FFAFF2F8726821204601F032
:103E00004AFFAFF604027021204601F044FFAFF6EE
:103E100010027821204601F03EFFA11CC8B2AFF687
:103E20002002002101F037FFA11CC8B2AFF630021A
:103E3000082101F030FFA11CC8B2AFF63C021021EE
:103E400001F029FFA11CC8B2AFF64C02182101F005
:103E500022FFA11CC8B2AFF65802202101F01BFFBF
:103E6000072509E01DF8050018B90A200DF805001E
:103E700000E003E0681EC5B2032DF3DA00BF9DF831
:103E80000720A11CC8B2282101F03CFF9DF80620A4
:103E9000A11CC8B2302101F035FF9DF80520A11CFE
:103EA000C8B2382101F02EFF9DF80420A11CC8B231
:103EB000402101F027FF9DF80320A11CC8B2482132
:103EC00001F020FF9DF80220A11CC8B2502101F092
:103ED00019FFA11CC8B2AFF6D402582101F0DBFED5
:103EE0009DF80120A11CC8B2602101F00BFF9DF8D4
:103EF0000020A11CC8B2682101F004FFA11CC8B2B7
:103F0000AFF6FC02702101F085FE7CBD3EB5144980
:103F1000087800EBD0714910A0EB410109B90024E9
:103F200000E00424002513E0681C1949085C0DF822
:103F300015001DF8150001116800401C0DF8001057
:103F40001DF8150000F00F000DF81500681CC5B233
:103F5000052DE9DB0CA21DE0D4C20000C8D500008D
:103F60002C0000206E000020BDD70000CCDD00003A
:103F7000BCDB00002F0000006B00000057000000B9
:103F8000680000008D000020D7EE0000BDFC00009E
:103F9000590000200021204601F03CFEAFF214023F
:103FA0001021204601F036FEAFF224522021204697
:103FB00001F030FEAFF674123021204601F02AFEE7
:103FC000AFF214524021204601F024FEAFF21C5201
:103FD0005021204601F01EFEAFF6E012602120467F
:103FE00001F059FEAFF6E8126821204601F053FEB9
:103FF000AFF6F4127021204601F04DFEAFF600221C
:104000007821204601F047FEA11CC8B2AFF610226D
:10401000002101F040FEA11CC8B2AFF61C2208210D
:1040200001F039FEA11CC8B2AFF62C22102101F01C
:1040300032FEA11CC8B2AFF63822182101F02BFEC7
:104040009DF80720A11CC8B2202101F05BFE9DF85D
:104050000620A11CC8B2282101F054FEA11CC8B240
:10406000AFF20C12302101F0D5FD9DF80520A11C06
:10407000C8B2402101F046FE9DF80420A11CC8B240
:10408000482101F03FFEA11CC8B2AFF2301250210E
:1040900001F0C0FD9DF80320A11CC8B2602101F011
:1040A00031FE9DF80220A11CC8B2682101F02AFE51
:1040B000A11CC8B2AFF20862702101F0ABFD3EBD99
:1040C0007CB5FE49087800EBD0714910A0EB4101A6
:1040D00009B9002400E00424002513E0681CF84915
:1040E000085C0DF815001DF8150001116800401C52
:1040F0000DF800101DF8150000F00F000DF8150068
:10410000681CC5B2042DE9DBEEA20021204601F0B7
:1041100081FDEDA21021204601F07CFDAFF29862F6
:104120002021204601F076FDAFF6E822302120461E
:1041300001F070FDAFF644324021204601F06AFDE7
:10414000AFF64C325021204601F064FDAFF65432F8
:104150006021204601F09FFDAFF65C3268212046C9
:1041600001F099FDAFF668327021204601F093FD11
:10417000AFF674327821204601F08DFDA11CC8B243
:10418000AFF68432002101F086FDA11CC8B2AFF663
:104190009032082101F07FFDA11CC8B2AFF6A03219
:1041A000102101F078FDA11CC8B2AFF6AC32182185
:1041B00001F071FDA11CC8B2AFF6BC32202101F0A4
:1041C0006AFD072509E01DF8050018B90A200DF859
:1041D000050000E003E0681EC5B2032DF3DA00BF5E
:1041E0009DF80720A11CC8B2282101F08BFD9DF885
:1041F0000620A11CC8B2302101F084FD9DF80520E5
:10420000A11CC8B2382101F07DFD9DF80420A11C3D
:10421000C8B2402101F076FD9DF80320A11CC8B270
:10422000482101F06FFD9DF80220A11CC8B2502169
:1042300001F068FDA11CC8B2AFF63842582101F068
:104240002AFD9DF80120A11CC8B2602101F05AFD91
:104250009DF80020A11CC8B2682101F053FDA11CEB
:10426000C8B2AFF65C42702101F0D4FC7CBD7CB5D5
:104270009249087800EBD0714910A0EB410109B9CF
:10428000002400E00424002513E0681C8F49085C2A
:104290000DF815001DF8150001116800401C0DF8FF
:1042A00000101DF8150000F00F000DF81500681C37
:1042B000C5B2042DE9DB9DF803000F287DD081A253
:1042C0000021204601F0A6FC7FA21021204601F02B
:1042D000A1FCAFF64C022021204601F09BFCAFF67A
:1042E0009C423021204601F095FC79A240212046D5
:1042F00001F090FCAFF6FC425021204601F0CBFCCF
:10430000AFF604525821204601F0C5FCAFF610521A
:104310006021204601F0BFFCAFF61C526821204608
:1043200001F0B9FCAFF628527021204601F0B3FC31
:10433000AFF634527821204601F0ADFCA11CC8B282
:10434000AFF64452002101F0A6FCA11CC8B2AFF6A2
:104350005052082101F09FFCA11CC8B2AFF6605278
:10436000102101F098FCA11CC8B2AFF66C521821C4
:1043700001F091FC072509E01DF8050018B90A2095
:104380000DF8050000E003E0681EC5B2032DF3DA66
:1043900000BF9DF80720A11CC8B2202101F0B2FC8B
:1043A0009DF80620A11CC8B2282101F0ABFC9DF8A5
:1043B0000520A11CC8B2302100E040E001F0A2FCC1
:1043C0009DF80420A11CC8B2382101F09BFC9DF887
:1043D0000320A11CC8B2402101F094FC9DF80220EA
:1043E000A11CC8B2482101F08DFCA11CC8B2AFF6D7
:1043F000EC52502101F04FFC9DF80120A11CC8B2E5
:10440000582101F07FFC9DF80020A11CC8B260215A
:1044100001F078FCA11CC8B2AFF2A442682101F0FF
:104420003AFCA11CC8B2AFF2AC42702101F033FCDF
:10443000A11CC8B2AFF2B842782101F02CFC7CBDBF
:1044400038B51E49087800EBD0714910A0EB410146
:1044500009B9002400E00424002513E0681C1D496C
:10446000085C0DF815001DF8150001116800401CCE
:104470000DF800101DF8150000F00F000DF81500E4
:10448000681CC5B2022DE9DB9DF803000F287CD023
:1044900011A20021204601F0BDFBAFF6142210212D
:1044A000204601F0B7FBAFF664622021204601F000
:1044B000B1FB0AA23021204612E000002C000020AF
:1044C00069000020C0DB0000BCC600005F000020C7
:1044D000C1BF000056000020D7DC0000B4CE0000B1
:1044E00001F098FBAFF648224021204601F092FBF4
:1044F000AFF6F8625021204601F0CDFBAFF6007216
:104500005821204601F0C7FBAFF60C72602120460F
:1045100001F0C1FBAFF618726821204601F0BBFB29
:10452000AFF624727021204601F0B5FBAFF6307271
:104530007821204601F0AFFBA11CC8B2AFF6407253
:10454000002101F0A8FBA11CC8B2AFF64C720821F3
:1045500001F0A1FBA11CC8B2AFF65C72102101F002
:104560009AFBA11CC8B2AFF66872182101F093FB48
:10457000A11CC8B2AFF67872202101F08CFBA11CFF
:10458000C8B2AFF68472282100E04FE001F083FB4F
:10459000A11CC8B2AFF69872302101F07CFBA11CBF
:1045A000C8B2AFF6A472382101F075FBA11CC8B2E5
:1045B000AFF6B472402101F06EFBA11CC8B2AFF699
:1045C000C072482101F067FB032509E01DF80500D2
:1045D00018B90A200DF8050000E003E0681EC5B216
:1045E000012DF3DA00BF9DF80320A11CC8B25021B1
:1045F00001F088FB9DF80220A11CC8B2582101F0EF
:1046000081FB9DF80120A11CC8B2602101F07AFB5A
:104610009DF80020A11CC8B2682101F073FBA11C09
:10462000C8B2AFF24812702101F0F4FA38BD7CB57F
:10463000FE49087800EBD0714910A0EB410109B99F
:10464000002500E00425FAA20021284601F023FB02
:10465000F84800780D281DD1F7A20821284601F05E
:10466000D9FA002413E0601CF449085C0DF814002A
:104670001DF8140001116000401C0DF800101DF819
:10468000140000F00F000DF81400601CC4B2042CDC
:10469000E9DB66E0E74800780E281DD1E8A2082192
:1046A000284601F0B7FA002413E0601DE349085CD6
:1046B0000DF814001DF8140001116000401C0DF8E5
:1046C00000101DF8140000F00F000DF81400601C1D
:1046D000C4B2042CE9DB44E0D64800780F281ED190
:1046E000D8A20821284601F095FA002414E004F12C
:1046F0000900D249085C0DF814001DF814000111DE
:104700006000401C0DF800101DF8140000F00F00B0
:104710000DF81400601CC4B2042CE8DB21E0C5488D
:10472000007810281DD1C8A20821284601F072FA8D
:10473000002414E004F10D00C049085C0DF81400D9
:104740001DF8140001116000401C0DF800101DF848
:10475000140000F00F000DF81400601CC4B2042C0B
:10476000E8DBB3A21821284601F095FAB7A2202170
:10477000284601F04FFAB6A23021284601F04AFA45
:10478000B4A24021284601F045FAAFF61C025021A0
:10479000284601F03FFAB0A26021284601F07BFADA
:1047A000A3A26821284601F076FAA1A2702128462A
:1047B00001F071FA9EA27821284601F06CFAA91C3A
:1047C000C8B29BA2002101F066FA072409E01DF897
:1047D000040018B90A200DF8040000E003E0601E90
:1047E000C4B2052CF3DA00BF9DF80720A91CC8B29B
:1047F000082101F087FA9DF80620A91CC8B21021F3
:1048000001F080FA9DF80520A91CC8B2182101F01A
:1048100079FA9DF80420A91CC8B2202101F072FA8F
:10482000A91CC8B28DA2282101F035FA9DF80320F9
:10483000A91CC8B2302101F065FA9DF80220A91C1C
:10484000C8B2382101F05EFA9DF80120A91CC8B257
:10485000402101F057FA9DF80020A91CC8B2482158
:1048600001F050FAA91CC8B27DA2502101F0D2F982
:10487000A91CC8B2AFF60412602101F00CFAA91C01
:10488000C8B2AFF60C12682101F005FAA91CC8B233
:10489000AFF61812702101F0FEF9A91CC8B2AFF6EC
:1048A0002012782101F0F7F97CBD7CB55F490878CA
:1048B00000EBD0714910A0EB410109B9002500E0DF
:1048C000042568A20021284601F0A4F966A210215F
:1048D000284601F09FF95748007808281ED1AFF20A
:1048E00008422021284601F095F9002413E0601CBD
:1048F0005E49085C0DF814001DF8140001116000F9
:10490000401C0DF800101DF8140000F00F000DF809
:104910001400601CC4B2042CE9DBACE0454800780C
:1049200009281DD144A22021284601F073F9002452
:1049300013E0601D4D49085C0DF814001DF81400CB
:1049400001116000401C0DF800101DF8140000F06B
:104950000F000DF81400601CC4B2042CE9DB8AE0DF
:10496000344800780A281ED135A22021284601F0BB
:1049700051F9002414E004F109003C49085C0DF8E9
:1049800014001DF8140001116000401C0DF8001007
:104990001DF8140000F00F000DF81400601CC4B2E4
:1049A000042CE8DB67E0234800780B281ED125A201
:1049B0002021284601F02EF9002414E004F10D0016
:1049C0002A49085C0DF814001DF81400011160005C
:1049D000401C0DF800101DF8140000F00F000DF839
:1049E0001400601CC4B2042CE8DB44E011480078D9
:1049F0000C2840D114A22021284601F00BF90024F4
:104A000037E004F111001949085C0DF814001DF895
:104A1000140001116000401C0DF800101DF8140076
:104A200000F00F000DF81400601C21E02C000020A5
:104A30002000000025000020BCE200009C1900209E
:104A4000B7E50000C6BD0000B9C80000B7D100003E
:104A5000C2CA0000B5E700003A0000002E000000C6
:104A6000D4AA0000B5B10000C7B00000AD19002005
:104A7000C4B2042CC5DBAFF224023021284601F079
:104A8000C9F8AFF2B4524021284601F0C3F8FEA2A3
:104A90005021284601F0BEF8AFF6FC72602128468E
:104AA00001F0B8F8AFF250027021284601F0F3F897
:104AB000AFF284027821284601F0EDF8A91CC8B2B3
:104AC000AFF29402002101F0E6F8A91CC8B2AFF2DF
:104AD000A002082101F0DFF8A91CC8B2AFF2B002B1
:104AE000102101F0D8F8A91CC8B2AFF2BC021821FD
:104AF00001F0D1F8072409E01DF8040018B90A20D4
:104B00000DF8040000E003E0601EC4B2032CF3DAE9
:104B100000BF9DF80720A91CC8B2202101F0F2F8BF
:104B20009DF80620A91CC8B2282101F0EBF89DF8D9
:104B30000520A91CC8B2302101F0E4F89DF804203A
:104B4000A91CC8B2382101F0DDF89DF80320A91C8A
:104B5000C8B2402101F0D6F89DF80220A91CC8B2C5
:104B6000482101F0CFF8A91CC8B2AFF210125021B1
:104B700001F091F89DF80120A91CC8B2582101F05C
:104B8000C1F89DF80020A91CC8B2602101F0BAF854
:104B9000A91CC8B2AFF62042682101F07CF8A91C1C
:104BA000C8B2AFF62842702101F075F8A91CC8B24E
:104BB000AFF63442782101F06EF87CBD7CB5B34984
:104BC000087800EBD0714910A0EB410109B900252C
:104BD00000E00425AEA20021284601F01BF8ADA29A
:104BE0001021284601F016F8ABA22021284601F03A
:104BF00011F8AA48007803281ED1AFF224723021A0
:104C0000284601F007F8002413E0601CA449085C62
:104C10000DF814001DF8140001116000401C0DF87F
:104C200000101DF8140000F00F000DF81400601CB7
:104C3000C4B2042CE9DB8DE09848007804281ED12A
:104C4000AFF20C223021284600F0E4FF002413E0EC
:104C5000601D9349085C0DF814001DF81400011143
:104C60006000401C0DF800101DF8140000F00F004B
:104C70000DF81400601CC4B2042CE9DB6AE087481C
:104C8000007805281FD1AFF248223021284600F0D5
:104C9000C1FF002414E004F109008149085C0DF80B
:104CA00014001DF8140001116000401C0DF80010E4
:104CB0001DF8140000F00F000DF81400601CC4B2C1
:104CC000042CE8DB46E07548007806281FD1AFF2D7
:104CD0008C223021284600F09DFF002414E004F1CE
:104CE0000D006F49085C0DF814001DF81400011147
:104CF0006000401C0DF800101DF8140000F00F00BB
:104D00000DF81400601CC4B2042CE8DB22E06348F8
:104D1000007807281ED1AFF2D0223021284600F0BB
:104D200079FF002414E004F111005D49085C0DF8DE
:104D300014001DF8140001116000401C0DF8001053
:104D40001DF8140000F00F000DF81400601CC4B230
:104D5000042CE8DB53A24021284600F05BFFAFF2B1
:104D60000C325021284600F055FFAFF69C0260211E
:104D7000284600F04FFFAFF220327021284600F0A5
:104D80008AFFAFF254327821284600F084FFA91C34
:104D9000C8B2AFF26432002100F07DFFA91CC8B296
:104DA000AFF27432082100F076FFA91CC8B2AFF24E
:104DB0008032102100F06FFFA91CC8B2AFF2903210
:104DC000182100F068FF072409E01DF8040018B955
:104DD0000A200DF8040000E003E0601EC4B2032CBA
:104DE000F3DA00BF9DF80720A91CC8B2202100F00B
:104DF00089FF9DF80620A91CC8B2282100F082FF77
:104E00009DF80520A91CC8B2302100F07BFF9DF859
:104E10000420A91CC8B2382100F074FF9DF80320BB
:104E2000A91CC8B2402100F06DFF9DF80220A91C0A
:104E3000C8B2482100F066FFA91CC8B2AFF2E43244
:104E4000502100F028FF9DF80120A91CC8B258216C
:104E500000F058FF9DF80020A91CC8B2602100F0A6
:104E600051FFA91CC8B2AFF6F062682100F013FF31
:104E7000A91CC8B2AFF6FC62702100F00CFFA91C9F
:104E8000C8B2AFF604720FE0CABE00002C000020CA
:104E9000B1BE0000D6DC0000C6DA0000250000200C
:104EA000C2190020D3C30000782100F0F4FE7CBDBD
:104EB0003EB5FE49087800EBD0714910A0EB4101E6
:104EC00009B9002400E00424002513E0681CF84917
:104ED000085C0DF815001DF8150001116800401C54
:104EE0000DF800101DF8150000F00F000DF815006A
:104EF000681CC5B2052DE9DBAFF2984200212046BF
:104F000000F088FEAFF2A0421021204600F082FEA1
:104F10009DF8000050B9E7A22021204600F07AFE5B
:104F2000E5A23021204600F075FE09E0E3A2202131
:104F3000204600F06FFEE2A23021204600F06AFE1B
:104F4000AFF2F0424021204600F064FEAFF680222E
:104F50005021204600F05EFEAFF204526021204650
:104F600000F099FEAFF238526821204600F093FE1F
:104F7000AFF244527021204600F08DFEAFF2505245
:104F80007821204600F087FEA11CC8B2AFF2605223
:104F9000002100F080FEA11CC8B2AFF26C520821C3
:104FA00000F079FEA11CC8B2AFF27C52102100F0D3
:104FB00072FEA11CC8B2AFF28852182100F06BFE3D
:104FC000092509E01DF8050018B90A200DF80500AB
:104FD00000E003E0681EC5B2052DF3DA00BF9DF8BE
:104FE0000920A11CC8B2202100F08CFE9DF80820E9
:104FF000A11CC8B2282100F085FE9DF80720A11C45
:10500000C8B2302100F07EFE9DF80620A11CC8B277
:10501000382100F077FE9DF80520A11CC8B2402180
:1050200000F070FE9DF80420A11CC8B2482100F0D9
:1050300069FEA11CC8B2AFF2DC52502100F02BFE79
:105040009DF80320A11CC8B2582100F05BFE9DF81A
:105050000220A11CC8B2602100F054FEA11CC8B2FD
:1050600098A2682100F017FEA11CC8B296A2702178
:1050700000F011FEA11CC8B294A2782100F00BFE32
:105080003EBD10B59248007892490978884216D002
:1050900091480078012812D08D48007828B98F48AF
:1050A0000078401E8D49087004E08C480078401C50
:1050B0008A490870864800788649087006E0002012
:1050C00085490870824800788249087080480078D5
:1050D00000287DD081480078012804D17F480078DD
:1050E000401C7E4908707D480078012806D17C4824
:1050F0000078AA2802D00220784908707748007802
:10510000022806D16A480078AA2802D003207349F1
:1051100008707248007803280ADB70480078072876
:1051200006DC70480078AA2802D008206B49087075
:105130006A48007808280ADB684800780C2806DCF2
:1051400069480078AA2802D00D2064490870634895
:1051500000780D280ADB61480078102806DC6348D7
:105160000078AA2802D011205C4908705B480078BA
:10517000112806D15E480078AA2802D0122057498B
:10518000087056480078122806D15A480078AA2894
:1051900002D013205149087050480078132806D1D6
:1051A00055480078AA2802D014204C4908704B4872
:1051B0000078142806D151480078AA2802D015207A
:1051C0004649087045480078152808D14C4800E049
:1051D00023E00078AA2802D01620404908703F48F2
:1051E0000078162806D147480078AA2802D0172050
:1051F0003A49087039480078172806D142480078A3
:10520000AA2802D0002035490870344800781828B0
:1052100002DB002031490870C7E0304800781728C9
:1052200002DB17202D4908702C480078172806D17A
:1052300035480078AA2802D0162028490870274847
:105240000078162806D12F480078AA2802D0152009
:105250002249087021480078152806D1284800788E
:10526000AA2802D014201D4908701C480078142870
:1052700006D122480078AA2802D0132017490870C6
:1052800016480078132806D11B480078AA2802D0B7
:1052900012201249087011480078122837D1154899
:1052A0000078AA2833D011200C492FE02C000020D0
:1052B0004A000020CAA30000D3E00000CDB80000DF
:1052C000D6A700006B000000570000006800000037
:1052D0003E0000203F00002041000020250000206B
:1052E00050000020C2190020AD1900209C19002098
:1052F000560000205F0000206900002059000020B7
:10530000640000206E000020460000200870F7486E
:105310000078112806D1F6480078AA2802D010207B
:10532000F2490870F14800780D280ADBEF48007850
:10533000102806DCEF480078AA2802D00C20EB49A0
:105340000870EA48007808280ADBE84800780C284A
:1053500006DCE9480078AA2802D00720E349087053
:10536000E248007803280ADBE0480078072806DCDA
:10537000E2480078AA2802D00220DC490870DB4805
:105380000078022806D1DE480078AA2802D0012041
:10539000D6490870D5480078012806D1D948007848
:1053A000AA2802D00020D1490870D04800781828D7
:1053B0003CD2DFE800F03B0C0F1213141516191A3B
:1053C0001B1C1D2021222326292C2F323538FDF7C6
:1053D00009FF2EE0FFF76CFD2BE000BF00BF00BF10
:1053E00000BFFFF7EBFB24E000BF00BF00BF00BF22
:1053F000FFF75BFA1DE000BF00BF00BFFFF717F922
:1054000017E0FFF71DF814E0FEF731FF11E0FEF79B
:1054100057FE0EE0FEF77AFD0BE0FEF7A0FC08E079
:10542000FEF7CBFB05E0FEF7CFFA02E0FEF7BFF98F
:1054300000BF00BF10BD70B50024002508E0E806DD
:10544000010EAFF61422204600F025FC681CC5B200
:10545000102DF4DBA11CC8B2AFF62C22002100F005
:105460001AFCA11CC8B2A8A2082100F0D3FBA11C01
:10547000C8B2AFF64422182100F00DFCA11CC8B23E
:10548000AFF65422202100F006FCA11CC8B29FA256
:10549000282100F0BFFBA11CC8B2AFF66C22382156
:1054A00000F0F9FBA11CC8B2AFF67C22402100F04D
:1054B000F2FBA11CC8B296A2482100F0ABFBA11CD4
:1054C000C8B2AFF69422582100F0E5FBA11CC8B287
:1054D000AFF6A422602100F0DEFBA11CC8B2AFF63B
:1054E000B022682100F0D7FBA11CC8B2AFF6C022E1
:1054F000702100F0D0FBA11CC8B2AFF6CC227821FD
:1055000000F0C9FB002509E0EA06110E221DD0B209
:10551000AFF6E42200F0BFFB681CC5B2102DF3DB30
:10552000611DC8B27BA2002100F074FB611DC8B2EE
:1055300079A2102100F06EFB611DC8B277A2202174
:1055400000F068FB611DC8B275A2302100F062FB5B
:10555000611DC8B273A2402100F05CFB611DC8B29E
:1055600070A2502100F056FB611DC8B2AFF6183290
:10557000602100F090FB611DC8B2AFF64C3268218B
:1055800000F089FB611DC8B2AFF65C32702100F0FB
:1055900082FB611DC8B2AFF66832782100F07BFB58
:1055A000002509E0EA06110EE21DD0B2AFF6803206
:1055B00000F071FB681CC5B2102DF3DB70BD10B597
:1055C000002059490870AFF698320021084600F0D3
:1055D00062FBAFF6A4320821002000F05CFBAFF2C2
:1055E0003C721021002000F015FBAFF6983220210C
:1055F000002000F00FFB4DA23021002000F00AFB3C
:105600004BA24021002000F005FB4AA250210020BF
:1056100000F000FB48A26021002000F0FBFAAFF68A
:10562000F0327021002000F036FBAFF6FC3278211A
:10563000002000F030FBAFF608420021022000F00D
:105640002AFBAFF614420821022000F024FBAFF63B
:1056500020421021022000F01EFBAFF62C42182140
:10566000022000F018FB35A22021022000F013FBDD
:1056700033A22821022000F00EFB32A230210220AA
:1056800000F009FBAFF2C4323821022000F003FB26
:10569000AFF664424021022000F0FDFA2AA2482120
:1056A000022000F0F8FA29A25021022000F0F3FABB
:1056B00027A25821022000F0EEFA26A26021022043
:1056C00000F0E9FAAFF670426821022000F0E3FA38
:1056D00021A27021022000F0DEFA20A2782102200F
:1056E00000F0D9FAFDF754FE10BD0000250000209F
:1056F000560000209C190020AD190020C21900207E
:105700004A00002050000020C7EB0000B5C8000090
:10571000B4FD0000D5FD0000D4DA0000B6C10000E1
:10572000BFA80000A1AD00002C000020B2E90000DD
:10573000D1AF0000D6D50000B6CB00004C00000071
:10574000690000006E0000005400000065000000C9
:1057500073000000740000004F0000004B000000C8
:1057600070B501F0D1FB04464FF46160B4FBF0F07A
:10577000C349C8704FF46160B4FBF0F100FB114005
:105780003C21B0FBF1F0BE4988704FF46160B4FB7E
:10579000F0F100FB11403C21B0FBF1F201FB1200E3
:1057A000B74948700020B7490870AFF64852002149
:1057B000084600F02FFAAFF650521021002000F0FA
:1057C00029FAAFF694522021002000F064FAAFF6D7
:1057D000A0522821002000F05EFAAFF6AC52302132
:1057E000002000F058FAAFF6B8523821002000F03F
:1057F00052FAAFF6C4524021002000F04CFAAFF646
:10580000D0524821002000F046FAAFF6DC52502179
:10581000002000F040FAAFF6E8525821002000F0D6
:105820003AFAAFF6F4526021002000F034FAAFF6F5
:1058300000626821002000F02EFAAFF60C627021A1
:10584000002000F028FAAFF618627821002000F05E
:1058500022FAAFF624620021022000F01CFAAFF613
:1058600030620821022000F016FAAFF63C621021E7
:10587000022000F010FAAFF648621821022000F072
:105880000AFAAFF654622021022000F004FAAFF6C3
:1058900060622821022000F0FEF9AFF66C62302130
:1058A000022000F0F8F9AFF678623821022000F00B
:1058B000F2F97348C0780A2190FBF1F0C5B22A468C
:1058C0004021022000F01EFA6D48C0780A2190FBAA
:1058D000F1F201FB1200C5B22A464821022000F075
:1058E00011FAAFF68C625021022000F0D4F964481E
:1058F00080780A2190FBF1F0C5B22A465821022097
:1059000000F000FA5E4880780A2190FBF1F201FB7A
:105910001200C5B22A466021022000F0F3F9AFF66A
:10592000C8626821022000F0B6F9554840780A2183
:1059300090FBF1F0C5B22A467021022000F0E2F996
:105940004F4840780A2190FBF1F201FB1200C5B2EA
:105950002A467821022000F0D5F9FDF719FD70BD27
:1059600070B5002500241CE02007010E46A2284641
:1059700000F050F92207110EAA1CD0B242A200F08A
:1059800049F92207110E2A1DD0B23FA200F042F9B8
:105990002207110EAA1DD0B23BA200F03BF9601CF9
:1059A000C4B2082CE0DB70BD70B5002500241CE0FB
:1059B0002007010E35A2284600F02CF92207110E0F
:1059C000AA1CD0B231A200F025F92207110E2A1D1F
:1059D000D0B22EA200F01EF92207110EAA1DD0B2DD
:1059E0002AA200F017F9601CC4B2082CE0DB70BDDD
:1059F00070B5002500241CE02007010E24A22846D3
:105A000000F008F92207110EAA1CD0B220A200F063
:105A100001F92207110E2A1DD0B21DA200F0FAF8DA
:105A20002207110EAA1DD0B219A200F0F3F8601CD3
:105A3000C4B2082CE0DB70BD70B5002500241CE06A
:105A40002007010E13A2284600F0E4F82207110EE9
:105A5000AA1CD0B20FA200F0DDF82207110E2A1DF9
:105A6000D0B20CA200F0D6F82207110EAA1DD0B2B7
:105A700008A200F0CFF8601CC4B2082CE0DB70BDB7
:105A8000000000202C000020B3C90000B6BC0000BC
:105A9000B2A90000B8DF0000014605E0002001E0E7
:105AA000421C90B20F28FBDB0A1EA1F1010399B240
:105AB000F4D1704770B504464FF40041D44800F06B
:105AC000FAFE0120FFF7E8FF00251EE004F0800049
:105AD00028B94FF48071CF4800F0EFFE04E04FF496
