:020000040800F2
:10000000181E002031690008396900083B690008A2
:100010003D6900083F6900084169000800000000D0
:10002000000000000000000000000000436900081C
:100030004569000800000000476900084969000898
:10004000BF020008C1020008C3020008C502000880
:100050009F030008A1030008A3030008A5030008EC
:10006000B9030008BB030008BD030008BF03000874
:10007000C1030008C3030008C5030008C703000844
:10008000C9030008CB0300084B690008000000000A
:10009000000000000000000000000000D70300087E
:1000A0004B6900084B6900084B690008DF03000832
:1000B000E10300080F0800081108000813080008F1
:1000C0001508000817080008190800081B08000890
:1000D0001D0800081F0800087F080008050900081F
:1000E000D7090008D90900084B6900080000000082
:1000F0000000000000000000000000000000000000
:1001000000000000000000000000000000000000EF
:1001100000000000000000004B690008F50900081D
:10012000DFF80CD006F0F2FC004800474B01000855
:10013000181E002001B502E00098401E00900098B3
:100140000028F9D104F09BFF08BD00F0A1FC00F0ED
:1001500052FD00F05BFF00F05DFE00F0BAFF00F022
:10016000E4FC0421464804F0E2FE4FF48051454887
:1001700004F0DBFE4FF40071414804F0D6FE4FF46A
:1001800080713F4804F0D1FE00F0C1FE40213D489F
:1001900004F0CDFE20213B4804F0C9FE042138487C
:1001A00004F0C3FE4FF40061364804F0C0FE0120A5
:1001B0003549087035480068C5B2552D03D1012076
:1001C0003349087002E0002031490870002407E03C
:1001D00030482044D0F8000C2F490855601CC4B2A8
:1001E000062CF5DB2C4800780921B1EB201F09DB38
:1001F0002948007800F00F00092803DC0120274976
:10020000087002E000202549087001202449087088
:100210002449087003F0E0FF04F01AF82FE02248A8
:10022000FFF788FF0120184908701D49087003F086
:10023000D1FE04F0CDF81C48FFF77CFF01201249E5
:1002400008701749087003F0E9FE04F0C1F8164879
:10025000FFF770FF01200C4908701149087003F086
:1002600001FF04F0B5F81048FFF764FF01200649CC
:1002700008700B49087003F019FF04F0A9F8CEE7E5
:10028000000C0140000801403400002030FC000850
:100290003600002000F000089C00002044000020F0
:1002A0003900002041000020FFFF1F007047704709
:1002B0007047704770477047704770477047704786
:1002C0007047704710B5012005F0C2F9002865D0CD
:1002D000012005F0CDF905F08DF905F04FF9FB4946
:1002E00088425BD1FA480078002852D0F94840791A
:1002F000012817D0F7484079032813D0F5484079F2
:1003000005280FD0F348407907280BD0F1484079F1
:10031000082807D0EF4840790A2803D0ED484079F3
:100320000C280BD1EB480079202807DB0120E94994
:10033000087108464079401C48712AE0E548407938
:1003400004280BD0E3484079062807D0E1484079DB
:10035000092803D0DF4840790B280BD1DD4800790C
:100360001F2807DB0120DB49087108464079401C43
:1003700048710EE0D748407902280AD1D548007963
:100380001D2806DB0120D349087108464079401C2E
:100390004871002005F0FBF805F02CF910BD7047FE
:1003A0007047704710B5022004F0CBF90120CA490C
:1003B0000870CA49087010BD704770477047704791
:1003C0007047704770477047704770477047704775
:1003D0007047704770477047704770477047704765
:1003E00010B50221480706F046F8002864D0022123
:1003F000480706F051F84FF0804006F01DF8B84964
:1004000008800846008800F57A7081B24FF080407D
:1004100006F000F8B3480078401CB2490870B248B2
:100420000078401CB0490870B0480078401CAF49C3
:100430000870AF480078401CAD4908700846007845
:100440001E2808DBAB48007828B10020A9490870B5
:100450000120A9490870A34800781E2806DB002067
:10046000A04908709D490870A44908709E4800780A
:10047000032806DB0020A2490870A2490870A2499F
:1004800008709A480078052807DDA048007820B158
:1004900000209E49087095490870944800780A2801
:1004A00009DD9A480078002805D101209749087095
:1004B00000208E4908707CE00421080705F0DBFF6E
:1004C00000285CD00421080705F0E6FF4FF08040CB
:1004D00005F0B5FF8249088008460088FA3081B2ED
:1004E0004FF0804005F098FF89480078B0B3894804
:1004F000007800285DD08848007810B983480078DB
:1005000088B94FF48051854804F00FFD20218348BD
:1005100004F0FEFCC0F10100C4B2224620217F4855
:1005200004F007FD45E04FF480517C4804F0F0FCF6
:10053000C0F10100C4B222464FF48051774804F064
:10054000F8FC2021754804F0E3FCC0F10100C4B2BE
:1005500022462021714804F0ECFC2AE0FFE76D48B8
:10056000007830B320216D4804F0D2FCC0F10100C6
:10057000C4B222462021694804F0DBFC19E00821BE
:10058000C80605F078FFA0B10821C80605F084FF71
:100590004FF0804005F056FF51490880084600881A
:1005A000193081B24FF0804005F038FF01205C49DE
:1005B00008701021880605F05EFF00287ED010210B
:1005C000880605F069FF4FF0804005F03EFF444982
:1005D000088008460088143081B24FF0804005F052
:1005E0001FFF02214F4804F086FC70B94E48007886
:1005F00001280AD10020414908704C480078401C6D
:100600004A49087000203749087048480078042893
:1006100029DB32480078012815D1002043490870B1
:1006200043480078401C4249087001204149087045
:100630000020414908703C49087040480078401C3F
:100640003E4908700FE00120244908700020374916
:100650000870012037490870002037490870344974
:1006600008703149087001212E4804F044FC70B92B
:100670002D48007801280AD1002020490870304810
:100680000078401C2E4908700020164908702C483C
:100690000078042864DB11480078012852D100203A
:1006A0002749087022480078401E21490870002020
:1006B00020490870204908701B4900E0A6E0087036
:1006C0001E480078401E1D49087049E08051010015
:1006D00032000020000000203A00002034000020FA
:1006E0001E00002024000020210000202300002004
:1006F00022000020310000204300002033000020B1
:10070000300000202F0000201900002038000020B9
:10071000370000203500002036000020000801408E
:1007200039000020000C014040000020270000207C
:10073000250000203E000020260000202C00002084
:10074000280000200120AE4908700020AD49087043
:10075000AD490870AD490870AD490870AD490870E1
:100760008021AD4804F0C7FB90B9AA480078012861
:100770000ED1A34908700020A8490870A848007845
:10078000401CA7490870A7480078401CA54908707C
:10079000A34800780A2802D1FF209C490870A1488C
:1007A0000078402809DB55209849087000209D49B1
:1007B00008709D4908709749087002219B4804F011
:1007C0009AFB012810D10121984804F094FB0128DC
:1007D0000AD18021904804F08EFB012804D194486E
:1007E0000078401C924908709148007803280DDB7E
:1007F00001208849087000208E49087081490870DE
:1008000087490870874908708949087010BD70478A
:10081000704770477047704770477047704710B512
:1008200040F22551844805F0FBFF50B1824805F0A5
:1008300077FFC1B281480478601C804A10708048FC
:10084000015540F227717C4805F0EAFFB0B17D48C0
:100850000478601C7B4A10707B480068015D764814
:1008600005F05AFF7748007878490978884205DB17
:10087000002240F22771704805F0EDFE10BD10B562
:1008800040F22551724805F0CBFF50B1704805F099
:1008900047FFC1B26F480478601C6E4A10706E4802
:1008A000015540F227716A4805F0BAFFB0B16B48B4
:1008B0000478601C694A107069480068015D6448EA
:1008C00005F02AFF6548007866490978884205DB0B
:1008D000002240F227715E4805F0BDFE28215C48E9
:1008E00005F09EFF68B100BF2021594805F082FF46
:1008F0000028F9D02821564805F0BCFF544805F0DF
:100900000FFF10BD10B540F22551574805F088FF84
:10091000002842D04021404804F007FB524805F02F
:10092000FFFEC1B251480478601C504A1070504814
:10093000015510460078401E4D49085CA82803D098
:100940004C480078012803D101204A4908700BE087
:10095000474846490978405CA82805D045480078B2
:1009600010B9002041490870404800780A2804D195
:100970003F48407A0C30404908703C4800783E4976
:100980000978884202D101203C49087000203C4986
:1009900008704021204804F0CAFA40F2277132481A
:1009A00005F03EFFB0B137480478601C354A10703E
:1009B00035480068015D2C4805F0AEFE31480078EE
:1009C00032490978884205DB002240F22771264827
:1009D00005F041FE10BD7047704770477047704783
:1009E000704770477047704770477047704770474F
:1009F00070477047704770477047704770470000F6
:100A000034000020280000203E00002026000020A6
:100A10002500002040000020000801403300002095
:100A2000290000202A00002024000020000C0140A2
:100A30002B00002027000020003801401500002076
:100A40003013002014000020080000201A000020AD
:100A500000440040170000203A1300201600002038
:100A60000C0000201B00002000480040190000205E
:100A70009E13002030000020200000202F000020C6
:100A80002100002018000020100000201C00002081
:100A900010B504F071FB4FF4803004F08FFB04F0CC
:100AA000CCFB0446012C23D1102003F067FE02206A
:100AB00003F050FE002004F012FC002004F021FCA2
:100AC000A00204F015FCA104881004F0DFFB012053
:100AD00004F0E8FB00BF392004F093FB0028FAD0B3
:100AE000022004F0EEFB00BF04F0F4FB0828FBD169
:100AF0000121042004F0BBFC0121082004F0B7FC14
:100B00000121084604F0B3FC0121880304F0AFFC86
:100B10000121880404F0B8FC0121480404F0B4FC6D
:100B20000121084604F0B0FC10BD08B500214FF0CB
:100B3000006003F0E8FC4FF4E06003F0ADFC072038
:100B400003F0FFFD1C208DF8000000208DF801004F
:100B50008DF8020001208DF80300684603F0A1FC27
:100B600007208DF8000000208DF8010001208DF88D
:100B700002008DF80300684603F093FC27208DF8EF
:100B8000000000208DF8010002208DF802000120F5
:100B90008DF80300684603F084FC26208DF80000E1
:100BA00000208DF8010003208DF8020001208DF84F
:100BB0000300684603F075FC03208DF80000002058
:100BC0008DF8010004208DF8020001208DF803004B
:100BD000684603F066FC25208DF8000000208DF8A3
:100BE000010006208DF8020001208DF80300684600
:100BF00003F057FC08BD08B54FF48060ADF8000065
:100C000004208DF803006946FB4804F0E1F84FF436
:100C10000070ADF8000003208DF8020018208DF858
:100C200003006946F44804F0D3F81020ADF8000042
:100C300003208DF8020018208DF803006946EE4865
:100C400004F0C6F80820ADF8000010208DF803006D
:100C50006946E94804F0BCF80420ADF800001C2007
:100C60008DF803006946E44804F0B2F84FF40060E0
:100C7000ADF8000004208DF803006946DF4804F059
:100C8000A7F84FF48060ADF8000003208DF8020053
:100C900018208DF803006946D84804F099F84FF4FD
:100CA000C050ADF8000010208DF8030003208DF82F
:100CB00002006946D04804F08BF80420ADF800002B
:100CC00014208DF8030003208DF802006946CB48FC
:100CD00004F07EF84FF44070ADF8000010208DF85D
:100CE000030003208DF802006946C44804F070F840
:100CF0004FF47040ADF8000010208DF80300032081
:100D00008DF802006946BD4804F062F84FF4807027
:100D1000ADF8000010208DF8030003208DF80200CC
:100D20006946B54804F054F86020ADF80000102082
:100D30008DF8030003208DF802006946AE4804F0E8
:100D400047F80220ADF8000004208DF80300694642
:100D5000A94804F03DF80320ADF8000004208DF808
:100D600003006946A54804F033F88020ADF8000080
:100D700004208DF8030069469F4804F029F80120FB
:100D8000ADF8000003208DF8020014208DF8030058
:100D90006946994804F01CF8C020ADF80000032013
:100DA0008DF8020014208DF803006946934804F082
:100DB0000FF840209149103108608020086008BD7C
:100DC00010B501214FF0C05004F05EFB012004F08B
:100DD00078F903F0CFFB4FF4407004F0D2FA012011
:100DE00004F0D5FA04F00FFC04F004FC01210846DD
:100DF00004F0A4FB04F0FEFB4FF2244004F0D4FB0B
:100E000004F0F8FB002003F0C0FB4FF4407003F047
:100E1000C4FB10BD00B587B04FF4165003904FF4DB
:100E20008050ADF810000020ADF812004FF4806043
:100E3000ADF814000020ADF818000C20ADF8160035
:100E400003A96F4805F06FFB03A96E4805F06BFB23
:100E500001216B4805F0F3FB01216A4805F0EFFB27
:100E6000012240F22551664805F0F5FB012240F2CF
:100E70002551644805F0EFFB0221634805F062FC50
:100E80000221614805F056FC4FF40060ADF8040003
:100E90000020ADF80600ADF808004FF48070ADF802
:100EA0000A0001A9584805F0B3FB4FF4FC50039029
:100EB0004FF48050ADF810004FF44050ADF81200E0
:100EC0004FF48060ADF814000C20ADF8160000203F
:100ED000ADF8180003A94C4805F025FB0122282194
:100EE000494805F0B8FB012240F22551464805F07B
:100EF000B2FB0121444805F0A2FB0121424805F064
:100F000035FC0121404805F025FC07B000BD1CB5AB
:100F100002213D4805F016FC02213B4805F00AFC81
:100F20000020ADF800006946374805F071FB00224B
:100F30002821354805F08FFB002240F22551324828
:100F400005F089FB0021304805F079FB00212E488F
:100F500005F00CFC00212C4805F0FCFB1CBD00B585
:100F600087B00221284805F0EDFB0221264805F054
:100F7000E1FB4FF40060ADF804000020ADF806007E
:100F8000ADF808004FF48070ADF80A0001A91E48C2
:100F900005F03EFB4FF4FC5003904FF48050ADF849
:100FA00010004FF44050ADF812004FF48060ADF8DF
:100FB00014000C20ADF816000020ADF8180003A9AD
:100FC000114805F0B0FA012228210F4805F043FB33
:100FD000012240F225510C4805F03DFB01210A4851
:100FE00005F02DFB0121084805F0C0FB0121064852
:100FF00005F0B0FB07B000BD00080140000C014047
:101000000038014000480040004400401CB5022068
:1010100003F097FB0121002003F0F0FF684603F086
:1010200060FB00208DF804000C208DF805000220E4
:10103000009001208DF80600684603F00BFB1CBDF4
:1010400070B504460D460020F9490870F94805704E
:10105000F9480460012240F22771F84805F0FBFAD4
:1010600000BFF3480078F34909788842F9D170BD90
:1010700070B504460D460020F1490870F14805702E
:10108000F1480460012240F22771F04805F0E3FACC
:1010900070BD70B504460D460020ED490870ED485E
:1010A0000570ED4804604021EC4803F03EFF01224A
:1010B00040F22771EA4805F0CEFA00BFE448007814
:1010C000E44909788842F9D14021E44803F02FFF30
:1010D00070BD00B587B04FF6FF70ADF8140045F64F
:1010E000BF50ADF810000020ADF81600ADF81200AA
:1010F00004A94FF0804004F099FB0020ADF80000F7
:101100000120ADF802004FF47A70ADF8060000201F
:10111000ADF8080069464FF0804004F0C4FB0021A0
:101120004FF0804005F00EF80120ADF80200FA20E3
:10113000ADF806006946400704F0F7FB00214FF0C8
:10114000804005F008F80120ADF802001920ADF844
:1011500006006946800704F035FC00214FF080400E
:1011600005F006F80120ADF802001420ADF80600E5
:101170006946000704F071FC00214FF0804005F043
:1011800000F80121880704F0ADFF01221E2190071D
:1011900004F0C3FE0121880704F0A4FE07B000BDDF
:1011A00010B5012004F0EAF800BF612004F029F82E
:1011B0000028FAD045F2555003F058FF032003F001
:1011C00058FF40F2E73003F057FF03F058FF03F0F9
:1011D0005BFF10BD10B50121C80204F055F94FF4B2
:1011E000C07005F06CFB412005F072FB7F2005F01C
:1011F0008AFB05F093FB05F07CFB10BD102000BFBF
:101200000100A0F10100FBD1704700B58020954995
:101210000860FFF7F3FF402092490860FFF7EEFFF8
:1012200090480838006800F0800008B9012000BD2F
:1012300080208C49091D0860FFF7E0FF40208949A4
:10124000091D0860FFF7DAFF86480838006800F0DB
:10125000800008B10220EAE70020E8E700B580201E
:101260008049091D0860FFF7C9FF40207D490860DB
:10127000FFF7C4FF80207B490860FFF7BFFF00BD78
:1012800000B580207749091D0860FFF7B7FF4020AF
:1012900074490860FFF7B2FF40207249091D0860D9
:1012A000FFF7ACFF00BD00B580206E490860FFF776
:1012B000A5FF40206B490860FFF7A0FF4020694967
:1012C000091D0860FFF79AFF00BD10B503464020D6
:1012D0006449091D086000241BE003F0800018B178
:1012E00080206049086003E080205E49091D086095
:1012F0005806030EFFF782FF40205A490860FFF7A7
:101300007DFF40205749091D0860FFF777FF601CEB
:10131000C4B2082CE1DB802052490860FFF76EFF61
:10132000402050490860FFF769FF4E4808380068C0
:1013300000F0800028B140204A49091D08600320C0
:1013400010BD40204749091D08600420F8E710B58A
:101350008020444908604020091D086000230024C3
:1013600016E040203F490860FFF748FF5806030E8B
:101370003C480838006800F0800008B143F00103E1
:1013800040203849091D0860FFF738FF601CC4B2CF
:10139000082CE6DB184610BD30B500240025FFF709
:1013A00034FF04460CB1204630BDA8252846FFF77F
:1013B0008CFF0446042C01D02046F5E70020F3E71B
:1013C000F0B505460E460024002700BFFFF7E4FFF6
:1013D0000028FBD1FFF719FF04460CB12046F0BDF1
:1013E0000120B0EB154F01D1AA2700E0A82738460D
:1013F000FFF76BFF0446042C01D02046EFE7C5F34E
:101400000720FFF762FF0446042C01D02046E6E7E0
:10141000E8B2FFF75AFF0446042C01D02046DEE76D
:101420003046FFF752FF0446042C1DD02046D6E775
:10143000140000201A00002008000020003801409D
:10144000160000201B0000200C000020004400407B
:10145000180000201C00002010000020000801409F
:1014600000480040100C0140FFF7F8FE0020B6E7EE
:101470002DE9F04F0546884691469A460024A3463A
:10148000002608EB052087B200BFFFF785FF002884
:10149000FBD10120B0EB274F02D14FF0AA0B01E0A6
:1014A0004FF0A80B5846FFF710FF0446042C02D05B
:1014B0002046BDE8F08F3812FFF707FF0446042CE2
:1014C00001D02046F5E7F8B2FFF7FFFE0446042CF2
:1014D00001D02046EDE700260AE01AF80600FFF7E3
:1014E000F4FE0446042C01D02046E2E7701CC6B28C
:1014F0004E45F2DBFFF7B2FE0020DAE72DE9FC4FA4
:1015000004460D4617464FF00009C4F30F26E0B21B
:101510000190604200F0FF086019C0F30F2A6019C3
:10152000C0B20090AAEB06001FFA80FB45450CD81C
:1015300000BFAAB23B4630460199FFF799FF002849
:10154000F7D12F44701C86B20BE000BF3B464246E9
:1015500030460199FFF78CFF0028F7D14744701CF3
:1015600086B2BBF1010F16DD4FF000090FE000BF9E
:101570003B464FF4807200213046FFF779FF002888
:10158000F6D107F58077701C86B209F10109ABF13D
:1015900001004845EBD8B24508D100BF3B460021C9
:1015A0003046009AFFF764FF0028F7D1BDE8FC8FB2
:1015B000F0B505460E460024002700BFFFF7ECFEFD
:1015C0000028FBD1FFF721FE04460CB12046F0BDF8
:1015D0000120B0EB154F01D1AA2700E0A82738461B
:1015E000FFF773FE0446042C01D02046EFE7C5F355
:1015F0000720FFF76AFE0446E8B2FFF766FE0446DE
:10160000042C01D02046E2E7FFF7FFFD0446A9279E
:101610003846FFF75AFE0446042C01D02046D6E790
:10162000FFF795FE3070FFF73EFEFFF7E7FD002065
:10163000CDE72DE9F04305460F4690460024A1462C
:10164000002600BFFFF7A8FE0028FBD1FFF7DDFD55
:10165000044614B12046BDE8F0830120B0EB154FDD
:1016600002D14FF0AA0901E04FF0A8094846FFF760
:101670002CFE0446042C01D02046ECE7C5F30720DD
:10168000FFF723FE0446E8B2FFF71FFE0446042CD2
:1016900001D02046DFE7FFF7B8FD04464FF0A90967
:1016A0004846FFF712FE0446042C01D02046D2E73C
:1016B00000260DE0FFF74BFE08F80600781EB0424A
:1016C00002D0FFF7DDFD01E0FFF7EDFD701C86B2F3
:1016D000BE42EFDBFFF7C2FD0020BCE77CB5012175
:1016E0005A4803F024FC4FF4B030FEF723FD0121EB
:1016F000564803F01AFC4FF4007403E0601E84B2F5
:1017000004B905E00121514803F0F5FB0128F5D0AB
:1017100000BF4FF4007403E0601E84B204B905E01A
:1017200001214A4803F0E7FB0028F5D000BF002C58
:101730007DD000256DE04FF4007403E0601E84B29C
:1017400004B905E00121414803F0D5FB0128F5D09B
:1017500000BF4FF4007403E0601E84B204B905E0DA
:1017600001213A4803F0C7FB0028F5D000BFF8205C
:10177000FEF7E0FC0121354803F0BDFB08B9002667
:1017800000E00126072D0BDC9DF800004006000E4E
:101790008DF800009DF8000030438DF8000036E021
:1017A0000F2D0BDC9DF801004006000E8DF80100A6
:1017B0009DF8010030438DF8010028E0172D0BDC67
:1017C0009DF802004006000E8DF802009DF8020010
:1017D00030438DF802001AE01F2D0BDC9DF803004A
:1017E0004006000E8DF803009DF8030030438DF88D
:1017F00003000CE0272D0ADC9DF804004006000ED3
:101800008DF804009DF8040030438DF80400681C36
:10181000C5B2282D8FDB9DF800009DF8011008440B
:101820009DF8021008449DF80310084400E00BE006
:101830009DF80410884207D19DF800000449087003
:101840009DF80200034908707CBD000000080140BB
:101850002E0000202D0000203EB5FB49087800EB4B
:10186000D0714910A0EB410109B9002400E0042423
:10187000002513E0681CF549085C0DF815001DF8FB
:10188000150001116800401C0DF800101DF815002E
:1018900000F00F000DF81500681CC5B2052DE9DB3E
:1018A000EBA20021204602F0EFFCEAA21021204624
:1018B00002F0EAFC9DF8000050B9E7A22021204682
:1018C00002F0E2FCE5A23021204602F0DDFC09E056
:1018D000E3A22021204602F0D7FCE2A230212046DC
:1018E00002F0D2FCE0A24021204602F0CDFCDFA2B3
:1018F0005021204602F0C8FCDDA26021204602F003
:1019000004FDDCA26821204602F0FFFCD9A2702170
:10191000204602F0FAFCD7A27821204602F0F5FC1E
:10192000A11CC8B2D3A2002102F0EFFCA11CC8B2D6
:10193000D0A2082102F0E9FCA11CC8B2CDA210215E
:1019400002F0E3FCA11CC8B2CAA2182102F0DDFC1F
:10195000A11CC8B2C7A2202102F0D7FC092509E0CA
:101960001DF8050018B90A200DF8050000E003E095
:10197000681EC5B2052DF3DA00BF9DF80920A11C31
:10198000C8B2282102F0F8FC9DF80820A11CC8B2BA
:10199000302102F0F1FC9DF80720A11CC8B23821CB
:1019A00002F0EAFC9DF80620A11CC8B2402102F01A
:1019B000E3FC9DF80520A11CC8B2482102F0DCFC24
:1019C0009DF80420A11CC8B2502102F0D5FCA11C36
:1019D000C8B2A9A2582102F098FC9DF80320A11CCE
:1019E000C8B2602102F0C8FC9DF80220A11CC8B258
:1019F000682102F0C1FCA11CC8B2A0A2702102F0B3
:101A000043FC3EBD70B59049087800EBD071491099
:101A1000A0EB410109B9042400E00024FFF75EFEB9
:101A20009748007858BB9748007840BB96480078A4
:101A3000012810D185480078AA280CD18248007866
:101A4000401C81490870FFF707FF7F480078401E5F
:101A50007D490870B6E000250EE0E806010E85A27B
:101A6000204602F052FCEA06110EA21CD0B281A25E
:101A700002F04BFC681CC5B2102DEEDBA2E074A294
:101A80000021204602F000FC72A21021204602F044
:101A9000FBFB7EA22021204602F0F6FB7CA2302137
:101AA000204602F0F1FB72A24021204602F02DFCFC
:101AB00070A24821204602F028FC6EA25021204648
:101AC00002F023FC6BA25821204602F01EFC6C4859
:101AD00000780A2190FBF1F090FBF1F201FB12007B
:101AE000C6B232466021204602F046FC64480078C7
:101AF0000A2190FBF1F201FB1200C6B232466821C6
:101B0000204602F039FC63A27021204602F0BCFBA3
:101B1000A11CC8B260A2002102F0B6FBA11CC8B291
:101B20005EA2102102F0B0FBA11CC8B25CA2202171
:101B300002F0AAFBA11CC8B255A2302102F0A4FBFE
:101B4000A11CC8B24AA2402102F0DFFBA11CC8B20E
:101B500048A2482102F0D9FBA11CC8B245A25021DD
:101B600002F0D3FBA11CC8B242A2582102F0CDFB67
:101B7000A11CC8B23FA2602102F0C7FB4148007817
:101B80000A2190FBF1F090FBF1F201FB1200C6B2CA
:101B9000A11CC8B23246682102F0EEFB3948007839
:101BA0000A2190FBF1F201FB1200C6B2A11CC8B2DF
:101BB0003246702102F0E0FBA11CC8B239A27821A4
:101BC00002F0A3FB70BD70B50024002507E0E80615
:101BD000010E28A2204602F098FB681CC5B2102D09
:101BE000F5DB611CC8B230A2002102F04DFB611C84
:101BF000C8B22EA2102102F047FB611CC8B22CA271
:101C0000202102F041FB611CC8B22AA2302102F05F
:101C10003BFB611CC8B228A2402102F035FB611CCD
:101C2000C8B226A2502102F02FFB611CC8B223A229
:101C3000602102F029FB611CC8B221A2702102F0D0
:101C400023FB002548E000002C000020500000206D
:101C5000B5B10000C7B00000CAA30000D3E0000087
:101C6000CDB80000D6A70000BDF00000B6EE000021
:101C70003A000000200000002E000000D4AA00005E
:101C80002D0000202E00002032000020CEC20000D7
:101C9000B6C80000A1E60000CFE00000B6D4000006
:101CA000CAAA000025000000D6D50000B6CB00006F
:101CB000BBF10000C8A10000B5E70000B1ED0000D5
:101CC000BAC50000EA06110EE21CD0B2AFF25C0207
:101CD00002F01BFB681CC5B2102DF3DBFE48007838
:101CE00001284ED1E11CC8B2FCA2002102F0CCFABE
:101CF000E11CC8B2FAA2102102F0C6FAE11CC8B277
:101D0000F8A2202102F0C0FAE11CC8B2F6A23021EC
:101D100002F0BAFAE11CC8B2F4A2402102F0F5FACE
:101D2000E11CC8B2AFF2B402482102F0EEFAE11CA5
:101D3000C8B2AFF2C002502102F0E7FAE11CC8B20B
:101D4000AFF2D002582102F0E0FAE11CC8B2AFF2C3
:101D5000DC02602102F0D9FAE11CC8B2AFF2EC0259
:101D6000682102F0D2FAE11CC8B2AFF2F802702189
:101D700002F0CBFAE11CC8B2AFF20812782102F0EF
:101D8000C4FA002509E0EA06110EA21DD0B2AFF296
:101D90001C1202F0BAFA681CC5B2102DF3DB611DEB
:101DA000C8B2D3A2002102F06FFA611DC8B2D1A25D
:101DB000102102F069FA611DC8B2CFA2202102F001
:101DC00063FA611DC8B2CDA2302102F05DFA611D37
:101DD000C8B2AFF21C12402102F056FA611DC8B21F
:101DE000BFA2502102F050FA611DC8B2AFF28012BA
:101DF000602102F08AFA611DC8B2AFF28812682130
:101E000002F083FA611DC8B2AFF29812702102F09D
:101E10007CFA611DC8B2AFF2A412782102F075FA03
:101E200070BD3EB5B649087800EBD0714910A0EB03
:101E3000410109B9002400E00424002514E0C5F1A3
:101E40000500B049085C0DF815001DF815000111DA
:101E50006800401C0DF800101DF8150000F00F0080
:101E60000DF81500681CC5B2062DE8DB9DF80000D2
:101E70000A2811DAA348007888B9A248407870B9D6
:101E8000A048807858B99F48C07840B99D480079EB
:101E900028B99C48407910B9FFF795FEB9E0AFF238
:101EA000E8120021204602F0EFF9AFF2F012102103
:101EB000204602F0E9F9AFF2FC122021204602F0A0
:101EC000E3F9AFF204223021204602F0DDF9AFF24F
:101ED00060224021204602F018FAAFF26822482121
:101EE000204602F012FAAFF274225021204602F08E
:101EF0000CFAAFF280225821204602F006FAAFF227
:101F00008C226021204602F000FAAFF2982268216C
:101F1000204602F0FAF9AFF2A4227021204602F026
:101F2000F4F9AFF2B0227821204602F0EEF99DF8E4
:101F30000020A11CC8B2782102F01EFA9DF80120F1
:101F4000A11CC8B2702102F017FA9DF80220A11C52
:101F5000C8B2682102F010FA9DF80320A11CC8B293
:101F6000602102F009FA9DF80420A11CC8B2582192
:101F700002F002FA9DF80520A11CC8B2502102F01F
:101F8000FBF99DF80620A11CC8B2482102F0F4F923
:101F90009DF80720A11CC8B2402102F0EDF99DF880
:101FA0000820A11CC8B2382102F0E6F99DF80920EA
:101FB000A11CC8B2302102F0DFF99DF80A20A11C53
:101FC000C8B2282102F0D8F99DF80B20A11CC8B294
:101FD000202102F0D1F9A11CC8B2AFF26832182159
:101FE00002F093F9A11CC8B2AFF27832102102F0CE
:101FF0008CF9A11CC8B2AFF28432082102F085F935
:10200000A11CC8B2AFF29432002102F07EF9FFF7B2
:10201000F9FC3D480078182805DB3C48007810B1F1
:1020200000203949087038480078182805DB3748FF
:10203000007810B91720344908703EBD3EB53049CC
:10204000087800EBD0714910A0EB410109B90024D8
:1020500000E00424002513E0681C2D49085C0DF8FD
:1020600015001DF8150001116800401C0DF8001046
:102070001DF8150000F00F000DF81500681CC5B222
:10208000042DE9DB23A20021204602F0FDF822A264
:102090001021204602F0F8F820A22021204602F06C
:1020A000F3F81FA23021204602F0EEF81DA24021D5
:1020B000204602F0E9F81CA25021204602F0E4F884
:1020C000AFF254426021204602F01FF9AFF25C42A9
:1020D000682120462AE0000045000020B6C100002B
:1020E000BFA80000CAA70000B0DC0000210000006B
:1020F000C7EB0000B2E50000C8EB0000B9BA000071
:102100002C0000209C000020250000203E00002024
:1021100046000020CAFD0000BEDD0000B8FC000043
:10212000D0C20000CAB10000BCE4000002F0EDF82B
:10213000AFF2C0427021204602F0E7F8AFF2CC4285
:102140007821204602F0E1F8A11CC8B2AFF2DC42CF
:10215000002102F0DAF8AFF2E4426821204602F0F2
:10216000D4F8AFF2F0427021204602F0CEF8AFF280
:10217000FC427821204602F0C8F8A11CC8B2AFF298
:102180000C52002102F0C1F8A11CC8B2AFF21C52DF
:10219000082102F0BAF8A11CC8B2AFF228521021EF
:1021A00002F0B3F8A11CC8B2AFF23852182102F005
:1021B000ACF89DF80520A11CC8B2202102F0DCF883
:1021C0009DF80420A11CC8B2282102F0D5F8A11C5A
:1021D000C8B2FEA2302102F057F89DF80320A11CDE
:1021E000C8B2402102F0C8F89DF80220A11CC8B274
:1021F000482102F0C1F8A11CC8B2F5A2502102F09A
:1022000043F89DF80120A11CC8B2602102F0B4F887
:102210009DF80020A11CC8B2682102F0ADF8A11CF5
:10222000C8B2AFF20012702102F02EF83EBD7CB5AC
:10223000E849087800EBD0714910A0EB410109B9D9
:10224000002400E00424002513E0681CE249085C37
:102250000DF815001DF8150001116800401C0DF85F
:1022600000101DF8150000F00F000DF81500681C97
:10227000C5B2042DE9DBAFF228620021204602F04E
:1022800003F8AFF230621021204601F0FDFFD3A227
:102290002021204601F0F8FFD1A23021204601F094
:1022A000F3FFAFF2EC524021204601F0EDFFCDA24A
:1022B0005021204601F0E8FFAFF24C626021204639
:1022C00002F023F8AFF254626821204602F01DF8B4
:1022D000AFF260627021204602F017F8AFF26C6234
:1022E0007821204602F011F8A11CC8B2AFF27C623E
:1022F000002102F00AF8072509E01DF8050018B9C9
:102300000A200DF8050000E003E0681EC5B2052DA7
:10231000F3DA00BF9DF80720A11CC8B2082102F023
:102320002BF89DF80620A11CC8B2102102F024F859
:102330009DF80520A11CC8B2182102F01DF89DF8D7
:102340000420A11CC8B2202102F016F8A11CC8B2BA
:10235000AFF2DC62282101F0D8FF9DF80320A11C18
:10236000C8B2302102F008F89DF80220A11CC8B2C2
:10237000382102F001F89DF80120A11CC8B24021CB
:1023800001F0FAFF9DF80020A11CC8B2482101F01D
:10239000F3FFA11CC8B2AFF21C72502101F074FF10
:1023A000A11CC8B290A2602101F0AFFFA11CC8B26D
:1023B0008EA2682101F0A9FFA11CC8B28CA27021D5
:1023C00001F0A3FFA11CC8B28AA2782101F09DFFF1
:1023D0007CBD7CB57F49087800EBD0714910A0EB3B
:1023E000410109B9002400E00424002513E0681C21
:1023F0008149085C0DF815001DF8150001116800F1
:10240000401C0DF800101DF8150000F00F000DF82D
:102410001500681CC5B2042DE9DB78A20021204616
:1024200001F032FF76A21021204601F02DFFAFF21D
:1024300034322021204601F027FFAFF28472302190
:10244000204601F021FFAFF2E0724021204601F06A
:102450001BFFAFF2E8725021204601F015FFAFF2EA
:10246000F0726021204601F050FFAFF2F87268214F
:10247000204601F04AFFAFF604027021204601F029
:1024800044FFAFF610027821204601F03EFFA11C68
:10249000C8B2AFF62002002101F037FFA11CC8B27C
:1024A000AFF63002082101F030FFA11CC8B2AFF630
:1024B0003C02102101F029FFA11CC8B2AFF64C026A
:1024C000182101F022FFA11CC8B2AFF6580220214A
:1024D00001F01BFF072509E01DF8050018B90A20C7
:1024E0000DF8050000E003E0681EC5B2032DF3DA25
:1024F00000BF9DF80720A11CC8B2282101F03CFFB5
:102500009DF80620A11CC8B2302101F035FF9DF8CE
:102510000520A11CC8B2382101F02EFF9DF804202F
:10252000A11CC8B2402101F027FF9DF80320A11C87
:10253000C8B2482101F020FF9DF80220A11CC8B2BA
:10254000502101F019FFA11CC8B2AFF6D4025821E6
:1025500001F0DBFE9DF80120A11CC8B2602101F052
:102560000BFF9DF80020A11CC8B2682101F004FFF8
:10257000A11CC8B2AFF6FC02702101F085FE7CBD43
:102580003EB51449087800EBD0714910A0EB410129
:1025900009B9002400E00424002513E0681C19494F
:1025A000085C0DF815001DF8150001116800401CAD
:1025B0000DF800101DF8150000F00F000DF81500C3
:1025C000681CC5B2052DE9DB0CA21DE0D4C20000D9
:1025D000C8D500002C0000206E000020BDD70000F0
:1025E000CCDD0000BCDB00002F0000006B00000011
:1025F00057000000680000008D000020D7EE0000AA
:10260000BDFC0000590000200021204601F03CFEE6
:10261000AFF214021021204601F036FEAFF2245230
:102620002021204601F030FEAFF674123021204602
:1026300001F02AFEAFF214524021204601F024FEA0
:10264000AFF21C525021204601F01EFEAFF6E01200
:102650006021204601F059FEAFF6E81268212046BD
:1026600001F053FEAFF6F4127021204601F04DFE4A
:10267000AFF600227821204601F047FEA11CC8B227
:10268000AFF61022002101F040FEA11CC8B2AFF647
:102690001C22082101F039FEA11CC8B2AFF62C2281
:1026A000102101F032FEA11CC8B2AFF63822182169
:1026B00001F02BFE9DF80720A11CC8B2202101F0DB
:1026C0005BFE9DF80620A11CC8B2282101F054FE33
:1026D000A11CC8B2AFF20C12302101F0D5FD9DF85B
:1026E0000520A11CC8B2402101F046FE9DF804203F
:1026F000A11CC8B2482101F03FFEA11CC8B2AFF234
:102700003012502101F0C0FD9DF80320A11CC8B279
:10271000602101F031FE9DF80220A11CC8B26821A1
:1027200001F02AFEA11CC8B2AFF20862702101F0CC
:10273000ABFD3EBD7CB5FE49087800EBD071491079
:10274000A0EB410109B9002400E00424002513E0B6
:10275000681CF849085C0DF815001DF815000111FA
:102760006800401C0DF800101DF8150000F00F0067
:102770000DF81500681CC5B2042DE9DBEEA200219E
:10278000204601F081FDEDA21021204601F07CFDE4
:10279000AFF298622021204601F076FDAFF6E822E4
:1027A0003021204601F070FDAFF644324021204632
:1027B00001F06AFDAFF64C325021204601F064FD75
:1027C000AFF654326021204601F09FFDAFF65C3237
:1027D0006821204601F099FDAFF66832702120464D
:1027E00001F093FDAFF674327821204601F08DFDA3
:1027F000A11CC8B2AFF68432002101F086FDA11CF5
:10280000C8B2AFF69032082101F07FFDA11CC8B21A
:10281000AFF6A032102101F078FDA11CC8B2AFF6CE
:10282000AC32182101F071FDA11CC8B2AFF6BC3268
:10283000202101F06AFD072509E01DF8050018B9FF
:102840000A200DF8050000E003E0681EC5B2032D64
:10285000F3DA00BF9DF80720A11CC8B2282101F0BF
:102860008BFD9DF80620A11CC8B2302101F084FD2B
:102870009DF80520A11CC8B2382101F07DFD9DF80E
:102880000420A11CC8B2402101F076FD9DF8032070
:10289000A11CC8B2482101F06FFD9DF80220A11CC7
:1028A000C8B2502101F068FDA11CC8B2AFF6384291
:1028B000582101F02AFD9DF80120A11CC8B2602119
:1028C00001F05AFD9DF80020A11CC8B2682101F05A
:1028D00053FDA11CC8B2AFF65C42702101F0D4FCDC
:1028E0007CBD7CB59249087800EBD0714910A0EB13
:1028F000410109B9002400E00424002513E0681C0C
:102900008F49085C0DF815001DF8150001116800CD
:10291000401C0DF800101DF8150000F00F000DF818
:102920001500681CC5B2042DE9DB9DF803000F28D3
:102930007DD081A20021204601F0A6FC7FA21021BB
:10294000204601F0A1FCAFF64C022021204601F008
:102950009BFCAFF69C423021204601F095FC79A209
:102960004021204601F090FCAFF6FC425021204669
:1029700001F0CBFCAFF604525821204601F0C5FC13
:10298000AFF610526021204601F0BFFCAFF61C529A
:102990006821204601F0B9FCAFF62852702120468C
:1029A00001F0B3FCAFF634527821204601F0ADFCC3
:1029B000A11CC8B2AFF64452002101F0A6FCA11C34
:1029C000C8B2AFF65052082101F09FFCA11CC8B25A
:1029D000AFF66052102101F098FCA11CC8B2AFF60E
:1029E0006C52182101F091FC072509E01DF8050043
:1029F00018B90A200DF8050000E003E0681EC5B212
:102A0000032DF3DA00BF9DF80720A11CC8B22021D6
:102A100001F0B2FC9DF80620A11CC8B2282101F0EB
:102A2000ABFC9DF80520A11CC8B2302100E040E0BD
:102A300001F0A2FC9DF80420A11CC8B2382101F0CD
:102A40009BFC9DF80320A11CC8B2402101F094FC1E
:102A50009DF80220A11CC8B2482101F08DFCA11CE8
:102A6000C8B2AFF6EC52502101F04FFC9DF80120A6
:102A7000A11CC8B2582101F07FFC9DF80020A11CC8
:102A8000C8B2602101F078FCA11CC8B2AFF2A44228
:102A9000682101F03AFCA11CC8B2AFF2AC4270212F
:102AA00001F033FCA11CC8B2AFF2B842782101F0AA
:102AB0002CFC7CBD38B51E49087800EBD07149105C
:102AC000A0EB410109B9002400E00424002513E033
:102AD000681C1D49085C0DF815001DF81500011152
:102AE0006800401C0DF800101DF8150000F00F00E4
:102AF0000DF81500681CC5B2022DE9DB9DF8030036
:102B00000F287CD011A20021204601F0BDFBAFF6BA
:102B100014221021204601F0B7FBAFF66462202199
:102B2000204601F0B1FB0AA23021204612E000004D
:102B30002C00002069000020C0DB0000BCC60000A3
:102B40005F000020C1BF000056000020D7DC00005D
:102B5000B4CE000001F098FBAFF648224021204699
:102B600001F092FBAFF6F8625021204601F0CDFB58
:102B7000AFF600725821204601F0C7FBAFF60C7289
:102B80006021204601F0C1FBAFF618726821204693
:102B900001F0BBFBAFF624727021204601F0B5FBBB
:102BA000AFF630727821204601F0AFFBA11CC8B20D
:102BB000AFF64072002101F0A8FBA11CC8B2AFF62D
:102BC0004C72082101F0A1FBA11CC8B2AFF65C72E7
:102BD000102101F09AFBA11CC8B2AFF6687218214F
:102BE00001F093FBA11CC8B2AFF67872202101F06E
:102BF0008CFBA11CC8B2AFF68472282100E04FE024
:102C000001F083FBA11CC8B2AFF69872302101F02D
:102C10007CFBA11CC8B2AFF6A472382101F075FB91
:102C2000A11CC8B2AFF6B472402101F06EFBA11C2A
:102C3000C8B2AFF6C072482101F067FB032509E076
:102C40001DF8050018B90A200DF8050000E003E0A2
:102C5000681EC5B2012DF3DA00BF9DF80320A11C48
:102C6000C8B2502101F088FB9DF80220A11CC8B217
:102C7000582101F081FB9DF80120A11CC8B2602100
:102C800001F07AFB9DF80020A11CC8B2682101F078
:102C900073FBA11CC8B2AFF24812702101F0F4FA24
:102CA00038BD7CB5FE49087800EBD0714910A0EB27
:102CB000410109B9002500E00425FAA200212846B7
:102CC00001F023FBF84800780D281DD1F7A2082158
:102CD000284601F0D9FA002413E0601CF449085C8E
:102CE0000DF814001DF8140001116000401C0DF8CF
:102CF00000101DF8140000F00F000DF81400601C07
:102D0000C4B2042CE9DB66E0E74800780E281DD148
:102D1000E8A20821284601F0B7FA002413E0601D5C
:102D2000E349085C0DF814001DF81400011160005F
:102D3000401C0DF800101DF8140000F00F000DF8F5
:102D40001400601CC4B2042CE9DB44E0D6480078CF
:102D50000F281ED1D8A20821284601F095FA002498
:102D600014E004F10900D249085C0DF814001DF8C4
:102D7000140001116000401C0DF800101DF8140033
:102D800000F00F000DF81400601CC4B2042CE8DB46
:102D900021E0C548007810281DD1C8A20821284686
:102DA00001F072FA002414E004F10D00C049085C3F
:102DB0000DF814001DF8140001116000401C0DF8FE
:102DC00000101DF8140000F00F000DF81400601C36
:102DD000C4B2042CE8DBB3A21821284601F095FA0E
:102DE000B7A22021284601F04FFAB6A2302128468A
:102DF00001F04AFAB4A24021284601F045FAAFF6A4
:102E00001C025021284601F03FFAB0A2602128465A
:102E100001F07BFAA3A26821284601F076FAA1A26C
:102E20007021284601F071FA9EA27821284601F00F
:102E30006CFAA91CC8B29BA2002101F066FA072413
:102E400009E01DF8040018B90A200DF8040000E09C
:102E500003E0601EC4B2052CF3DA00BF9DF8072022
:102E6000A91CC8B2082101F087FA9DF80620A91C08
:102E7000C8B2102101F080FA9DF80520A91CC8B243
:102E8000182101F079FA9DF80420A91CC8B220216C
:102E900001F072FAA91CC8B28DA2282101F035FAFE
:102EA0009DF80320A91CC8B2302101F065FA9DF8F5
:102EB0000220A91CC8B2382101F05EFA9DF8012059
:102EC000A91CC8B2402101F057FA9DF80020A91CA6
:102ED000C8B2482101F050FAA91CC8B27DA2502105
:102EE00001F0D2F9A91CC8B2AFF60412602101F0BA
:102EF0000CFAA91CC8B2AFF60C12682101F005FA51
:102F0000A91CC8B2AFF61812702101F0FEF9A91C75
:102F1000C8B2AFF62012782101F0F7F97CBD7CB57C
:102F20005F49087800EBD0714910A0EB410109B965
:102F3000002500E0042568A20021284601F0A4F93C
:102F400066A21021284601F09FF95748007808280A
:102F50001ED1AFF208422021284601F095F9002445
:102F600013E0601C5E49085C0DF814001DF81400A5
:102F700001116000401C0DF800101DF8140000F055
:102F80000F000DF81400601CC4B2042CE9DBACE0A7
:102F90004548007809281DD144A22021284601F087
:102FA00073F9002413E0601D4D49085C0DF814000E
:102FB0001DF8140001116000401C0DF800101DF8F0
:102FC000140000F00F000DF81400601CC4B2042CB3
:102FD000E9DB8AE0344800780A281ED135A2202196
:102FE000284601F051F9002414E004F109003C499D
:102FF000085C0DF814001DF8140001116000401C5D
:103000000DF800101DF8140000F00F000DF814006A
:10301000601CC4B2042CE8DB67E0234800780B286E
:103020001ED125A22021284601F02EF9002414E00B
:1030300004F10D002A49085C0DF814001DF8140075
:1030400001116000401C0DF800101DF8140000F084
:103050000F000DF81400601CC4B2042CE8DB44E03F
:10306000114800780C2840D114A22021284601F0F4
:103070000BF9002437E004F111001949085C0DF840
:1030800014001DF8140001116000401C0DF8001020
:103090001DF8140000F00F000DF81400601C21E072
:1030A0002C0000202000000025000020BCE20000D1
:1030B0009C190020B7E50000C6BD0000B9C800009B
:1030C000B7D10000C2CA0000B5E700003A00000016
:1030D0002E000000D4AA0000B5B10000C7B0000067
:1030E000AD190020C4B2042CC5DBAFF2240230219C
:1030F000284601F0C9F8AFF2B4524021284601F049
:10310000C3F8FEA25021284601F0BEF8AFF6FC72CB
:103110006021284601F0B8F8AFF25002702128462D
:1031200001F0F3F8AFF284027821284601F0EDF8BF
:10313000A91CC8B2AFF29402002101F0E6F8A91C64
:10314000C8B2AFF2A002082101F0DFF8A91CC8B292
:10315000AFF2B002102101F0D8F8A91CC8B2AFF24A
:10316000BC02182101F0D1F8072409E01DF8040081
:1031700018B90A200DF8040000E003E0601EC4B294
:10318000032CF3DA00BF9DF80720A91CC8B2202148
:1031900001F0F2F89DF80620A91CC8B2282101F020
:1031A000EBF89DF80520A91CC8B2302101F0E4F825
:1031B0009DF80420A91CC8B2382101F0DDF89DF863
:1031C0000320A91CC8B2402101F0D6F89DF80220C6
:1031D000A91CC8B2482101F0CFF8A91CC8B2AFF2AF
:1031E0001012502101F091F89DF80120A91CC8B2DD
:1031F000582101F0C1F89DF80020A91CC8B2602137
:1032000001F0BAF8A91CC8B2AFF62042682101F05B
:103210007CF8A91CC8B2AFF62842702101F075F8FD
:10322000A91CC8B2AFF63442782101F06EF87CBD1B
:103230007CB5B349087800EBD0714910A0EB41018F
:1032400009B9002500E00425AEA20021284601F0BE
:103250001BF8ADA21021284601F016F8ABA22021E0
:10326000284601F011F8AA48007803281ED1AFF2D1
:1032700024723021284601F007F8002413E0601C76
:10328000A449085C0DF814001DF814000111600039
:10329000401C0DF800101DF8140000F00F000DF890
:1032A0001400601CC4B2042CE9DB8DE0984800785F
:1032B00004281ED1AFF20C223021284600F0E4FF92
:1032C000002413E0601D9349085C0DF814001DF8FC
:1032D000140001116000401C0DF800101DF81400CE
:1032E00000F00F000DF81400601CC4B2042CE9DBE0
:1032F0006AE08748007805281FD1AFF248223021C4
:10330000284600F0C1FF002414E004F109008149BF
:10331000085C0DF814001DF8140001116000401C39
:103320000DF800101DF8140000F00F000DF8140047
:10333000601CC4B2042CE8DB46E07548007806281F
:103340001FD1AFF28C223021284600F09DFF0024CF
:1033500014E004F10D006F49085C0DF814001DF82D
:10336000140001116000401C0DF800101DF814003D
:1033700000F00F000DF81400601CC4B2042CE8DB50
:1033800022E06348007807281ED1AFF2D022302116
:10339000284600F079FF002414E004F111005D4993
:1033A000085C0DF814001DF8140001116000401CA9
:1033B0000DF800101DF8140000F00F000DF81400B7
:1033C000601CC4B2042CE8DB53A24021284600F064
:1033D0005BFFAFF20C325021284600F055FFAFF6EC
:1033E0009C026021284600F04FFFAFF2203270218E
:1033F000284600F08AFFAFF254327821284600F0C8
:1034000084FFA91CC8B2AFF26432002100F07DFF36
:10341000A91CC8B2AFF27432082100F076FFA91CD3
:10342000C8B2AFF28032102100F06FFFA91CC8B201
:10343000AFF29032182100F068FF072409E01DF870
:10344000040018B90A200DF8040000E003E0601E33
:10345000C4B2032CF3DA00BF9DF80720A91CC8B240
:10346000202100F089FF9DF80620A91CC8B2282160
:1034700000F082FF9DF80520A91CC8B2302100F0A1
:103480007BFF9DF80420A91CC8B2382100F074FF0E
:103490009DF80320A91CC8B2402100F06DFF9DF8E3
:1034A0000220A91CC8B2482100F066FFA91CC8B2BE
:1034B000AFF2E432502100F028FF9DF80120A91C52
:1034C000C8B2582100F058FF9DF80020A91CC8B2CE
:1034D000602100F051FFA91CC8B2AFF6F06268216C
:1034E00000F013FFA91CC8B2AFF6FC62702100F017
:1034F0000CFFA91CC8B2AFF604720FE0CABE0000F0
:103500002C000020B1BE0000D6DC0000C6DA0000AE
:1035100025000020C2190020D3C30000782100F04C
:10352000F4FE7CBD3EB5FE49087800EBD071491031
:10353000A0EB410109B9002400E00424002513E0B8
:10354000681CF849085C0DF815001DF815000111FC
:103550006800401C0DF800101DF8150000F00F0069
:103560000DF81500681CC5B2052DE9DBAFF29842D5
:103570000021204600F088FEAFF2A0421021204634
:1035800000F082FE9DF8000050B9E7A220212046FD
:1035900000F07AFEE5A23021204600F075FE09E039
:1035A000E3A22021204600F06FFEE2A23021204657
:1035B00000F06AFEAFF2F0424021204600F064FEC7
:1035C000AFF680225021204600F05EFEAFF204529A
:1035D0006021204600F099FEAFF238526821204663
:1035E00000F093FEAFF244527021204600F08DFEB1
:1035F000AFF250527821204600F087FEA11CC8B2DD
:10360000AFF26052002100F080FEA11CC8B2AFF200
:103610006C52082100F079FEA11CC8B2AFF27C52B6
:10362000102100F072FEA11CC8B2AFF2885218211E
:1036300000F06BFE092509E01DF8050018B90A2005
:103640000DF8050000E003E0681EC5B2052DF3DAB1
:1036500000BF9DF80920A11CC8B2202100F08CFEFB
:103660009DF80820A11CC8B2282100F085FE9DF815
:103670000720A11CC8B2302100F07EFE9DF8062074
:10368000A11CC8B2382100F077FE9DF80520A11CCE
:10369000C8B2402100F070FE9DF80420A11CC8B201
:1036A000482100F069FEA11CC8B2AFF2DC525021E3
:1036B00000F02BFE9DF80320A11CC8B2582100F099
:1036C0005BFE9DF80220A11CC8B2602100F054FEF0
:1036D000A11CC8B298A2682100F017FEA11CC8B2B4
:1036E00096A2702100F011FEA11CC8B294A278210C
:1036F00000F00BFE3EBD10B5924800789249097863
:10370000884216D091480078012812D08D48007860
:1037100028B98F480078401E8D49087004E08C4815
:103720000078401C8A4908708648007886490870ED
:1037300006E00020854908708248007882490870B8
:103740008048007800287DD081480078012804D185
:103750007F480078401C7E4908707D480078012829
:1037600006D17C480078AA2802D002207849087047
:1037700077480078022806D16A480078AA2802D043
:103780000320734908707248007803280ADB7048E8
:103790000078072806DC70480078AA2802D00820A4
:1037A0006B4908706A48007808280ADB6848007886
:1037B0000C2806DC69480078AA2802D00D2064494C
:1037C0000870634800780D280ADB614800781028EB
:1037D00006DC63480078AA2802D011205C490870F2
:1037E0005B480078112806D15E480078AA2802D0EC
:1037F00012205749087056480078122806D15A48B6
:103800000078AA2802D01320514908705048007847
:10381000132806D155480078AA2802D014204C4914
:1038200008704B480078142806D151480078AA281F
:1038300002D015204649087045480078152808D15F
:103840004C4800E023E00078AA2802D01620404926
:1038500008703F480078162806D147480078AA2803
:1038600002D017203A49087039480078172806D145
:1038700042480078AA2802D0002035490870344810
:103880000078182802DB002031490870C7E0304872
:103890000078172802DB17202D4908702C48007883
:1038A000172806D135480078AA2802D016202849C2
:1038B000087027480078162806D12F480078AA28D3
:1038C00002D015202249087021480078152806D119
:1038D00028480078AA2802D014201D4908701C48E6
:1038E0000078142806D122480078AA2802D0132094
:1038F0001749087016480078132806D11B4800782D
:10390000AA2802D012201249087011480078122803
:1039100037D115480078AA2833D011200C492FE060
:103920002C0000204A000020CAA30000D3E00000C1
:10393000CDB80000D6A700006B00000057000000C3
:10394000680000003E0000203F00002041000020F1
:103950002500002050000020C2190020AD190020D1
:103960009C190020560000205F0000206900002004
:1039700059000020640000206E0000204600002056
:103980000870F7480078112806D1F6480078AA2870
:1039900002D01020F2490870F14800780D280ADBA7
:1039A000EF480078102806DCEF480078AA2802D0FB
:1039B0000C20EB490870EA48007808280ADBE84840
:1039C00000780C2806DCE9480078AA2802D00720F5
:1039D000E3490870E248007803280ADBE0480078F1
:1039E000072806DCE2480078AA2802D00220DC4939
:1039F0000870DB480078022806D1DE480078AA2843
:103A000002D00120D6490870D5480078012806D197
:103A1000D9480078AA2802D00020D1490870D0489F
:103A2000007818283CD2DFE800F03B0C0F1213148A
:103A30001516191A1B1C1D2021222326292C2F3272
:103A40003538FDF709FF2EE0FFF76CFD2BE000BFD6
:103A500000BF00BF00BFFFF7EBFB24E000BF00BFCB
:103A600000BF00BFFFF75BFA1DE000BF00BF00BF53
:103A7000FFF717F917E0FFF71DF814E0FEF731FF25
:103A800011E0FEF757FE0EE0FEF77AFD0BE0FEF7C1
:103A9000A0FC08E0FEF7CBFB05E0FEF7CFFA02E062
:103AA000FEF7BFF900BF00BF10BD70B500240025B0
:103AB00008E0E806010EAFF61422204600F025FCCF
:103AC000681CC5B2102DF4DBA11CC8B2AFF62C22C5
:103AD000002100F01AFCA11CC8B2A8A2082100F025
:103AE000D3FBA11CC8B2AFF64422182100F00DFC94
:103AF000A11CC8B2AFF65422202100F006FCA11C84
:103B0000C8B29FA2282100F0BFFBA11CC8B2AFF62B
:103B10006C22382100F0F9FBA11CC8B2AFF67C2260
:103B2000402100F0F2FBA11CC8B296A2482100F08F
:103B3000ABFBA11CC8B2AFF69422582100F0E5FB04
:103B4000A11CC8B2AFF6A422602100F0DEFBA11CCC
:103B5000C8B2AFF6B022682100F0D7FBA11CC8B2F2
:103B6000AFF6C022702100F0D0FBA11CC8B2AFF6A6
:103B7000CC22782100F0C9FB002509E0EA06110EED
:103B8000221DD0B2AFF6E42200F0BFFB681CC5B224
:103B9000102DF3DB611DC8B27BA2002100F074FB85
:103BA000611DC8B279A2102100F06EFB611DC8B280
:103BB00077A2202100F068FB611DC8B275A23021F8
:103BC00000F062FB611DC8B273A2402100F05CFBF3
:103BD000611DC8B270A2502100F056FB611DC8B231
:103BE000AFF61832602100F090FB611DC8B2AFF64D
:103BF0004C32682100F089FB611DC8B2AFF65C321F
:103C0000702100F082FB611DC8B2AFF668327821E6
:103C100000F07BFB002509E0EA06110EE21DD0B2A0
:103C2000AFF6803200F071FB681CC5B2102DF3DBDB
:103C300070BD10B5002059490870AFF698320021C8
:103C4000084600F062FBAFF6A4320821002000F025
:103C50005CFBAFF23C721021002000F015FBAFF6C8
:103C600098322021002000F00FFB4DA230210020CF
:103C700000F00AFB4BA24021002000F005FB4AA205
:103C80005021002000F000FB48A26021002000F03D
:103C9000FBFAAFF6F0327021002000F036FBAFF6F1
:103CA000FC327821002000F030FBAFF60842002102
:103CB000022000F02AFBAFF614420821022000F097
:103CC00024FBAFF620421021022000F01EFBAFF6CD
:103CD0002C421821022000F018FB35A220210220DE
:103CE00000F013FB33A22821022000F00EFB32A2C9
:103CF0003021022000F009FBAFF2C432382102204B
:103D000000F003FBAFF664424021022000F0FDFA10
:103D10002AA24821022000F0F8FA29A2502102200C
:103D200000F0F3FA27A25821022000F0EEFA26A2B2
:103D30006021022000F0E9FAAFF67042682102200B
:103D400000F0E3FA21A27021022000F0DEFA20A2A6
:103D50007821022000F0D9FAFDF754FE10BD0000D2
:103D600025000020560000209C190020AD190020DD
:103D7000C21900204A00002050000020C7EB0000BC
:103D8000B5C80000B4FD0000D5FD0000D4DA000085
:103D9000B6C10000BFA80000A1AD00002C000020AB
:103DA000B2E90000D1AF0000D6D50000B6CB0000CC
:103DB0004C000000690000006E000000540000008C
:103DC0006500000073000000740000004F00000058
:103DD0004B00000070B501F0D1FB04464FF4616068
:103DE000B4FBF0F0C349C8704FF46160B4FBF0F16C
:103DF00000FB11403C21B0FBF1F0BE4988704FF44C
:103E00006160B4FBF0F100FB11403C21B0FBF1F22A
:103E100001FB1200B74948700020B7490870AFF69F
:103E200048520021084600F02FFAAFF650521021F8
:103E3000002000F029FAAFF694522021002000F073
:103E400064FAAFF6A0522821002000F05EFAAFF627
:103E5000AC523021002000F058FAAFF6B8523821A9
:103E6000002000F052FAAFF6C4524021002000F0CA
:103E70004CFAAFF6D0524821002000F046FAAFF6D7
:103E8000DC525021002000F040FAAFF6E8525821F1
:103E9000002000F03AFAAFF6F4526021002000F062
:103EA00034FAAFF600626821002000F02EFAAFF677
:103EB0000C627021002000F028FAAFF61862782119
:103EC000002000F022FAAFF624620021022000F068
:103ED0001CFAAFF630620821022000F016FAAFF6A5
:103EE0003C621021022000F010FAAFF6486218215F
:103EF000022000F00AFAAFF654622021022000F0FE
:103F000004FAAFF660622821022000F0FEF9AFF655
:103F10006C623021022000F0F8F9AFF678623821A7
:103F2000022000F0F2F97348C0780A2190FBF1F00A
:103F3000C5B22A464021022000F01EFA6D48C07822
:103F40000A2190FBF1F201FB1200C5B22A4648217A
:103F5000022000F011FAAFF68C625021022000F02E
:103F6000D4F9644880780A2190FBF1F0C5B22A4662
:103F70005821022000F000FA5E4880780A2190FB68
:103F8000F1F201FB1200C5B22A466021022000F0C6
:103F9000F3F9AFF6C8626821022000F0B6F955487F
:103FA00040780A2190FBF1F0C5B22A467021022028
:103FB00000F0E2F94F4840780A2190FBF1F201FB52
:103FC0001200C5B22A467821022000F0D5F9FDF78B
:103FD00019FD70BD70B5002500241CE02007010EFE
:103FE00046A2284600F050F92207110EAA1CD0B2B2
:103FF00042A200F049F92207110E2A1DD0B23FA2B9
:1040000000F042F92207110EAA1DD0B23BA200F027
:104010003BF9601CC4B2082CE0DB70BD70B5002514
:1040200000241CE02007010E35A2284600F02CF9E0
:104030002207110EAA1CD0B231A200F025F92207E6
:10404000110E2A1DD0B22EA200F01EF92207110E69
:10405000AA1DD0B22AA200F017F9601CC4B2082C25
:10406000E0DB70BD70B5002500241CE02007010EC8
:1040700024A2284600F008F92207110EAA1CD0B28B
:1040800020A200F001F92207110E2A1DD0B21DA2B4
:1040900000F0FAF82207110EAA1DD0B219A200F002
:1040A000F3F8601CC4B2082CE0DB70BD70B50025CD
:1040B00000241CE02007010E13A2284600F0E4F8BB
:1040C0002207110EAA1CD0B20FA200F0DDF82207C1
:1040D000110E2A1DD0B20CA200F0D6F82207110E44
:1040E000AA1DD0B208A200F0CFF8601CC4B2082C00
:1040F000E0DB70BD000000202C000020B3C90000F0
:10410000B6BC0000B2A90000B8DF0000014605E01F
:10411000002001E0421C90B20F28FBDB0A00A1F155
:10412000010399B2F4D1704770B504464FF40041D1
:10413000D44800F0FAFE0120FFF7E8FF00251EE05A
:1041400004F0800028B94FF48071CF4800F0EFFEF2
:1041500004E04FF48071CC4800F0E7FE4FF40041DA
:10416000C84800F0E4FE0120FFF7D0FF4FF4004103
:10417000C44800F0DAFE6006040E681CC5B2082DC3
:10418000DEDB70BD10B504464FF48051BD4800F031
:10419000CEFE4FF48041BB4800F0C9FE2046FFF739
:1041A000C3FF4FF48051B74800F0BFFE10BD10B5FB
:1041B00004464FF48051B34800F0B9FE4FF48041FB
:1041C000B04800F0B2FE2046FFF7AEFF4FF480513A
:1041D000AC4800F0AAFE10BD10B54FF40051A9483C
:1041E00000F0A5FEFA20FFF791FF4FF40051A5481B
:1041F00000F09BFEE220FFF7C5FFFA20FFF786FFE5
:10420000AE20FFF7BFFFA020FFF7BCFF4020FFF765
:10421000B9FFC220FFF7B6FF8820FFF7B3FFA62043
:10422000FFF7B0FFA420FFF7ADFFA120FFF7AAFF23
:104230002F20FFF7A7FF2620FFF7A4FF8120FFF71D
:10424000A1FFC020FFF79EFFAF20FFF79BFF10BD2F
:1042500070B5002415E004F1B001C8B2FFF792FF79
:104260001020FFF78FFF0020FFF78CFF002504E0F0
:104270000020FFF79CFF681CC5B2842DF8DB601C92
:10428000C4B2082CE7DB70BDF0B503460C46002134
:10429000002019E000EB00167C4F07EB460676780D
:1042A0005778BE420ED100EB0016784F17F8166013
:1042B0001778BE4206D100EB0016744F07EB460696
:1042C000B51C03E0461CF0B26528E3DB00BF65289F
:1042D00001D16E4DAD1C002114E000200EE010262F
:1042E00006FB0106AE5D5F18DFF8A4C10CEBC71733
:1042F00004EB000C07F80C60461CF0B21028EEDB53
:104300004E1CF1B20229E8DBF0BDF0B503460C46C5
:104310000021002000BF0EE000EB00165D4FBE5DE7
:104320001778BE4205D100EB00165A4F3E44751C6B
:1043300003E0461CF0B24B28EEDB00BF4B2801D156
:10434000544D6D1C002114E000200EE0082606FBF1
:104350000106AE5D5F18DFF838C10CEBC71704EB40
:10436000000C07F80C60461CF0B20828EEDB4E1C6F
:10437000F1B20229E8DBF0BDF0B503460C4602EBD2
:104380000216444F3E44751C002014E000210EE04C
:10439000082606FB0016AE5D1F18DFF8F4C00CEB14
:1043A000C71704EB010C07F80C604E1CF1B208298A
:1043B000EEDB461CF0B20228E8DBF0BD10B5AF2002
:1043C000FFF7E0FE4FF400612F4800F0B0FD10BD94
:1043D00070B5FFF7F3FF002418E004F1B001C8B294
:1043E000FFF7D0FE1020FFF7CDFE0420FFF7CAFE36
:1043F000002507E0264901EBC411485DFFF7D7FE11
:10440000681CC5B2802DF5DB601CC4B2082CE4DB4F
:1044100070BD2DE9F04706460C461746002521E001
:1044200004F0F0094FEA291906F1B0012944C8B295
:10443000FFF7A8FE09F11000FFF7A4FE211D01F00F
:104440000F00FFF79FFE4FF0000806E03846FFF729
:10445000AEFE08F1010000F0FF08B8F1080FF5DB2F
:10446000681CC5B2022DDBDBBDE8F08710B5FFF795
:10447000B3FEAE20FFF786FE4FF40061024800F065
:1044800054FD10BD000C0140000801409D050020B6
:104490009C150020A200002031490143314A1160DF
:1044A000704770B5002100230F22C47804B32D4C4F
:1044B000246804F4E064C4F5E064210AC1F1040353
:1044C000CA40447804FA03F1847814402143090176
:1044D000254C0678A155047804F01F050124AC4052
:1044E00005786D11AD0005F1E025C5F8004109E042
:1044F000047804F01F050124AC401C4D06787611A9
:1045000045F8264070BD1A4A0A400243154B1B1F4E
:104510001A60704739B1134A121D12680243114BD9
:104520001B1D1A6006E00F4A121D126882430D4BD4
:104530001B1D1A607047042808D14FF0E02109695B
:1045400041F004014FF0E022116107E04FF0E0215B
:10455000096921F004014FF0E02211617047000069
:104560000000FA050CED00E000E400E080E100E06E
:1045700080FFFF1F10B5012000F0ADFF002000F00C
:10458000AAFF10BD2A49086070472949091F086021
:104590007047274984310860704701460020254A4A
:1045A00010884FF67F4210400843224A108070471F
:1045B000014600201F4A10884FF6807210400843C1
:1045C0001C4A1080704708B500220092194A2C3A04
:1045D0000092009A02440092009A116008BD08B54A
:1045E00001460020009013482C38009000980844A1
:1045F00000900098008808BD0D489C300068C0B24B
:1046000070470C480830008840F001000949083123
:10461000088070470648A0300068C0B2704705485F
:104620000830008840F002000249083108807047D5
:1046300004860D422C6C0040002044490860091D8E
:104640000860091D0860091D086041483F49143190
:104650000860704700213D498279002A3AD00A4615
:10466000126803689A430B461A600A1D12680368B1
:104670009A430B1D1A60027911440A6803681A43B1
:104680000A60324A0832126803689A432F4B083393
:104690001A601A1D126803689A432C4B0C331A6077
:1046A0004279102A0ED11A1F126803681A43274B49
:1046B00008331A601A1D126803681A43234B0C331F
:1046C0001A600DE02149427911440A6803681A43CF
:1046D0000A6005E0027911440A6803689A430A6097
:1046E00070470021016001710C214171002181712D
:1046F00070471649103109680143144A103211609D
:10470000704701460020114A143212680A400AB16B
:10471000012000E0002070470C4914310860704708
:10472000014600200022094B1B6803EA0102074BE7
:1047300014331B680B4013B10AB1012000E00020C4
:1047400070470249143108607047000000040140BE
:10475000FFFF0F0001460020FE4A106800F03800FD
:10476000084310607047FB49096821F00801F94AC5
:10477000116011460968014311607047F5490968E5
:1047800021F01001F34A11601146096801431160DC
:104790007047F148EF494860F04848607047EE487C
:1047A000EC494860ED4848607047EA48006940F0CD
:1047B0008000E84908617047E648006940F08000E1
:1047C000E449086170470420E249C96801F0010129
:1047D00009B101200EE0DF49C96801F0040109B107
:1047E000022007E0DB49C96801F0100109B103208C
:1047F00000E00420704700B502460423FFF7E3FF02
:10480000034603E0FFF7DFFF0346521E012B01D1F1
:10481000002AF7D102B90523184600BD30B5044679
:1048200004254FF43020FFF7E6FF0546042D17D18D
:10483000C848006940F00200C64908610846446162
:10484000006940F0400008614FF43020FFF7D3FFCB
:104850000546C048006941F6FD710840BD49086140
:10486000284630BD10B504244FF43020FFF7C3FFB5
:104870000446042C16D1B748006940F00400B5493D
:1048800008610846006940F0400008614FF430209C
:10489000FFF7B1FF0446AF48006941F6FB710840DD
:1048A000AC490861204610BD00B502460423FFF75D
:1048B0008AFF034603E0FFF786FF0346521E012BE3
:1048C00001D1002AF7D102B90523184600BD10B561
:1048D00004244FF43020FFF7E7FF0446042C16D1E0
:1048E0009C48006940F004009A4908610846006944
:1048F00040F0400008614FF43020FFF7D5FF044638
:104900009448006941F6FB710840924908612046CD
:1049100010BD00208F49C96901F0020109B10120D1
:1049200000E00020704730B5A5250424FFF7F1FF13
:1049300000B100254FF43020FFF75DFF0446042C42
:104940003AD1854883498860844888600846006970
:1049500040F0200008610846006940F0400008610E
:104960004FF43020FFF747FF0446042C1BD1794851
:10497000006941F6DF710840764908610846006920
:1049800040F01000086176480580E002FFF733FF31
:104990000446052C10D06F48006941F6EF710840BD
:1049A0006C49086108E0052C06D06A48006941F6A8
:1049B000EF71084067490861204630BD78B506466A
:1049C0000C46042500200090E802FFF714FF05467E
:1049D000042D24D15F48006940F001005D49086161
:1049E0003480E802FFF707FF0546042D10D1B01C04
:1049F0000090200C00990880E802FFF7FCFE0546B5
:104A00005448006941F6FE7108405249086106E0C9
:104A10005048006941F6FE7108404E490861284639
:104A200078BD70B504460D460426F002FFF7E3FE9C
:104A30000646042E11D14748006940F0010045495F
:104A400008612580F002FFF7D6FE0646414800695E
:104A500041F6FE7108403F490861304670BD70B5AF
:104A600005460E460424E002FFF7C5FE0446042C6A
:104A700017D1394837498860384888600846006946
:104A800040F0100008612E80E002FFF7B4FE0446FB
:104A9000052C06D02F48006941F6EF7108402D49DA
:104AA0000861204670BD2DE9F04304464FF6FF76BD
:104AB0003746B046B1460425E443E6B2C4F30727BF
:104AC000C4F307484FEA1469E802FFF794FE05466D
:104AD000042D49D120481F49886020488860084635
:104AE000006940F010000861FF2E06D01C48083015
:104AF0000680E802FFF77FFE0546042D08D1FF2F50
:104B000006D017480A300780E802FFF774FE054612
:104B1000042D0AD1B8F1FF0F07D011480C30A0F8CE
:104B20000080E802FFF767FE0546042D0AD1B9F1BF
:104B3000FF0F07D00A480E30A0F80090E802FFF7F8
:104B40005AFE0546052D0FD00248006941F6EF7167
:104B5000084007E00020024023016745AB89EFCD04
:104B600000F8FF1F664908612846BDE8F08330B5AC
:104B7000054604244FF43020FFF73DFE0446042C84
:104B800041D160485E4988605F4888600846006996
:104B900040F0200008610846006940F040000861CC
:104BA0004FF43020FFF727FE0446042C22D154484E
:104BB000006941F6DF710840514908610846006903
:104BC00040F0100008611DB100205049088002E04B
:104BD000A5204E4908804FF43020FFF70CFE044614
:104BE000052C10D04648006941F6EF710840444951
:104BF000086108E0052C06D04148006941F6DF71E4
:104C000008403F490861204630BDF0B505460E46D4
:104C1000174604243B483A4988603B488860E002D4
:104C2000FFF7E9FD0446042C19D13548006940F02E
:104C300010003349086147F0F800304328433349F6
:104C4000891C0880E002FFF7D6FD0446052C06D03B
:104C50002B48006941F6EF71084029490861204658
:104C6000F0BD2748C069800870472548006A704732
:104C700000202349096801F0200109B1012000E06A
:104C80000020704729B11E4A126902431C4B1A6169
:104C900004E01B4A12698243194B1A6170470146AE
:104CA0000020012908D1164AD26902F001020AB196
:104CB000012008E0002006E0114AD2680A400AB14B
:104CC000012000E0002070470D49C86070470420B3
:104CD0000B49C96801F0010109B101200EE0084942
:104CE000C96801F0040109B1022007E00449C9685C
:104CF00001F0100109B1032000E00420704700001A
:104D00000020024023016745AB89EFCD00F8FF1F6B
:104D100010B50446CC48844208D10121042000F09B
:104D2000C0FB0021042000F0BCFB46E0C7488442E1
:104D300008D10121082000F0B4FB0021082000F078
:104D4000B0FB3AE0C248844208D10121102000F0B3
:104D5000A8FB0021102000F0A4FB2EE0BD488442F7
:104D600008D10121202000F09CFB0021202000F030
:104D700098FB22E0B848844208D10121402000F08D
:104D800090FB0021402000F08CFB16E0B3488442E9
:104D900008D10121802000F084FB0021802000F058
:104DA00080FB0AE0AE48844207D10121801500F063
:104DB00078FB0021A01500F074FB10BD10B5012197
:104DC000084600F06EFB0021012000F06AFB10BDD8
:104DD0002DE9F04102460025002600200023002492
:104DE000002791F803C00CF00F0591F803C00CF0F8
:104DF000100CBCF1000F03D091F802C04CEA05057D
:104E000091F800C0BCF1000F31D0146800202BE0F5
:104E10004FF0010C0CFA00F3B1F800C00CEA0306E5
:104E20009E4220D183004FF00F0C0CFA03F7BC43D5
:104E300005FA03FC4CEA040491F803C0BCF1280F06
:104E400006D14FF0010C0CFA00FCC2F814C00AE0C5
:104E500091F803C0BCF1480F05D14FF0010C0CFADA
:104E600000FCC2F810C0401C0828D1D31460B1F86F
:104E700000C0BCF1FF0F34DD546800202EE000F1CB
:104E8000080C4FF0010808FA0CF3B1F800C00CEA66
:104E900003069E4221D183004FF00F0C0CFA03F75A
:104EA000BC4305FA03FC4CEA040491F803C0BCF1CE
:104EB000280F05D100F1080C08FA0CF8C2F814808C
:104EC00091F803C0BCF1480F07D100F1080C4FF076
:104ED000010808FA0CF8C2F81080401C0828CED34C
:104EE0005460BDE8F0814FF6FF71018002218170AE
:104EF0000421C17070470246002093680B400BB13B
:104F0000012000E0002070470146886880B27047A9
:104F100002460020D3680B400BB1012000E00020C6
:104F200070470146C86880B27047016170474161AF
:104F300070470AB1016100E041617047C16070478C
:104F40004FF480320A4382618161826182698269A1
:104F5000704702460020434B18684FF68073184094
:104F600040EA021008433F4B186070473E49C86151
:104F70007047F0B50A46002300240021002500F008
:104F80000046B6F1004F02D1364EF16901E0354ED0
:104F90007168C0F3034583B200F44016B6F5401FB4
:104FA00008D121F070612F4E766826F070662D4F83
:104FB0007E6012E000F48016B6F5801F06D103264D
:104FC00006FA05F4A14341F0706106E0460D360192
:104FD00003FA06F6B14341F0706122B1460D360185
:104FE00003FA06F6314300F00046B6F1004F02D155
:104FF0001C4EF16101E01B4E7160F0BD30B5002226
:105000008B071C0F0F2303FA04F2164B08338C1086
:1050100053F824309343134C08348D1044F8253052
:1050200023468C1053F824308C07240F00FA04F424
:1050300023430C4C08348D1044F8253030BD0A4908
:10504000DC3108607047000000080140000C01409E
:10505000001001400014014000180140001C0140F4
:105060000020014000000140000020420E4908607D
:1050700070470D49486070470B49886070474AF691
:10508000AA200949086070474CF6CC4006490860E0
:10509000704701460020044AD2680A400AB1012044
:1050A00000E00020704700000030004010B50121F2
:1050B000080700F003FA00214FF0805000F0FEF9DD
:1050C00010BD2A49086270472849086170470146A7
:1050D0000020274A106820F0E00008431060704765
:1050E0002249A0310860704710B502460020204BCD
:1050F000186820F00300104318601E4B1B6843F033
:1051000004031C4C2360012901D130BF00E020BF03
:10511000184B1B6823F00403164C236010BD144881
:10512000006840F00400124908600846006840F03A
:10513000020008600F48006840F004000D49086054
:1051400000BF00BF30BF704701460020084A5268C8
:105150000A400AB1012000E00020704704490968B4
:1051600041EA8001024A11607047000000000E42CF
:105170000070004010ED00E0E648006840F00100DB
:10518000E449086008464068E3490840E14948604E
:1051900008460068E1490840DE49086008460068A2
:1051A00020F4802008600846406820F4FE00486033
:1051B0004FF41F0088600020C8627047D549096815
:1051C00021F48031D34A11601146096821F480210D
:1051D0001160B0F5803F03D0B0F5802F0ED106E00E
:1051E000CC49096841F48031CA4A116007E0C949D5
:1051F000096841F4A021C74A116000E000BF00BF68
:10520000704710B501460022002300204A11012AF0
:1052100002D1C04C236806E0022A02D1BD4C236AA9
:1052200001E0BC4C636A01F01F02012494401C4061
:105230000CB1012000E0002010BD38B50020009026
:105240000024002500BF3120FFF7DBFF0546009852
:10525000401C00900098B0F5A06F01D0002DF2D056
:105260003120FFF7CEFF08B1012400E000242046E2
:1052700038BD01460020A74A106820F0F80040EA37
:10528000C10010607047A6490860704702460020C0
:10529000A04B586820F4741042EA010318439D4B58
:1052A000586070479E490866704702460020994B37
:1052B000D86A9C4B184042EA01031843954BD862C8
:1052C000704701460020934A506820F003000843CD
:1052D000506070478F48406800F00C0070470146EE
:1052E00000208C4A506820F0F0000843506070475E
:1052F00001460020874A506820F4E060084350606F
:10530000704701460020834A506820F4605040EA0C
:10531000C1005060704729B17E4A527A02437D4BEA
:105320005A7204E07B4A527A82437A4B5A7270472F
:105330007B49D8310860704701460020754A5068A3
:1053400020F440400843506070470021714A2032E9
:105350001170704A82F82010012802D004280AD166
:1053600004E001216B4A2032117005E00521694AF1
:105370002032117000E000BF00BF70476A4908602A
:1053800070476449096A0143624A1162704766497D
:1053900044390860704770B50021002300240022C2
:1053A00000255C4E766806F00C0121B1042905D079
:1053B000082921D105E05D4E066020E05B4E0660C5
:1053C0001DE0544E766806F47013524E766806F46B
:1053D0008034022606EB93431CB9554E5E430660AB
:1053E00009E04C4EF66A06F00F06751C4F4EB6FBF0
:1053F000F5F65E43066002E04C4E066000BF00BF5B
:10540000444E766806F0F00109094A4E725C06685F
:10541000D64046603F4E766806F4E061090A454E84
:10542000725C4668D64086603A4E766806F46051F3
:10543000C90A404E725C4668D640C660354E7668F2
:1054400006F44041890B3C4E725CC668B6FBF2F62E
:10545000066170BD29B12F4A526902432D4B5A6132
:1054600004E02C4A526982432A4B5A61704729B1A1
:10547000284A92690243274B9A6104E0254A9269BF
:105480008243244B9A61704729B1224AD269024370
:10549000204BDA6104E01F4AD26982431D4BDA6176
:1054A000704729B11B4AD26802431A4BDA6004E004
:1054B000184AD2688243174BDA60704729B1154AFF
:1054C00012690243134B1A6104E0124A12698243C3
:1054D000104B1A61704714494039086070471049F1
:1054E000C86470470B49C87170470A48406A40F069
:1054F000807008494862704701460020054A92685A
:105500000A400AB1012000E000207047014988727A
:1055100070470000001002400000FFF8FFFFF6FE99
:1055200000004242F0FFFEFF8004424200127A0077
:1055300000093D00071300201713002029B1504A2D
:10554000128802434E4B1A8004E04D4A128882436F
:105550004B4B1A8070474A48001D008840F01000ED
:105560004749091D088070474548001D00884FF6CF
:10557000EF7108404249091D0880704700214048EA
:105580001C300188001F008841EA0040704700B5C8
:105590000246FFF7E0FF100C394918310880091D59
:1055A0000A80FFF7E1FF00BD00B50246FFF7D3FF19
:1055B000C2F30340324908310880091D0A80FFF711
:1055C000D3FF00BD00B50246FFF7C5FF100C2C4904
:1055D00020310880091D0A80FFF7C6FF00BD0020AA
:1055E0002749103109880907080B25491431098812
:1055F0000843704700BF2248001D008800F02000CB
:105600000028F8D070471E48001D00884FF6F7713B
:1056100008401B49091D088000BF1948001D00886B
:1056200000F008000028F8D0704701460020144A16
:10563000121D12880A400AB1012000E000207047C4
:105640000F49091D098881430D4A121D11807047B9
:10565000014600200A4A121D12880A40D0B2084AA8
:1056600012880A4012B108B1012000E00020704702
:105670000349091D09888143014A121D11807047A1
:105680000028004010B50446FE48844208D101219C
:10569000C014FFF706FF0021E014FFF702FFC4E08B
:1056A000B4F1804F08D101210846FFF707FF002120
:1056B0000120FFF703FFB8E0F348844208D101213D
:1056C0000220FFF7FBFE00210220FFF7F7FEACE00F
:1056D000EE48844208D101210420FFF7EFFE0021AB
:1056E0000420FFF7EBFEA0E0E948844208D1012145
:1056F0000820FFF7E3FE00210820FFF7DFFE94E01B
:10570000E448844208D101211020FFF7D7FE002190
:105710001020FFF7D3FE88E0DF48844208D1012142
:105720002020FFF7CBFE00212020FFF7C7FE7CE002
:10573000DA48844208D101214014FFF7B2FE00216B
:105740006014FFF7AEFE70E0D548844209D1012114
:10575000C804FFF7A6FE00214FF40020FFF7A1FECA
:1057600063E0D048844209D101210805FFF799FE82
:1057700000214FF48010FFF794FE56E0CA4884429F
:1057800009D101214805FFF78CFE00214FF40010DC
:10579000FFF787FE49E0C548844208D10121402037
:1057A000FFF78CFE00214020FFF788FE3DE0C04857
:1057B000844208D101218020FFF780FE0021802053
:1057C000FFF77CFE31E0BB48844208D101218015FF
:1057D000FFF774FE0021A015FFF770FE25E0B64824
:1057E000844209D101210804FFF75BFE00214FF438
:1057F0008030FFF756FE18E0B048844209D10121FD
:105800004804FFF74EFE00214FF40030FFF749FE39
:105810000BE0AB48844208D101218804FFF741FE28
:1058200000214FF48020FFF73CFE10BD00220288CB
:10583000944B98420ED0994B98420BD0B0F1804FC8
:1058400008D0914B984205D0904B984202D0904B93
:10585000984204D14FF68F731A404B881A438D4BF0
:10586000984207D08C4B984204D04FF6FF431A4021
:10587000CB881A4302808B8883850B880385814BF4
:1058800098420BD0854B984208D08B4B984205D05C
:105890008A4B984202D08A4B984201D10B7A0386F8
:1058A00001238382704770B5002400220023058CF9
:1058B0004FF6FE7635400584028C8388048B4FF6C4
:1058C0008F752C40B51E2C400D882C43751E2A4028
:1058D0000D892A434D882A436A4DA8420BD06F4D4B
:1058E000A84208D0744DA84205D0744DA84202D0F9
:1058F000734DA84213D14FF6F7752A404D892A43BC
:105900004FF6FB752A408D882A434FF6FF652B40E2
:105910004FF6FF552B408D892B43CD892B43838038
:105920000483CD888586028470BD70B50024002272
:105930000023058C4FF6EF7635400584028C838872
:10594000048B48F6FF752C404FF6FF452C400D8820
:105950004FF6FF7606EA05252C434FF6DF752A4001
:105960000D8906EA05152A434D8806EA05152A43DE
:10597000444DA84202D0494DA8421DD14FF67F7533
:105980002A404D894FF6FF7606EA05152A434FF661
:10599000BF752A408D8806EA05152A434FF6FF3564
:1059A0002B404FF2FF752B408D8906EA85052B436E
:1059B000CD8906EA85052B4383800483CD8805873E
:1059C000028470BD70B5002400220023058C4FF6C0
:1059D000FF6635400584028C8388848B4FF68F7573
:1059E0002C404FF6FC752C400D882C434FF6FF558C
:1059F0002A400D894FF6FF7606EA05252A434D8891
:105A000006EA05252A431F4DA84202D0234DA8428D
:105A10001DD14FF2FF752A404D894FF6FF7606EAF9
:105A200005252A434FF6FF352A408D8806EA0525CD
:105A30002A434EF6FF752B404DF6FF752B408D899E
:105A400006EA05152B43CD8906EA05152B4383800D
:105A50008483CD888587028470BD70B500220023C1
:105A60000024058C4EF6FF7635400584038C84882F
:105A7000828B48F6FF752A404FF6FF452A400D8875
:105A800020E00000002C014000040040000800401D
:105A9000000C0040001000400014004000340140A1
:105AA000004C0140005001400054014000180040EB
:105AB000001C004000200040004001400044014024
:105AC000004801404FF6FF7606EA05252A434DF6C9
:105AD000FF752B400D8906EA05352B434D8806EAF4
