:020000040800F2
:10000000E01A0020311F0008391F00083B1F0008BC
:100010003D1F00083F1F0008411F000800000000AE
:10002000000000000000000000000000431F000866
:10003000451F000800000000471F0008D501000808
:10004000DD010008DF010008E1010008E30100080C
:10005000E5010008E7010008E9010008EB010008DC
:10006000ED010008EF010008F1010008F3010008AC
:10007000F5010008F7010008F9010008FB0100087C
:10008000FD010008FF0100084B1F000800000000F0
:100090000000000000000000000000000B0200084B
:1000A0004B1F00084B1F00084B1F000813020008DD
:1000B0001502000817020008190200081B020008B8
:1000C0001D0200081F020008210200082302000888
:1000D0002502000827020008290200082B02000858
:1000E0002D0200082F0200084B1F0008000000002E
:1000F0000000000000000000000000000000000000
:1001000000000000000000000000000000000000EF
:1001100000000000000000004B1F00084B02000818
:10012000DFF80CD001F0F2FF004800474B01000857
:10013000E01A002001B502E00098401E00900098EF
:100140000028F9D101F0FBFC08BD00F093F800F0A5
:1001500025F900F094FE4FF48051174801F045FC5A
:100160004FF40071154801F040FC4FF480711348C2
:1001700001F03BFC4021104801F039FC20210E48E1
:1001800001F035FC04210D4801F02FFC4FF4006113
:10019000094801F02CFC00F0B0FE00F042FB00F03A
:1001A000D0F800200649087005E000F06DFD00F071
:1001B00070FA00F051FBF8E700080140000C014024
:1001C0002E00002070477047704770477047704797
:1001D0007047704710B500F09EFA10BD7047704729
:1001E0007047704770477047704770477047704757
:1001F0007047704770477047704770477047704747
:100200007047704770477047704770477047704736
:100210007047704770477047704770477047704726
:100220007047704770477047704770477047704716
:100230007047704770477047704770477047704706
:1002400070477047704770477047704770477047F6
:100250007047704710B5002807DA0A07140E4C4A99
:1002600000F00F031B1FD45403E00A07130E494A82
:10027000135410BD10B501F079FC4FF4803001F03B
:1002800097FC01F0D4FC0446012C23D1102000F08F
:10029000D5FF022000F0BEFF002001F01AFD002073
:1002A00001F029FDA00201F01DFDA104881001F05C
:1002B000E7FC012001F0F0FC00BF392001F09BFCBD
:1002C0000028FAD0022001F0F6FC00BF01F0FCFC8F
:1002D0000828FBD10121042001F0C3FD01210820E1
:1002E00001F0BFFD0121084601F0BBFD012188039B
:1002F00001F0B7FD0121880401F0C0FD012148048F
:1003000001F0BCFD0121084601F0B8FD10BD10B59B
:10031000012001F02DFD00BF612001F06CFC0028E0
:10032000FAD045F2555001F001FC032001F001FC28
:1003300040F2E73001F000FC01F001FC01F004FCA8
:1003400010BD10B5144800684FF47A71B0FBF1F499
:10035000B4F1807F01D3012011E024F07F40401EE2
:100360004FF0E02148610F214FF0FF30FFF772FF9F
:1003700000204FF0E021886107200861002008B1CB
:1003800000BFFEE70421481FFFF764FF10BD000017
:1003900018ED00E000E400E0CC12002008B50320D6
:1003A000ADF8000004208DF803006946FE4801F016
:1003B0006FFA8020ADF8000004208DF80300694634
:1003C000FA4801F065FA08BDF948007800F001002C
:1003D000A0B90020F7490870F548007820F0010026
:1003E000401CF34908700846007820F004000870AB
:1003F0000846007820F00800087000E000BF0020E8
:10040000ED4908807047411CC8B2172800DD002064
:100410007047411CC8B23B2800DD0020704710B572
:10042000E448007807283BD2DFE800F03A041F11C7
:100430002C183300E1490878FFF7E5FFDF49087021
:100440000B469A785978187800F090FE29E0DC493C
:100450000878FFF7D8FFDA49087022E0D949087810
:10046000FFF7D1FFD74908701BE0D4494878FFF760
:10047000D0FFD24948700B469A785978187800F026
:1004800075FE0EE0CE494878FFF7C3FFCC494870AF
:1004900007E0CC494878FFF7BCFFCA49487000E044
:1004A00000BF00BF10BD411EC8B2172800DD1720D5
:1004B0007047411CC8B23B2800DD3B20704710B597
:1004C000BC48007807283BD2DFE800F03A041F114F
:1004D0002C183300B9490878FFF7E5FFB7490870D1
:1004E0000B469A785978187800F040FE29E0B44914
:1004F0000878FFF7D8FFB249087022E0B1490878C0
:10050000FFF7D1FFAF4908701BE0AC494878FFF70F
:10051000D0FFAA4948700B469A785978187800F0AD
:1005200025FE0EE0A6494878FFF7C3FFA4494870AE
:1005300007E0A4494878FFF7BCFFA249487000E0F3
:1005400000BF00BF10BD9B480078401C994908704F
:100550000846007860B19648007820F00400001D3D
:10056000934908700846007820F0080008300870A9
:100570009048007806280DDD8D48007820F00400B2
:100580008B4908700846007820F0080008700020A9
:1005900088490870704710B50121834801F00BFAB3
:1005A000F8B9FFF711FF88484079012812D1864831
:1005B000006886490968081AC82815D9844800784F
:1005C000401C83490870814800687F490860FFF734
:1005D00026FF09E07D4800687B49086001204871DA
:1005E00002E000207849487110BD10B502216E4824
:1005F00001F0E1F9F8B9FFF7E7FE76484079012804
:1006000012D17448006871490968081AC82815D9B8
:100610006F480078401C6E4908706C4800686D494E
:100620000860FFF74CFF09E0684800686949086006
:100630000120487102E000206649487110BD10B5E4
:1006400080215A4801F0B7F9F8B9FFF7BDFE6248BA
:100650004079012812D1604800685C490968081A8D
:10066000962815D95A480078401C594908705748AF
:10067000006859490860FFF766FF09E053480068C1
:10068000554908600120487102E000205249487134
:1006900010BD10B5FFF77FFFFFF7A7FFFFF7CFFFF4
:1006A00010BD2DE9F84304200090454800F0A4FD5A
:1006B0000646444800F0A0FD07464848D0F80080B0
:1006C000001DD0F80090464501D14F4521D000F0E3
:1006D000C0FD0125352001F057F8002408E03F490E
:1006E0004A1402FB041000F0F9FD0090601CC4B233
:1006F000AC4203DA9DF800000428F0D031463748B8
:1007000000F0BCFE39463548001D00F0B7FE00F091
:10071000ACFDBDE8F8832D480068401C2B490860FB
:100720002348007800F0010068B323480088401C8B
:10073000214908802A480078401C29490870084649
:100740000078C82808DB002008701948007820F0DD
:100750000200801C164908701748008844F6206182
:10076000884210DB002014490880124908701048A4
:10077000007820F001000E4908700846007820F04B
:100780001000103008700A480078C0F3800058B399
:1007900014480078401C1349087008460078C8289F
:1007A00036DB0020087020E0000C0140000801400A
:1007B00004000020280000202A000020050000205E
:1007C000080000200B000020100000200000002086
:1007D0002E000020180000202000002000FC00084F
:1007E0002D0000202C00002012E02C480078C0F3DF
:1007F000C00030B12948007820F00800274908706F
:1008000006E02648007820F00800083023490870E8
:10081000234800682349884202D300202049086009
:10082000704770B51D48007820F00100401C1B493E
:10083000087000201C4908701C480468001D0568E9
:100840001B49204600F0C6FC1A49284600F0C2FCAD
:1008500019481349086070BD70B5154800F0CCFC0C
:100860000446144800F0C8FC05460D4800684FF4E3
:100870007A71B0FBF1F0A0420AD909480068B0FBD8
:10088000F1F0A84204D202210C4801F0B0F803E0D4
:1008900002210A4801F0A9F870BD00000400002000
:1008A00000000020005C26052800002000FC000855
:1008B000080000200B00002000A24A0400080140AC
:1008C00010B54E220021084600F074FB4F2208218B
:1008D000002000F06FFB57221021002000F06AFB7F
:1008E00020221821002000F065FB20221146002064
:1008F00000F060FBFE4800780A2190FBF1F0C4B2E2
:1009000022462821002000F08AFBF94800780A21BD
:1009100090FBF1F201FB1200C4B22246302100200C
:1009200000F07DFB3A223821002000F043FBF04824
:1009300040780A2190FBF1F0C4B222464021002009
:1009400000F06DFBEA4840780A2190FBF1F201FBD0
:100950001200C4B222464821002000F060FB3A2277
:100960005021002000F026FBE14880780A2190FB0E
:10097000F1F0C4B222465821002000F050FBDC48C0
:1009800080780A2190FBF1F201FB1200C4B22246EA
:100990006021002000F043FB20226821002000F0AD
:1009A00009FB20227021002000F004FB2022782186
:1009B000002000F0FFFA53220021022000F0FAFA92
:1009C00020220821022000F0F5FACA4800780A2106
:1009D00090FBF1F0C4B222461021022000F01FFB70
:1009E000C44800780A2190FBF1F201FB1200C4B266
:1009F00022461821022000F012FB3A222021022078
:100A000000F0D8FABB4840780A2190FBF1F0C4B25C
:100A100022462821022000F002FBB64840780A2135
:100A200090FBF1F201FB1200C4B2224630210220F9
:100A300000F0F5FA20223821022000F0BBFA202233
:100A40004021022000F0B6FA20224821022000F0C6
:100A5000B1FA20225021022000F0ACFA20225821C5
:100A6000022000F0A7FA20226021022000F0A2FA62
:100A700020226821022000F09DFA2022702102200D
:100A800000F098FA20227821022000F093FA452203
:100A90000021042000F08EFA20220821042000F01A
:100AA00089FA954800780A2190FBF1F0C4B22246F9
:100AB0001021042000F0B3FA8F4800780A2190FB3F
:100AC000F1F201FB1200C4B222461821042000F00A
:100AD000A6FA3A222021042000F06CFA86484078D9
:100AE0000A2190FBF1F0C4B222462821042000F034
:100AF00096FA814840780A2190FBF1F201FB12003E
:100B0000C4B222463021042000F089FA2022382184
:100B1000042000F04FFA20224021042000F04AFA7D
:100B200020224821042000F045FA202250210420F0
:100B300000F040FA20225821042000F03BFA202245
:100B40006021042000F036FA20226821042000F001
:100B500031FA20227021042000F02CFA2022782182
:100B6000042000F027FA654800780A2190FBF1F094
:100B7000C4B222460021062000F051FA5F480078F6
:100B80000A2190FBF1F201FB1200C4B222460821B7
:100B9000062000F044FA20221021062000F00AFA74
:100BA00020221821062000F005FA202211460620F6
:100BB00000F000FA20222821062000F0FBF9202274
:100BC0003021062000F0F6F920223821062000F01E
:100BD000F1F920224021062000F0ECF920224821E2
:100BE000062000F0E7F920225021062000F0E2F96B
:100BF00020225821062000F0DDF920226021062065
:100C000000F0D8F920226821062000F0D3F9202234
:100C10007021062000F0CEF920227821062000F075
:100C2000C9F910BD10B536480078072829D2DFE889
:100C300000F02804160A1C1022001022282100208F
:100C400000F03AFA1EE010221146022000F034FAB9
:100C500018E010221146042000F02EFA12E01022B3
:100C60004021002000F028FA0CE010222821022068
:100C700000F022FA06E010222821042000F01CFADD
:100C800000E000BF00BF10BD10B51E48007800F0A6
:100C90000100D8B100F0E5F9154800F07CFA1948D8
:100CA0000078C0F34000B0B1FFF70AFE15480078A5
:100CB000C0F3C00008B1FFF7B5FF00F0DCF9114840
:100CC000007820F002000F49087004E000200B4972
:100CD000087000F03BFA0B480078C0F30010A8B190
:100CE0000848007820F01000064908700CE0000069
:100CF00005000020080000200B0000202E0000202E
:100D00002800002004000020FFF7CBFC10BD0000ED
:100D100008B54FF44070ADF8000010208DF80300C6
:100D200003208DF802006946F74800F0B1FD4FF44A
:100D3000C050ADF8000010208DF8030003208DF89E
:100D400002006946F14800F0A3FD4FF47040ADF891
:100D5000000010208DF8030003208DF80200694682
:100D6000E94800F095FD4FF48070ADF800001020C8
:100D70008DF8030003208DF802006946E34800F077
:100D800087FD6020ADF8000010208DF803000320DF
:100D90008DF802006946DD4800F07AFD0220ADF8CA
:100DA000000010208DF803006946D84800F070FD5F
:100DB00008BD014605E0002001E0421C90B20F286A
:100DC000FBDB0A1EA1F1010399B2F4D1704770B5A3
:100DD00004464FF40041CC4800F007FE0120FFF725
:100DE000E8FF00251EE004F0800028B94FF4807170
:100DF000C64800F0FCFD04E04FF48071C34800F0E9
:100E0000F4FD4FF40041C04800F0F1FD0120FFF770
:100E1000D0FF4FF40041BC4800F0E7FD6006040E2F
:100E2000681CC5B2082DDEDB70BD10B504464FF45A
:100E30008051B54800F0DBFD4FF48041B24800F02E
:100E4000D6FD2046FFF7C3FF4FF48051AE4800F0B7
:100E5000CCFD10BD10B504464FF48051AA4800F0F7
:100E6000C6FD4FF48041A84800F0BFFD2046FFF7C3
:100E7000AEFF4FF48051A44800F0B7FD10BD10B58F
:100E8000FFF746FF4FF400519F4800F0B0FDFA20F5
:100E9000FFF78FFF4FF400519B4800F0A6FDE220C2
:100EA000FFF7C3FFFA20FFF784FFAE20FFF7BDFF77
:100EB000A020FFF7BAFF4020FFF7B7FFC220FFF7DF
:100EC000B4FF8820FFF7B1FFA620FFF7AEFFA420F4
:100ED000FFF7ABFFA120FFF7A8FF2F20FFF7A5FF2B
:100EE0002620FFF7A2FF8120FFF79FFFC020FFF71A
:100EF0009CFFAF20FFF799FF10BD70B5002415E0EF
:100F000004F1B001C8B2FFF790FF1020FFF78DFF8A
:100F10000020FFF78AFF002504E00020FFF79AFF7A
:100F2000681CC5B2842DF8DB601CC4B2082CE7DB5A
:100F300070BDF0B503460C460021002019E000EB1F
:100F40000016734F07EB460676785778BE420ED1EF
:100F500000EB00166E4F17F816601778BE4206D1E8
:100F600000EB00166A4F07EB4606B51C03E0461C73
:100F7000F0B26528E3DB00BF652801D1644DAD1CEC
:100F8000002114E000200EE0102606FB0106AE5DF5
:100F90005F18DFF880C10CEBC71704EB000C07F8F3
:100FA0000C60461CF0B21028EEDB4E1CF1B2022998
:100FB000E8DBF0BDF0B503460C460021002000BF81
:100FC0000CE000EB0016544FBE5D964204D100EBDE
:100FD00000163E44751C03E0461CF0B24B28F0DBC3
:100FE00000BF4B2801D14C4D6D1C002114E00020A6
:100FF0000EE0082606FB0106AE5D5F18DFF814C19F
:101000000CEBC71704EB000C07F80C60461CF0B2A1
:101010000828EEDB4E1CF1B20229E8DBF0BDF0B58A
:1010200003460C4602EB02163B4F3E44751C002063
:1010300014E000210EE0082606FB0016AE5D1F1826
:10104000DFF8D0C00CEBC71704EB010C07F80C60FD
:101050004E1CF1B20829EEDB461CF0B20228E8DB98
:10106000F0BD10B5AF20FFF7E0FE4FF40061274858
:1010700000F0BDFC10BD70B5FFF7F3FF002418E0D1
:1010800004F1B001C8B2FFF7D0FE1020FFF7CDFE8B
:101090000420FFF7CAFE002507E01E4901EBC4113A
:1010A000485DFFF7D7FE681CC5B2802DF5DB601CDC
:1010B000C4B2082CE4DB70BDF0B503460C461546FF
:1010C000102D1AD1154A002014E000210EE0102640
:1010D00006FB0016965D1F18DFF838C00CEBC7172B
:1010E00004EB010C07F80C604E1CF1B21029EEDB8A
:1010F000461CF0B20228E8DB27E0074AAB320020AA
:1011000021E000211BE00000000C0140000801402C
:101110002A050020E01200202F0000209612002057
:10112000082606FB0016965D1F18DFF838C00CEB8A
:10113000C71704EB010C07F80C604E1CF1B208292C
:10114000EEDB461CF0B20228DBDBF0BD10B5FFF78A
:1011500096FEAE20FFF769FE4FF40061024800F0F2
:1011600044FC10BDE01200200008014030B50346E9
:101170000C460021C3EB4310C0EB032001EB001130
:10118000C4EB041001EB80014FF47A704843204D0A
:101190002860012030BD014600221D4800684FF440
:1011A0007A73B0FBF3F24FF46160B2FBF0F00870B9
:1011B0004FF46160B2FBF0F300FB13203C23B0FB63
:1011C000F3F048703C20B2FBF0F300FB1320887072
:1011D0000120704702464FF46160B2FBF0F00870E6
:1011E0004FF46160B2FBF0F300FB13203C23B0FB33
:1011F000F3F048700120704701460A784FF46163AC
:101200005A434B78C3EB031302EB83007047000093
:101210000000002001460020FE4A106800F038005F
:10122000084310607047FB49096821F00801F94A3A
:10123000116011460968014311607047F54909685A
:1012400021F01001F34A1160114609680143116051
:101250007047F148EF494860F04848607047EE48F1
:10126000EC494860ED4848607047EA48006940F042
:101270008000E84908617047E648006940F0800056
:10128000E449086170470420E249C96801F001019E
:1012900009B101200EE0DF49C96801F0040109B17C
:1012A000022007E0DB49C96801F0100109B1032001
:1012B00000E00420704700B502460423FFF7E3FF77
:1012C000034603E0FFF7DFFF0346521E012B01D167
:1012D000002AF7D102B90523184600BD30B50446EF
:1012E00004254FF43020FFF7E6FF0546042D17D103
:1012F000C848006940F00200C649086108464461D8
:10130000006940F0400008614FF43020FFF7D3FF40
:101310000546C048006941F6FD710840BD490861B5
:10132000284630BD10B504244FF43020FFF7C3FF2A
:101330000446042C16D1B748006940F00400B549B2
:1013400008610846006940F0400008614FF4302011
:10135000FFF7B1FF0446AF48006941F6FB71084052
:10136000AC490861204610BD00B502460423FFF7D2
:101370008AFF034603E0FFF786FF0346521E012B58
:1013800001D1002AF7D102B90523184600BD10B5D6
:1013900004244FF43020FFF7E7FF0446042C16D155
:1013A0009C48006940F004009A49086108460069B9
:1013B00040F0400008614FF43020FFF7D5FF0446AD
:1013C0009448006941F6FB71084092490861204643
:1013D00010BD00208F49C96901F0020109B1012047
:1013E00000E00020704730B5A5250424FFF7F1FF89
:1013F00000B100254FF43020FFF75DFF0446042CB8
:101400003AD18548834988608448886008460069E5
:1014100040F0200008610846006940F04000086183
:101420004FF43020FFF747FF0446042C1BD17948C6
:10143000006941F6DF710840764908610846006995
:1014400040F01000086176480580E002FFF733FFA6
:101450000446052C10D06F48006941F6EF71084032
:101460006C49086108E0052C06D06A48006941F61D
:10147000EF71084067490861204630BD78B50646DF
:101480000C46042500200090E802FFF714FF0546F3
:10149000042D24D15F48006940F001005D490861D6
:1014A0003480E802FFF707FF0546042D10D1B01C79
:1014B0000090200C00990880E802FFF7FCFE05462A
:1014C0005448006941F6FE7108405249086106E03F
:1014D0005048006941F6FE7108404E4908612846AF
:1014E00078BD70B504460D460426F002FFF7E3FE12
:1014F0000646042E11D14748006940F001004549D5
:1015000008612580F002FFF7D6FE064641480069D3
:1015100041F6FE7108403F490861304670BD70B524
:1015200005460E460424E002FFF7C5FE0446042CDF
:1015300017D13948374988603848886008460069BB
:1015400040F0100008612E80E002FFF7B4FE044670
:10155000052C06D02F48006941F6EF7108402D494F
:101560000861204670BD2DE9F04304464FF6FF7632
:101570003746B046B1460425E443E6B2C4F3072734
:10158000C4F307484FEA1469E802FFF794FE0546E2
:10159000042D49D120481F498860204888600846AA
:1015A000006940F010000861FF2E06D01C4808308A
:1015B0000680E802FFF77FFE0546042D08D1FF2FC5
:1015C00006D017480A300780E802FFF774FE054688
:1015D000042D0AD1B8F1FF0F07D011480C30A0F844
:1015E0000080E802FFF767FE0546042D0AD1B9F135
:1015F000FF0F07D00A480E30A0F80090E802FFF76E
:101600005AFE0546052D0FD00248006941F6EF71DC
:10161000084007E00020024023016745AB89EFCD79
:1016200000F8FF1F664908612846BDE8F08330B521
:10163000054604244FF43020FFF73DFE0446042CF9
:1016400041D160485E4988605F488860084600690B
:1016500040F0200008610846006940F04000086141
:101660004FF43020FFF727FE0446042C22D15448C3
:10167000006941F6DF710840514908610846006978
:1016800040F0100008611DB100205049088002E0C0
:10169000A5204E4908804FF43020FFF70CFE044689
:1016A000052C10D04648006941F6EF7108404449C6
:1016B000086108E0052C06D04148006941F6DF7159
:1016C00008403F490861204630BDF0B505460E464A
:1016D000174604243B483A4988603B488860E0024A
:1016E000FFF7E9FD0446042C19D13548006940F0A4
:1016F00010003349086147F0F8003043284333496C
:10170000891C0880E002FFF7D6FD0446052C06D0B0
:101710002B48006941F6EF710840294908612046CD
:10172000F0BD2748C069800870472548006A7047A7
:1017300000202349096801F0200109B1012000E0DF
:101740000020704729B11E4A126902431C4B1A61DE
:1017500004E01B4A12698243194B1A617047014623
:101760000020012908D1164AD26902F001020AB10B
:10177000012008E0002006E0114AD2680A400AB1C0
:10178000012000E0002070470D49C8607047042028
:101790000B49C96801F0010109B101200EE00849B7
:1017A000C96801F0040109B1022007E00449C968D1
:1017B00001F0100109B1032000E00420704700008F
:1017C0000020024023016745AB89EFCD00F8FF1FE1
:1017D00010B50446CC48844208D10121042000F011
:1017E0005AFB0021042000F056FB46E0C748844223
:1017F00008D10121082000F04EFB0021082000F054
:101800004AFB3AE0C248844208D10121102000F08E
:1018100042FB0021102000F03EFB2EE0BD48844238
:1018200008D10121202000F036FB0021202000F00B
:1018300032FB22E0B848844208D10121402000F068
:101840002AFB0021402000F026FB16E0B34884422A
:1018500008D10121802000F01EFB0021802000F033
:101860001AFB0AE0AE48844207D10121801500F03E
:1018700012FB0021A01500F00EFB10BD10B50121D8
:10188000084600F008FB0021012000F004FB10BD19
:101890002DE9F04102460025002600200023002407
:1018A000002791F803C00CF00F0591F803C00CF06D
:1018B000100CBCF1000F03D091F802C04CEA0505F2
:1018C00091F800C0BCF1000F31D0146800202BE06B
:1018D0004FF0010C0CFA00F3B1F800C00CEA03065B
:1018E0009E4220D183004FF00F0C0CFA03F7BC434B
:1018F00005FA03FC4CEA040491F803C0BCF1280F7C
:1019000006D14FF0010C0CFA00FCC2F814C00AE03A
:1019100091F803C0BCF1480F05D14FF0010C0CFA4F
:1019200000FCC2F810C0401C0828D1D31460B1F8E4
:1019300000C0BCF1FF0F34DD546800202EE000F140
:10194000080C4FF0010808FA0CF3B1F800C00CEADB
:1019500003069E4221D183004FF00F0C0CFA03F7CF
:10196000BC4305FA03FC4CEA040491F803C0BCF143
:10197000280F05D100F1080C08FA0CF8C2F8148001
:1019800091F803C0BCF1480F07D100F1080C4FF0EB
:10199000010808FA0CF8C2F81080401C0828CED3C1
:1019A0005460BDE8F0814FF6FF7101800221817023
:1019B0000421C17070470246002093680B400BB1B0
:1019C000012000E0002070470146886880B270471F
:1019D00002460020D3680B400BB1012000E000203C
:1019E00070470146C86880B2704701617047416125
:1019F00070470AB1016100E041617047C160704702
:101A00004FF480320A438261816182618269826916
:101A1000704702460020434B18684FF68073184009
:101A200040EA021008433F4B186070473E49C861C6
:101A30007047F0B50A46002300240021002500F07D
:101A40000046B6F1004F02D1364EF16901E0354E45
:101A50007168C0F3034583B200F44016B6F5401F29
:101A600008D121F070612F4E766826F070662D4FF8
:101A70007E6012E000F48016B6F5801F06D10326C2
:101A800006FA05F4A14341F0706106E0460D360107
:101A900003FA06F6B14341F0706122B1460D3601FA
:101AA00003FA06F6314300F00046B6F1004F02D1CA
:101AB0001C4EF16101E01B4E7160F0BD30B500229B
:101AC0008B071C0F0F2303FA04F2164B08338C10FC
:101AD00053F824309343134C08348D1044F82530C8
:101AE00023468C1053F824308C07240F00FA04F49A
:101AF00023430C4C08348D1044F8253030BD0A497E
:101B0000DC3108607047000000080140000C014013
:101B1000001001400014014000180140001C014069
:101B20000020014000000140000020420E490860F2
:101B300070470D49486070470B49886070474AF606
:101B4000AA200949086070474CF6CC400649086055
:101B5000704701460020044AD2680A400AB10120B9
:101B600000E000207047000000300040E6480068B8
:101B700040F00100E449086008464068E349084035
:101B8000E149486008460068E1490840DE490860CC
:101B90000846006820F4802008600846406820F469
:101BA000FE0048604FF41F0088600020C862704744
:101BB000D549096821F48031D34A1160114609687A
:101BC00021F480211160B0F5803F03D0B0F5802F63
:101BD0000ED106E0CC49096841F48031CA4A11604F
:101BE00007E0C949096841F4A021C74A116000E033
:101BF00000BF00BF704710B501460022002300203F
:101C00004A11012A02D1C04C236806E0022A02D1FF
:101C1000BD4C236A01E0BC4C636A01F01F02012441
:101C200094401C400CB1012000E0002010BD38B5EC
:101C3000002000900024002500BF3120FFF7DBFFCB
:101C400005460098401C00900098B0F5A06F01D0A8
:101C5000002DF2D03120FFF7CEFF08B1012400E0C3
:101C60000024204638BD01460020A74A106820F015
:101C7000F80040EAC10010607047A649086070474C
:101C800002460020A04B586820F4741042EA010379
:101C900018439D4B586070479E490866704702463E
:101CA0000020994BD86A9C4B184042EA0103184324
:101CB000954BD862704701460020934A506820F047
:101CC00003000843506070478F48406800F00C00E4
:101CD0007047014600208C4A506820F0F00008430D
:101CE0005060704701460020874A506820F4E06049
:101CF00008435060704701460020834A506820F432
:101D0000605040EAC1005060704729B17E4A527A63
:101D100002437D4B5A7204E07B4A527A82437A4BEB
:101D20005A7270477B49D8310860704701460020DD
:101D3000754A506820F440400843506070470021C5
:101D4000714A20321170704A82F82010012802D0A6
:101D500004280AD104E001216B4A2032117005E009
:101D60000521694A2032117000E000BF00BF7047B2
:101D70006A49086070476449096A0143624A11620E
:101D80007047664944390860704770B500210023E8
:101D90000024002200255C4E766806F00C0121B17B
:101DA000042905D0082921D105E05D4E066020E018
:101DB0005B4E06601DE0544E766806F47013524E7A
:101DC000766806F48034022606EB93431CB9554E20
:101DD0005E43066009E04C4EF66A06F00F06751C7D
:101DE0004F4EB6FBF5F65E43066002E04C4E0660D1
:101DF00000BF00BF444E766806F0F00109094A4E64
:101E0000725C0668D64046603F4E766806F4E06134
:101E1000090A454E725C4668D64086603A4E76683E
:101E200006F46051C90A404E725C4668D640C660EE
:101E3000354E766806F44041890B3C4E725CC668AC
:101E4000B6FBF2F6066170BD29B12F4A5269024312
:101E50002D4B5A6104E02C4A526982432A4B5A6145
:101E6000704729B1284A92690243274B9A6104E0DE
:101E7000254A92698243244B9A61704729B1224ACC
:101E8000D2690243204BDA6104E01F4AD2698243DF
:101E90001D4BDA61704729B11B4AD26802431A4BC5
:101EA000DA6004E0184AD2688243174BDA60704760
:101EB00029B1154A12690243134B1A6104E0124A10
:101EC00012698243104B1A61704714494039086007
:101ED00070471049C86470470B49C87170470A4879
:101EE000406A40F08070084948627047014600200F
:101EF000054A92680A400AB1012000E000207047BC
:101F00000149887270470000001002400000FFF88D
:101F1000FFFFF6FE00004242F0FFFEFF8004424257
:101F200000127A0000093D00B6120020C6120020FF
:101F30000648804706480047FEE7FEE7FEE7FEE763
:101F4000FEE7FEE7FEE7FEE7FEE7FEE70F200008FC
:101F5000210100080CB50020019000906348006842
:101F600040F480306149086000BF6048006800F4B8
:101F7000003000900198401C0190009818B9019819
:101F8000B0F5A06FF1D15948006800F4003010B1ED
:101F90000120009001E0002000900098012831D13C
:101FA00052484068514948600846406848600846C1
:101FB000406848600846406820F47C104860084645
:101FC000406840F4981048600846006840F080700F
:101FD000086000BF4548006800F000700028F9D094
:101FE0004248406820F00300404948600846406885
:101FF00040F00200486000BF3C48406800F00C0020
:102000000828F9D10CBD10B5FFF7A4FF10BD10B51D
:102010003648006840F001003449086008464068CE
:102020003349084031494860084600683149084052
:102030002E4908600846006820F4802008600846A1
:10204000406820F4FE0048604FF41F0088600020C4
:10205000C862FFF7D8FF4FF000602749086010BD45
:1020600030B50021002000220023204C646804F0D9
:102070000C0121B1042906D0082925D107E01F4C05
:102080001F4D2C6024E01D4C1D4D2C6020E0174C92
:10209000646804F47010154C646804F480320224FF
:1020A00004EB904022B9174C4443154D2C600AE0D4
:1020B0000E4CE46A04F00F04631C104CB4FBF3F400
:1020C00044430F4D2C6003E00C4C0D4D2C6000BFC1
:1020D00000BF064C6468C4F303140B4D295D084C23
:1020E0002468CC40064D2C6030BD0000001002403A
:1020F0000000FFF8FFFFF6FE08ED00E000127A0096
:10210000CC12002000093D00D0120020064C074DE3
:1021100006E0E06840F0010394E8070098471034B7
:10212000AC42F6D3FEF700F8A4210008C421000851
:1021300070B58C1810F8015B15F0070301D110F889
:10214000013B2A1106D110F8012B03E010F8016BB6
:1021500001F8016B5B1EF9D12B0705D40023521E39
:102160000DD401F8013BFAE710F8013BCB1A921CA1
:1021700003E013F8015B01F8015B521EF9D5A1429F
:10218000D8D3002070BD02E008C8121F08C1002A81
:10219000FAD170477047002001E001C1121F002AE8
:1021A000FBD17047C421000800000020E0120000AD
:1021B00030210008A0300008E012002000080000D4
:1021C00096210008012F123027E010080810E017B0
:1021D0000F102020100F1231541010F82620203F2D
:1021E000202012321F7008080888702C162824221C
:1021F00021301233273008888848301718202020D3
:10220000110E22343BC0203517070424243F24122A
:10221000351AF8222308083B1921221A3666348819
:1022200088183B0F111112371E380808C8382221B0
:10223000423F12381A70312966171C222121221CB4
:102240007A39991116312222110F198BE122611A64
:10225000800131180B19242222223F206208F81233
:1022600039534966326349221A0E111320113A6418
:10227000111A88AB29117D103F2065441A1F4313A2
:1022800022131A66102BF088AC1D20203F20744AC0
:1022900067221923176B94949493603A6866191017
:1022A0002C203F21051320695480989859332A6ABD
:1022B0006639131AC0291A7F3A19333934100820A5
:1022C0003F24022D3020126C2A081389333A6D64A2
:1022D0003922122029031A6E0CB9668A6FAA19CB0B
:1022E00013201F3A7022296B3BFFA1EE4A71EE19B1
:1022F0001329DD2DA0FF80720D39551945122012CA
:10230000017A73CC1B33240112191A74103AE04578
:102310003957214A7552190529663D103F20762FFD
:10232000290517010E300806012A775429111008D3
:102330000F300C030C300F2A782F49AB16312E0EBC
:1023400031206A79331E80818E7018334A7A76196B
:10235000151721302C22213022412CC038E0FE38C4
:102360000F3C2302022738204208F888888870E949
:1023700039CC1D43C030080112382B0718881208C9
:102380001C4408F8104B10E02213100F2A45333C70
:10239000E8081011142320189A46111132033A4705
:1023A000442238294414221E021A484421190510D7
:1023B0000A203F210101213F20492A085729892964
:1023C00046211A4A1F39121AC0AF327F1A4B552DB7
:1023D000C02818085515012638203A4C44293229BE
:1023E00088132030154D08F8F81AF81513203F19F6
:1023F0000212204E4E08F830C0661A207B123F4C65
:102400004FE010BB4B0F10BB3A50CC1B08F03319F8
:102410008822017A51221718242438504F2A52CC8E
:102420004C888870CC150C3020534B7088CD1738F1
:10243000202121221C3B5418A94A188A316A55DDF3
:10244000112A1F99121F25560878881BC838161C98
:1024500007380E661A571C1AF8221114033C071489
:10246000073C034816580818688080681808203010
:102470002C03032C3020590838C83259552A5A9851
:102480002911100820382621202018323A63C0C0B4
:10249000333030322163F8F8333333322845E018D3
:1024A00004021507182040122945020418E035409F
:1024B00020180710092A404080F080404010080290
:1024C00002010F010202922D4A0101322B5AF01033
:1024D0001A1F04114B3D4001114A040111125C5BAB
:1024E0000C30871115010638C0422F158060180482
:1024F0001C601806ED11922E39A8211D25F008F058
:102500009A29B4161C031E211E1BB3C9BB100D480B
:102510004848C808FF08090AC888081440300F1046
:102520000C08504F20100B0C122140F0100CB6BCC0
:10253000202424A47F2434282416FE22528A061D37
:1025400004027F2501227F16FF0808100F4011B2F8
:10255000A92020FF202004F45454FF5455F6041AF7
:10256000FFA618080F351547857F07AA2BB8DFB1DE
:10257000380874545556545474BC112DFF01013D54
:10258000461D253D41814A100ABFC610129272FEB7
:1025900051912B22CC3E213C040201461D04020233
:1025A000022D111009BCBC080888FF48281009C872
:1025B00048487F48C84808150141807F1E40402098
:1025C000130CAA1360202CB1BE08012FC838FF18C5
:1025D00068880A111809080804020504047F4615D2
:1025E00003060C041BBBFA1F1BFF48E61AFE562A03
:1025F000FE661A03653541300C03143F407816CD52
:10260000B84042CC200B484AEA5A7ED95929494859
:10261000200F40201F2048464140404149514F4033
:102620001BD6A757198019852A48871A08231985A8
:10263000100B2314080814232040C04013BDD718E2
:102640000FFF1129C54320D00C0304C8102020D14E
:102650003702040340300F29DB112011CCDD08883C
:1026600068FF2840C8494EF84C4A497839ED100BAC
:1026700020130A06FF020212221E33D7DC500AF88A
:10268000898E8888888C8BF8132038100C3C404049
:10269000424C404070041830100BBCE24020100E39
:1026A000042040BF1C020408111110100282824253
:1026B00022120E03060A122262C2421CB7E5F85526
:1026C000200BF82090884FD22252CE42180B1F08C0
:1026D0000F040F202A2A2AFF04132A2013C6BD2024
:1026E0000E010509712101FF0141211D09014A0166
:1026F000015AFF081113B9C8300D10080487422091
:102700001C204182040C3F040402017E2201157F3B
:1027100001060223B7D13E3A2AAA6A3F562CAE20C0
:10272000E0891B815F501E212141DF405413C2CA42
:10273000100F0C14A4046435AE642414A41404040F
:102740001010080A0908080A0BFE0A0B0C08090AEF
:10275000081BB5E7ED1A48012AFF0549EF1B0F04D6
:10276000011B3F4401144F40703012BCDB4020F08D
:102770001C472210C8040304D830602012FF3D809B
:10278000601807093123B5B1400D40425C48404014
:102790007F40504E44C04A20A839AC21180FC7B022
:1027A0000808E8A8A9AEEA0808C80C0B0631267F7D
:1027B0000424443F1C1F4080211113D5FD1D02023B
:1027C000C202012BFE820112021D2020203F04497B
:1027D0000513202023CFF2400DFC0404E625242419
:1027E00024E40404FC193A39AD1C0F20404B13D3E8
:1027F000D04808048444E4342C272312041B02012B
:10280000A32F0909092949C9651113B9A619172068
:102810000BFC04141410907F1010F0200F040C0413
:1028200004034222110C232060201F1BCABE7929F9
:10283000B63AE2BC1978151008040339A51D010247
:102840000C18221011FD10925438FF38545280F0A9
:102850001F1210F010101042422A2E131A260240A6
:1028600020130C336020100DCAA3082AAAFA0AFE0E
:1028700009F949A81AF88211100B21110805027FE5
:10288000020419092A07AB180FD3E040402020307A
:102890002824E3242828307A21180D40211D0941DD
:1028A000817F0105093911B6180BC1BF404040DFD7
:1028B000555555D5041ADF0C1119041A570C1A7FF7
:1028C000041B5750102BBDF0442809504844C34402
:1028D00048505044180E404042424A72427F426281
:1028E0005A42422213B6EE180F4C245D96D4340C93
:1028F000F6121A961212F2FD100E7E2322223F408B
:102900004F20180708106F13B9BA180BFE02FA020D
:10291000FE40300FCA080112F81B40231A12331F61
:10292000060504054E84AA13B4CE100F021CC03055
:102930004C300F08F80808281808180E025E4320CB
:102940002010080403010608307633C0DB600B1F3B
:1029500095D5B59F959555151F300B403406468586
:102960007C0415266C27BCC620212EE41A20012ADF
:10297000FF05411A7F443152FF1008BDE12030AC01
:1029800063101E084848487F04120826222322129A
:10299000122B7E2201227E1012CBE30807FAAAAE88
:1029A000AAAAA8ACABAAFE0A02021F08088B6A1EDC
:1029B0000A011CFE0A0BBB1133D6DC200CFE0242BE
:1029C0004A4A7E4A4A4202FE1A80D7199B200809C9
:1029D00009091F40807F13C6DA100804FF545454BD
:1029E000FF041AFE561922200F42221B02020A334C
:1029F0006218070222423F2BD3C344297349054979
:102A0000441A02011EFF020242824413B1ED1B4030
:102A100044442AD4491D5454444088100E0404FEF2
:102A200043211003040814236220180BB5D810109A
:102A300010FE105040FEEE1D1010F810F81B101F75
:102A4000A110093F40404F424443701ED6B720209A
:102A5000201E1122E025FF4040401B1030222D286F
:102A6000203F20031330201BD4AA351C2222E284ED
:102A70002904192B11364020100C0319461440402C
:102A8000701ECEB4404048012BC8FF061A484519B5
:102A900066100D10080601FF01020408183010101E
:102AA00009D0A3088868FF284810098868090E081B
:102AB000A8488813020112FF100B40422126181863
:102AC0002661C04013CAB11808FC444444FC10906D
:102AD000B219AB22102607040404071C034080EC43
:102AE000211012BEDD080808FF8840FE929292F283
:102AF00092929E8018080242817F40300F381A4718
:102B00003A2113B8FC18080202FA2A2A2AFE0415F0
:102B10002AFA0202199F180B2123150917112121E6
:102B200041C198100BD0C220242C35E6342C241C33
:102B3000FC2424CF11180A21114D817F0559211839
:102B40006A32FF13BCE414F801061AF0653692F2FB
:102B50000202FE2917298C3B04078A33C8D54BFE95
:102B600042012920411A3FB22901423F53D4C22BCE
:102B7000FF1101293E21380B4020100C03010101F7
:102B80002141221BBAC59A3C5FD151011A5F0C4109
:102B9000400A02070202224282423E180BD7EE4050
:102BA00040C05F5555D555013922180920203F15E1
:102BB0001515FF48D0151523612027BDFC4041CED7
:102BC0000419C929CA1B2220652E1F2040504F5BC3
:102BD000190412401812B2E9808848C8A89888FFE2
:102BE0008898A8A848C848884C405F5201395417B3
:102BF000D1AF4042CC04400A10E8272424E4040466
:102C0000FC147F20103E1F0909091FEE1008D6D5BD
:102C10002030AC63181808201817A444A41C7016A0
:102C20002223221212100A02020112246CC1020293
:102C30001012B6CB50911610F010405E5050DF507D
:102C4000505E4010101013100F0808FF01013F01E3
:102C50003F41817F1012BBB614244484641C2018A9
:102C60000FE80808281808101020104C43432C20A7
:102C7000100C0306183060203BD3ADCC3FFC04029F
:102C800002FC048839CC1C474241CB1542444340E6
:102C9000180DCAB94020F01C07F2949494FF041A4E
:102CA000F48911127F100C404122140C13103020B3
:102CB000612017C7EB40424CC41E22AAAAAABF0437
:102CC0005B2220CD1FFF0A0A0A4A8ACB111CB2E5FB
:102CD0000897100C884892925212FE119191901B05
:102CE00002429F11100A7F2424203F2024247F4386
:102CF000C8EB670183761860804740201008060102
:102D000016030418301013BFA83A40013BFF4401DA
:102D1000824012FF2602040C381017CEC210218602
:102D2000702B7E4A01427E580802FE01407F4141DD
:102D30000319CC26AA106002CC1C3E2AAA02323EFD
:102D40001B080823100B424C407F407F4844424000
:102D500023B6C8100EFC042424FCA5A6A4FC24243D
:102D60002404101080601F808042462A12122A26F6
:102D700042C040100ACFE01010D0FF3050901BFE30
:102D8000220122FE1B0403841112011BFF420119C0
:102D90000A13B6D416244484847C1E90101010FFAD
:102DA0000411100820100C020106181C074280F6BE
:102DB000192216C14042CC04180A509434D41FD4AE
:102DC000145434BD11100E7F2010824322120A07C2
:102DD0000A12E2421BD6D0881A08012AFF0543FCDA
:102DE000081B0702012AFF05320713D4DA180B0467
:102DF00004C4649C878484E48401120415040201E1
:102E00007F1A20012A3F051220180FD6D808080A79
:102E1000EAAAAAAAFFA9A9A9E947111809404048A6
:102E20004B4A4A4A7F04154B48404033C6F41808C1
:102E3000F8484848494E4A06227815402018072A83
:102E40007ED91901227E1012BBF10212A242A29F6A
:102E5000828282EF82A2C282821010120944827F93
:102E60008040300C0304183060201012C8A1020208
:102E7000FE929292FE02027C8404847C0410101064
:102E8000100F080804FF042210090609301023D28D
:102E9000D422FE34021C8852FF180D081F0C064273
:102EA000412010180E070845180DB1E34020F01C12
:102EB00007FA2A2A2AFE043BFA0229100C808345CD
:102EC000291917212141C14013CDAC1CFE02126704
:102ED00029011B12024F294A1A1FD52708081F4033
:102EE000807F2BB2BDFC1ABC041BFF2401232020D1
:102EF0001B4444641808202017100804035317D0FB
:102F0000BB4042CC04300BFC5655FC509010FF10D7
:102F10001010083F5029114D837F2A414311180892
:102F2000BACF4040205048372D42446850DE314BE4
:102F30007E2201427E4012D7F7804020F8072218F7
:102F40000CFB48484868480839D41BFF04011306A5
:102F500004380BB5C89088A7A2A6BAA2F8062382A7
:102F600080291A1F0C340444847F09212012B4FDE7
:102F7000201008C73A504444447F44C44444401499
:102F80000201FF100B02021A0242827F0202023388
:102F9000BAF32BFE12012A1101211540300E013A1D
:102FA0007F0D2A11AA3BB7BDFB180808F94A4C4807
:102FB00048C8091119BA24100C03452040403F1B92
:102FC000BFC9522AF2431AF2531AFE56311A070B9E
:102FD0003D02071020231BB0CE38100DFF8848108B
:102FE00010FF505052D45010180E0242817F4020E2
:102FF000584720130C1621FE23B3F61BFC40012A70
:10300000FF054340FC1B7E20012A3F0523207E2B29
:10301000C6ACAA2A10011A1F041318104E804030A3
:103020000F010142FF13CAA71D402018166539265B
:1030300041100F01814121110D0305093161C14189
:10304000011BB0DC43280B02F202FE20F81712101D
:10305000F024180840310C0304B95088151360C0DF
:103060004013A1AD33C0C08905011013A1E62E02A3
:1030700005E21804E0550202041E3C071820B819A6
:103080008021032420202D010203040430090607B7
:10309000080902040608AC366E011E291A00000059
:0400000508000121CD
:00000001FF
